:020000040800F2
:1000000010610020D9020008013500080928000805
:10001000FD340008E50300081D380008EB02000865
:10002000000000000000000000000000C9370008C8
:10003000E90300080000000005350008CD3700087E
:10004000F5020008F5020008F5020008F5020008B4
:10005000F5020008F5020008F5020008F5020008A4
:10006000F5020008F5020008F5020008F502000894
:10007000F5020008F5020008F5020008F502000884
:10008000F5020008F5020008F5020008F502000874
:10009000F5020008F5020008F5020008F502000864
:1000A000F5020008F5020008F5020008F502000854
:1000B00000000000F5020008F5020008F502000843
:1000C000F5020008F5020008F5020008F502000834
:1000D000F5020008F5020008F5020008F502000824
:1000E000F5020008F5020008F5020008F502000814
:1000F000F5020008F5020008F5020008F502000804
:10010000F5020008F5020008F5020008F5020008F3
:10011000F5020008F5020008F5020008F5020008E3
:10012000F5020008F5020008F5020008F5020008D3
:10013000F5020008F5020008F5020008F5020008C3
:10014000F5020008F5020008F5020008F5020008B3
:10015000F5020008F5020008F5020008F5020008A3
:10016000F5020008F5020008F5020008F502000893
:10017000F5020008F5020008F5020008F502000883
:10018000F5020008F5020008F5020008F502000873
:10019000F5020008F5020008F5020008F502000863
:1001A000F5020008F5020008F5020008F502000853
:1001B000F502000800000000F5020008F502000842
:1001C000F502000800000000F5020008F502000832
:1001D000F5020008F5020008F5020008F502000823
:1001E000F5020008F5020008F5020008F502000813
:1001F0000000000000000000F5020008F502000801
:10020000F5020008F5020008F5020008F5020008F2
:10021000F5020008F5020008F5020008F5020008E2
:10022000F5020008F5020008F5020008F5020008D2
:10023000F5020008F502000800F002F800F03CF8B2
:100240000AA090E8000C82448344AAF10107DA4531
:1002500001D100F031F8AFF2090EBAE80F0013F047
:10026000010F18BFFB1A43F0010318473C37000089
:100270005C370000103A24BF78C878C1FAD852071A
:1002800024BF30C830C144BF04680C607047000010
:100290000023002400250026103A28BF78C1FBD88F
:1002A000520728BF30C148BF0B6070471FB503F02D
:1002B00006FB1FBD10B510BD00F05AF81146FFF740
:1002C000F5FF03F0ADFA00F078F803B4FFF7F2FFA2
:1002D00003BC00F07FF800000A4880470A48004746
:1002E000FEE7FEE7FEE7FEE7FEE7FEE7FEE7FEE7E6
:1002F000FEE7FEE7FEE7000004480549054A064B15
:1003000070470000D13700083902000810010020B2
:100310001061002010310020103100204FF0000249
:1003200000B5134694469646203922BFA0E80C50EB
:10033000A0E80C50B1F12001BFF4F7AF090728BFC6
:10034000A0E80C5048BF0CC05DF804EB890028BF42
:1003500040F8042B08BF704748BF20F8022B11F06B
:10036000804F18BF00F8012B7047704770477047E7
:10037000754600F02BF8AE4605006946534620F05E
:100380000700854618B020B5FFF7B6FFBDE820404E
:100390004FF000064FF000074FF000084FF0000B41
:1003A000AC46ACE8C009ACE8C009ACE8C009ACE8B0
:1003B000C00921F007018D46704710B50446AFF320
:1003C00000802046BDE81040FFF77FBF004870471F
:1003D0001000002001491820ABBEFEE726000200F5
:1003E00070470000FEE700007047000072B600BFD3
:1003F000FEE70000B0B5044600F024F9054640F2DF
:100400000000C2F200000078611C18BF044400BF65
:1004100000F018F9401BA042FAD3B0BD2DE9F04F0F
:1004200081B00D68002D00F00381804647F67F7093
:10043000C0F22F0000EA98200027009000234FF020
:10044000010E4FF0030BC4F2026740460EFA03F4AC
:1004500015EA040A00F0E680B8452BD0D1F804C0B4
:100460004CF01004122C40F084806FF0030202EA7A
:1004700053071C2202EA830647440F223D6A02FA10
:1004800006F40A69A54302F00F02B2402A433A6219
:1004900002685C00D1F804C00BFA04F5AA430CF022
:1004A000030505FA04F4224399460260BCF1120FD9
:1004B00034D96DE0386843F6E8024D68C0F60002B2
:1004C000A04302EBC30405F001059D40D4F804905D
:1004D000054352F833006FF0030202EA59041C226C
:1004E0003D60051902EA89042F6A0F2202FA04F618
:1004F0000B22B74302FA04F637432F6207684FEA2C
:1005000049060BFA06F50222AF4302FA06F6374314
:100510000760D1F804C0BCF1120F39D80EFA0CF202
:1005200012F0061F21D04FEA49050324826804FA1D
:1005300005FBCC6822EA0B02AC4022438260426891
:10054000CCF300160EFA09F4A24306FA09F422438A
:10055000BCF1030F426003D14FF0030B5FE000BF1B
:100560006FEA0B044FF0030B17E0BCF1030F56D0FA
:100570000EE002685C000BFA04F5AA430CF00305D8
:1005800005FA04F4224399460260BCF1120FC5D962
:100590004FEA49050BFA05F2D443C2688E6822403F
:1005A00006FA05F422435FEACC07C26037D542F26F
:1005B000000423F00302C4F202641827224407EA6D
:1005C000C307166E0F25BD40AE43009D05FA07F721
:1005D0003743176622684F6842EA0A06FD0258BF91
:1005E00022EA0A0626606268BD0242EA0A0658BF8D
:1005F00022EA0A066660D4F88420BD0342EA0A06AD
:1006000058BF22EA0A06C4F88460D4F88020FF03A9
:1006100042EA0A0658BF22EA0A06C4F880600027A8
:10062000C4F202670D68013335FA03F27FF40EAFAE
:1006300001B0BDE8F08F00001823002A08BF28236E
:10064000C150704740F20C10C2F2000000687047C1
:1006500040F20041C4F203010A68D2071CBF012026
:1006600070470A6822F004021043086000207047B7
:1006700040F20041C4F20301086840F0010200208A
:100680000A60704740F2000040F20C11C2F2000014
:10069000C2F2000100780A68104408607047000048
:1006A00080B542F20000C4F20200016841F480719A
:1006B0000160032000F0BAF800F0A6FE40F62041E9
:1006C000C4F20261096843F6D80201F00F01C0F6D6
:1006D0000002515CC84040F20801C2F2000108600B
:1006E000042002F01FF80F2000F008F800281CBFBB
:1006F000012080BD00F05EF8002080BD70B540F2A2
:100700000006C2F200063178002925D004464EF2D8
:100710001000CEF20000006840070FD402F05AF833
:1007200002281CD0012828D0A8BB40F20800C2F241
:100730000000006831784FF4FA5206E040F20800F9
:10074000C2F2000000684FF47A72B2FBF1F1B0FB24
:10075000F1F002F02DF818B30125284670BD30786D
:100760004FF47A71B1FBF0F04FF40041B1FBF0F0BF
:1007700002F01EF80028EFD112E030784FF47A71C1
:10078000B1FBF0F04FF4FA41B1FBF0F002F010F8D9
:100790000028E1D104E0002002F00AF80028DBD1B3
:1007A0004FF0FF3021460022002500F013F82846C4
:1007B000746070BD81B040F69440C4F2026001687C
:1007C00041F004010160006800F00400009000980E
:1007D00001B0704710B54EF60C5CCEF2000CDCF8A0
:1007E0000030C3F3022E8EF00704042C28BF04242B
:1007F000BEF103034FF0FF3E38BF00230EFA04F4AE
:10080000A14399400EFA03F39A4300F00F03043B0F
:100810001143634409010C3300F16042B0F1FF3F22
:10082000C8BF02F56443197010BD00004EF60C51AC
:10083000CEF200010A684FF6FF031A4060F30A2265
:1008400042F0806040F0FD700860704710B540F6DF
:100850000C0CC4F2026CDCF8301001F4403181421F
:100860000CD1B0F1011F3CBF002010BDDCF800002E
:1008700040F48020CCF80000002010BDDCF800100F
:10088000B0F5803F21F4E02141EA000140F2080088
:1008900088BF41F48021CCF80010C2F2000000684B
:1008A00041F25971CDF2B711A0FB01020120910B69
:1008B00000EB923E0A4600BFDCF80000B2F1FF33C5
:1008C00018BF0123541C22D010F400401FD1DCF8C3
:1008D0000000002A134618BF012318D010F400406E
:1008E00015D1DCF80000531E18BF0123012A0ED0D9
:1008F00010F400400BD1DCF80000931E18BF012358
:10090000022A04D010F40040A2F10402D4D0002B3B
:1009100004BF032010BD00BFDCF830004A1C26D005
:1009200010F4004029D1DCF830000029AEF10102BA
:1009300018D010F4004015D1DCF830000129AEF1D8
:1009400002020FD010F400400CD1DCF83000022974
:10095000A1F1040205D010F40040AEF1040E1146DE
:10096000DAD002320020002A08BF032010BD7246F0
:100970000020002A08BF032010BD72460020002A74
:1009800008BF032010BD000040F63C00C4F2026026
:10099000006800F4403070472DE9F04F81B0044604
:1009A000006840F6E04BC107C4F2026B46D18107F4
:1009B0004ED4410756D401075ED4C10666D48106E1
:1009C0006ED4410600F17780010600F17F80C105F9
:1009D00000F18780410200F18F80810500F197804E
:1009E000410500F19F80010500F1A78040F62848ED
:1009F0008004C4F2026840F1B080D4F890004FEA5D
:100A00007011042900F20381DFE811F005000701ED
:100A100012011801180104F1080002F075FD0646E4
:100A2000002800F002816078400600F19B80374684
:100A300035466078000600F1AA804AE3DBF8001032
:100A4000226D21F003011143CBF800108107B0D5CE
:100A5000DBF80010626D21F00C011143CBF800109F
:100A60004107A8D5DBF80010A26D21F03001114339
:100A7000CBF800100107A0D5DBF80010E26D21F0E3
:100A8000C0011143CBF80010C10698D5DBF8001067
:100A9000226E21F440711143CBF80010810690D5ED
:100AA000DBF80810626E21F007011143CBF8081043
:100AB00041067FF589AFDBF80010A26E21F440619A
:100AC0001143CBF8001001067FF581AFDBF8001071
:100AD000E26E21F440511143CBF80010C1057FF5BF
:100AE00079AFDBF80810226F21F0C0011143CBF879
:100AF000081041027FF571AFDBF80010626F21F43E
:100B000040411143CBF8001081057FF569AFDBF858
:100B10000810A26F21F440611143CBF80810410581
:100B20007FF561AFDBF80010E26F21F44021114343
:100B3000CBF8001001057FF559AFDBF80810D4F8A9
:100B4000802021F440711143CBF8081040F628486A
:100B50008004C4F202683FF550AF0026607840067A
:100B60007FF565AFD4F894004FEA3020042800F2F6
:100B700072803746DFE800F076808A030300002F9A
:100B80003D4600F08E806078000640F1A282D4F8E5
:100B9000A4004FEA3030052800F28182022800F0DC
:100BA0008582002F3E4600F08A82A078C00700F0C0
:100BB0009582D4F88800042800F28380DFE800F0F2
:100BC000038893030300002F3D4600F09580A07832
:100BD000800740F18882D4F88C004FEA3040042826
:100BE00000F29A80DFE810F0050002010D01050017
:100BF0000500002FB94600F00D81A078400700F1F4
:100C000092804D46A078C00600F12C81E8E10126D3
:100C1000607840067FF50BAFA4E704F12C0002F0EA
:100C2000F1FC064600287FF4FEAED4F8900005E003
:100C3000D8F8001041F48031C8F80010DBF8041037
:100C400021F0E0010843CBF804000026607840065C
:100C50007FF5EDAE86E701270125607800063FF5B8
:100C600096AF36E204F1080002F04EFC0746002F72
:100C70003D467FF488AF14E004F12C0002F0C2FC82
:100C80000746002F3D467FF47EAF0AE0D8F800000B
:100C9000374640F48030C8F80000002F3D467FF40E
:100CA00072AFDBF80400D4F8941020F4E06008433D
:100CB0000027CBF804003546607800063FF567AFA3
:100CC00007E201270125A07880073FF584AF0AE2FB
:100CD000D8F8000040F48030C8F80000002F3D46EE
:100CE0007FF475AF08E004F12C0002F08BFC07469E
:100CF000002F3D467FF46BAFDBF80400D4F888107A
:100D000020F0070008430027CBF804003546A07800
:100D100080073FF560AFE6E101274FF00109A078B9
:100D200040077FF56EAF5BF84C0C40070ED45BF8C4
:100D30004C0C4FF0010A40F004004BF84C0C5BF8EF
:100D40004C0C00F004000090009801E04FF0000A05
:100D50004FF60045CFF6FF7558F8050040F001004A
:100D600048F80500FFF76EFC064600BF58F805007E
:100D7000C0070AD1FFF766FC801B0228F6D90327BB
:100D80000325BAF1000F63D168E0002F3D465CD126
:100D9000DBF8100010F440704CD0D4F8BC1088423E
:100DA00011D0DBF81000DBF8101020F4407041F493
:100DB0008031CBF81010DBF8101021F48031CBF823
:100DC0001010CBF81000C00734D0FFF73BFC0646EC
:100DD00003270325DBF8100080072BD4FFF732FC34
:100DE000801B41F288318842F4D92EE0D8F8000007
:100DF00040F48030C8F80000002FB9467FF4FDAE03
:100E000008E004F12C0002F0FDFB0746002FB94674
:100E10007FF4F3AEDBF80800D4F88C1020F4E02067
:100E200008430027CBF80800A946A07840077FF5C3
:100E3000E8AE78E7DBF81000D4F8BC1020F440707E
:100E4000084300274D46CBF81000BAF1000F05D03B
:100E50005BF84C0C20F004004BF84C0CA078C0065A
:100E600040F1BE80D4F89C004FEAB060032800F245
:100E70009280DFE800F00297A102002F394600F0CF
:100E8000A5802068020340F1B080D4F8982032B1E8
:100E9000B2F5005F18BFB2F5805F40F0FA80002F16
:100EA0003E4652D0810200F1A480010200F1B680DA
:100EB000C10100F1BF80810100F1C880400140F113
:100EC000D180D4F8AC00B0F5401F27D0B0F5001F9A
:100ED00005D1D8F8000040F40030C8F80000002F19
:100EE0003D4623D0E078000740F1C180D4F884006B
:100EF00058B1B0F1007F34D0B0F1807F46D1D8F83E
:100F0000000040F40030C8F800008FB3E078C0065D
:100F100000F1B280384601B0BDE8F08F04F108005E
:100F200002F0F2FA0746002F3D46DBD1DBF8040061
:100F3000D4F8AC1020F4401008430027CBF804008C
:100F40003546E0780007D1D491E0DBF80430002783
:100F500023F440531A43CBF804200E468102A4D553
:100F600047E004F1080002F0CFFA0746002FCDD188
:100F7000DBF80000D4F8841020F040700843CBF870
:100F800000002F46E078C006C4D575E00127E07860
:100F9000C006BFD570E001270121206802033FF59C
:100FA00074AF22E004F1080002F0AEFA0746002F09
:100FB00039467FF466AF09E0D8F8000040F400300D
:100FC000C8F80000002F39467FF45BAFDBF8000063
:100FD000D4F89C1020F0406008430027CBF80000B4
:100FE0002946206802033FF550AF0E4681027FF587
:100FF0005CAFD4F8A010B1F5804F05D1D8F800202F
:1010000042F48032C8F80020DBF8042022F4804249
:101010001143CBF8041001027FF54AAFDBF8001052
:10102000D4F8B02021F440111143CBF80010C101D5
:101030007FF541AFDBF80010D4F8B42021F4403143
:101040001143CBF8001081017FF538AFDBF80810B1
:10105000D4F8B82021F018011143CBF80810400152
:101060003FF52FAF3546E07800073FF53FAF2F46FD
:10107000E078C0067FF54EAFDBF80800D4F8A81082
:1010800020F400400843CBF80800384601B0BDE822
:10109000F08F0127012681027FF507AFA9E701271D
:1010A0000126A078C0077FF484AD17E004F10800A2
:1010B00002F02AFA0746002F3E467FF476ADDBF8B1
:1010C0000800D4F8A41020F4E04008430027CBF82F
:1010D00008002E46A078C0077FF46BAD3546A07897
:1010E00080073FF578ADA946A07840077FF589AD28
:1010F00019E600002DE9F04F81B0002800F02D81A5
:1011000042F20008C4F202080446D8F800000D4676
:1011100000F00F0088420DD2D8F8000020F00F0038
:101120002843C8F80000D8F8000000F00F00A842DB
:1011300040F01381206840F62049C106C4F20269DC
:101140000DD56169D9F8042002F07002914206D9E8
:10115000D9F8042022F070021143C9F804100107E5
:101160000FD52169D9F80020702303EA12129142A9
:1011700007D9D9F8002022F4E06242EA0111C9F847
:10118000001041070DD5E168D9F8002002F0700287
:10119000914206D9D9F8002022F070021143C9F813
:1011A000001081070DD5A168D9F8002002F00F02C8
:1011B000914206D9D9F8002022F00F021143C9F854
:1011C0000010C00773D1206881070DD5A168D9F838
:1011D000002002F00F02914206D2D9F8002022F03E
:1011E0000F021143C9F80010D8F8001001F00F01E8
:1011F000A9420DD9D8F8001021F00F012943C8F8F1
:101200000010D8F8001001F00F01A94240F0A580AD
:1012100041070DD5E168D9F8002002F07002914233
:1012200006D2D9F8002022F070021143C9F800104C
:1012300001070FD52169D9F80020702303EA1212A3
:10124000914207D2D9F8002022F4E06242EA01116B
:10125000C9F80010C0060DD56069D9F8041001F076
:101260007001884206D2D9F8041021F070010843B9
:10127000C9F8040000F0C8F8D9F8001043F6D80205
:1012800001F00F01C0F60002525C40F20401C2F20C
:101290000001096840F2080320FA02F2C2F20003DA
:1012A00008461A6001B0BDE8F04FFFF727BA606842
:1012B00040F61C4B0228C4F2026B14D003281AD14A
:1012C000D9F8740040071CD4D9F874004FF0010A13
:1012D00040F00400C9F87400D9F8740000F004006C
:1012E000009000980FE05BF81C0C800331D40120C3
:1012F00001B0BDE8F08F5BF81C1C60B349052CD52C
:1013000030E04FF0000AFFF79DF94FF6F037CFF6C7
:10131000FF775BF8071049030CD506465BF807001A
:10132000400407D4FFF78EF9801B02284FF003001A
:10133000F4D965E0BAF1000F05D0D9F8740020F0B7
:101340000400C9F874005BF81C0C800105D56068C6
:1013500008E0022006E0480703D4012001B0BDE800
:10136000F08F0020DBF8001021F003010843CBF8D8
:101370000000FFF767F961680646032941F28837E4
:1013800010D002291ED069BBDBF8000010F00C0F52
:101390003FF419AFFFF756F9801BB8424FF0030036
:1013A000F2D92DE0DBF8000000F00C000C283FF42F
:1013B0000AAFFFF747F9801BB8424FF00300F1D99D
:1013C0001EE000BFDBF8000000F00C0008283FF42E
:1013D000FAAEFFF737F9801BB8424FF00300F1D99E
:1013E0000EE000BFDBF8000000F00C0004283FF422
:1013F000EAAEFFF727F9801BB8424FF00300F1D99E
:1014000001B0BDE8F08F000040F62841C4F202614F
:1014100051F80C0C10F00C02086814D00C2A04BF10
:1014200000F0030001280ED051F80C0C00F00C0065
:10143000042842F20040C0F2F40002D0082A64D02E
:101440000020002316E051F8200C000204D4D1F84B
:10145000CC00C0F3033002E051F8200C000F43F63B
:101460006813C0F6000353F82030002A04BF184662
:10147000704700200C2A18BF704780B5D1F800C013
:101480000A6801EE103AC2F3032E08689FED1F2A86
:10149000C0F300100A699FED1E3AC2F3CC0202FBB2
:1014A00000F00EF1010200EE100A5FEA8C70B8EE57
:1014B000400AB8EE411A58BFB0EE412A01EE102A98
:1014C00020EE030AB8EE411AC86882EE011A6FF3E3
:1014D0005F2002EE100AB8EE422AC86830EE020A17
:1014E000B7EE002AC0F3066030EE020A013021EEAA
:1014F000000A01EE100AB8EE411A80EE010ABCEEB5
:10150000C00A10EE100ABDE8804070470024744BFA
:10151000000000392DE9F04381B0002800F0D584A7
:1015200040F694490446C4F2026959F8780C59F817
:101530006C1C227800F00C07D00601F003081FD4C1
:101540002078C00700F0FC81082F70D00C2F08BF56
:10155000B8F1030F6BD0656840F60046B5F5803FE3
:10156000C4F2026600F0C980B5F5A02F40F0BA8041
:10157000306840F480203060306820F48010BBE098
:10158000F7B10C2F08BFB8F1010F19D040F6004693
:10159000C4F20266E1693068002965D040F00100BC
:1015A0003060FFF74FF80546306840076FD4FFF70B
:1015B00049F8401B02284FF00300F5D900F056BD52
:1015C000E069002800F0818440F60045C4F202651D
:1015D000666AA86800025ABFD9F860000004A868CB
:1015E00000F07040864228D9002F40F0E780D9F8FB
:1015F0000000400700F1C680D9F8000040F0040068
:10160000C9F80000D9F8000000F00400009000982C
:10161000FFF7BAF9D9F8001021F00401C9F8001059
:1016200040F48031B1F5403F00F0B380F0E06068F5
:10163000002840F0858100F048BCA868B6F1404F12
:1016400040F40000A860A86820F0704040EA06005E
:10165000A86034D3E868216A20F01F000843002FF7
:10166000E86040F04681E6E020F001003060FEF7DF
:10167000E9FF0546306840077FF562AFFEF7E2FFFD
:10168000401B02284FF00300F4D900F0EFBCB06813
:1016900040F40000B060B168606A21F0704101431D
:1016A000B0F1404FB1603CD3F068216A20F01F00D8
:1016B0000843F0602078C0077FF446AF40E1B6F100
:1016C000FF3F40F39B80E868B6F1804FC0F0AB80ED
:1016D000216A20F4F84040EA8120002FE86040F0C1
:1016E0000881A8E03068B5F5A81F2ED140F480200D
:1016F0003060306840F480103060306840F48030F2
:101700003060FEF79FFF05463068800300F11881C6
:10171000FEF798FF401B64284FF00300F4D900F057
:10172000A5BCB0F1FF3F40F3D280F168B0F1804F2B
:10173000C0F0FC80206A21F4F84141EA8020F0608A
:101740002078C0077FF400AFFAE020F480303060EA
:10175000306820F480203060306820F480103060E1
:10176000FEF770FF002D0546CED13068800340F1B2
:10177000E780FEF767FF401B64284FF00300F4D9B1
:1017800000F074BCFFF700F940F48031B1F5403F40
:101790003ED10021B6F1805F38BF012142F2000046
:1017A000C4F20200026822F00F020A4402600068DC
:1017B00000F00F00884240F08883666AA868B6F19E
:1017C000404F40F40000A860A86820F0704040EA54
:1017D0000600A86005D3E868216A20F01F000843CE
:1017E00086E0B6F1FF3F6BDDE868B6F1804F7AD353
:1017F000216A20F4F84040EA812079E0E868216A13
:1018000020F4787040EA4110002FE86071D112E0B6
:101810000021B1EB167F40F07981B0F5803F40F0B8
:1018200054830321BAE7216A20F4782040EAC130CA
:10183000002FE8605DD1D9F80000400719D4D9F82D
:10184000000040F00400C9F80000D9F8000000F0E2
:10185000040000900098FFF797F8D9F8001021F0E5
:101860000401C9F8001040F48031B1F5403F07D0C1
:101870001BE0FFF789F840F48031B1F5403F14D107
:101880000021B6F1805F38BF012142F20000C4F2AE
:101890000200026822F00F020A440260006800F0B1
:1018A0000F00884240F0118323E00021B1EB167F46
:1018B00040F03A81B0F5803F40F007830321E4E730
:1018C000E868216A20F4787040EA411010E0F0687E
:1018D000216A20F4787040EA4110F0602078C00757
:1018E0007FF432AE2CE0216A20F4782040EAC13047
:1018F000E860FFF789FD59F8741C43F6D80201F03F
:101900000F01C0F60002515C40F2080220FA01F11A
:1019100040F20400C2F200000068C2F2000211604E
:10192000FEF7ECFE002840F0A18309E6206A21F4CE
:10193000782141EAC030F0602078C0077FF404AE1F
:10194000207880072ED5042F1FD00C2F08BFB8F1A8
:10195000020F1AD040F60046C4F20266E168306811
:10196000002900F0AF8040F480703060FEF76AFE1E
:10197000054600BF306840050BD4FEF763FE401BF0
:1019800002284FF00300F5D970E3E068002800F06A
:101990009C8259F8840C216920F4F81040EA014037
:1019A00049F8840C207840F600470007C4F202672B
:1019B0001ED42078400700F1F1802078800640F1A5
:1019C000A681E16A3868002900F08E8040F48050DA
:1019D0003860FEF737FE05463868800400F19781CD
:1019E000FEF730FE401B02284FF00300F4D93DE320
:1019F000D9F8000040070ED4D9F800004FF00108D4
:101A000040F00400C9F80000D9F8000000F004001C
:101A10000090009801E04FF000084FF62846CFF6FE
:101A2000FF76B859C00713D1B85940F00100B8513A
:101A3000FEF708FE054600BFB859C00708D1FEF7FB
:101A400001FE401B0228F7D9032001B0BDE8F08356
:101A50006069D9F85C1008B3A06901F08052904227
:101A600078D001F04062B2F1006F00F02E8249019F
:101A700069D5D9F85C0020F0A050C9F85C00FEF7E9
:101A8000E1FD0546D9F85C0000015BD5FEF7DAFD03
:101A9000401B05284FF00300F4D9E7E221F0A050E5
:101AA000C9F85C00FEF7CEFD054600BFD9F85C0022
:101AB000000165D5FEF7C6FD401B05284FF0030069
:101AC000F4D9D3E220F480703060FEF7BBFD054608
:101AD000306840057FF566AFFEF7B4FD401B022875
:101AE0004FF00300F4D9C1E220F480503860FEF7D3
:101AF000A9FD05463868800440F10981FEF7A2FD82
:101B0000401B02284FF00300F4D9AFE2B6F1005FAA
:101B100040F21982B0FA80F000214009B6F1405F2E
:101B200098BF0121014039E6B6F1005F40F216820C
:101B3000B0FA80F000214009B6F1405F98BF012162
:101B40000140A2E6A069D9F85C1021F08051084359
:101B5000C9F85C00D9F85C0040F08060C9F85C000E
:101B6000FEF770FD054600BFD9F85C00000107D400
:101B7000FEF768FD401B05284FF00300F4D975E21D
:101B8000B8F1000F3FF415AFD9F8000020F00400C1
:101B9000C9F80000207840077FF50FAFD9F80000A2
:101BA00040070ED4D9F800004FF0010840F00400BF
:101BB000C9F80000D9F8000000F004000090009877
:101BC00001E04FF000084FF62846CFF6FF76B859EF
:101BD000C00712D1B85940F00100B851FEF732FDEC
:101BE000054600BFB859C00707D1FEF72BFD401BC3
:101BF00002284FF00300F5D938E2A568E8070AD1BA
:101C0000D9F85C0020F00100C9F85C00D9F85C004C
:101C100020F004000BE0D9F85C00690705D540F01E
:101C20000400C9F85C00D9F85C0040F00100C9F874
:101C30005C00FEF707FD002D054641F288360BD00B
:101C4000D9F85C00800713D4FEF7FCFC401BB042BF
:101C50004FF00300F4D909E2D9F85C0080071ED5E3
:101C6000FEF7F0FC401BB0424FF00300F4D9FDE159
:101C7000A168D9F85C00090629D420F0800041F25F
:101C80008836C9F85C00D9F85C00000531D5FEF74C
:101C9000D9FC401BB0424FF00300F4D9E6E1D9F87B
:101CA0005C00000625D5D9F85C0041F2883620F0AA
:101CB0008000C9F85C00D9F85C00000519D5FEF772
:101CC000C1FC401BB0424FF00300F4D9CEE140F01C
:101CD000800041F28836C9F85C00D9F85C00000544
:101CE00007D4FEF7AFFC401BB0424FF00300F4D91D
:101CF000BCE1B8F1000F3FF460AED9F8000020F06D
:101D00000400C9F80000207880063FF55AAE20781C
:101D1000000626D5216B386889B140F480403860D0
:101D2000FEF790FC054600BF3868000419D4FEF7A2
:101D300089FC401B02284FF00300F5D996E120F4FE
:101D400080403860FEF77EFC054600BF386800041E
:101D500007D5FEF777FC401B02284FF00300F5D9AA
:101D600084E12078400654D5606BA0B1B86840F497
:101D70000000B860B86820F07061D4E90902B0F1E1
:101D8000404F41EA0201B96017D3F868216A20F098
:101D90001F0008432AE0386820F010003860FEF782
:101DA00051FC05463868800633D5FEF74BFC401BD6
:101DB00002284FF00300F5D958E1B0F1FF3F09DDEB
:101DC000F968B0F1804F0CD3206A21F4F84141EA60
:101DD00080200BE0F868216A20F4787040EA411016
:101DE00004E0206A21F4782141EAC030F8603868C4
:101DF00040F010003860FEF725FC05463868800684
:101E000007D4FEF71FFC401B02284FF00300F5D952
:101E10002CE1A56B002D00F0328159F8780C00F010
:101E20000C000C2855D159F86C1C59F8600C012D88
:101E30004BD0E26B01F00303934246D1C1F303227E
:101E4000236C013B9A4240D1626C01F47041914293
:101E50003BD1A26C01466FF35F21013A914234D12C
:101E6000C0F34621E26C013A91422ED1C0F3064103
:101E7000226D013A914228D1C0F30660616D0139AB
:101E8000884222D159F85C0CC0F3CC00E16D884245
:101E900000F0F58059F86C0C20F0100049F86C0C3B
:101EA000FEF7D0FB0546FEF7CDFBA842FBD0E06D68
:101EB000C00049F85C0C59F86C0C40F0100049F86F
:101EC0006C0C002001B0BDE8F083012001B0BDE83A
:101ED000F083386820F080703860FEF7B3FB022D85
:101EE00005460AD13868800112D5FEF7ABFB401BCE
:101EF00002284FF00300F5D9B8E0386880011AD500
:101F0000FEF7A0FB401B02284FF00300F5D9ADE01F
:101F1000D9F8000040072BD4D9F800004FF0010C8D
:101F200040F00400C9F80000D9F8000000F00400F7
:101F3000009000981EE059F86C0C4FF6FC71CFF63B
:101F4000F871084099E00221B0F5803F08BF0121F7
:101F5000B6F1805F18BF0121FFF720BC0221B0F568
:101F6000803F08BF0121B6F1805F18BF01218CE4DA
:101F70004FF0000C4FF60C48CFF6FF7857F808E00A
:101F800057F808304FF6037623F4802347F80830DB
:101F900059F86C3C6FF0FF01B343D4E90F65D4E905
:101FA00011023343184301EB05214FF47E430843EC
:101FB00049F86C0C59F8600C0021C8F28001084007
:101FC000511EE26C4FF4FE0503EB4222236D6FF3CA
:101FD0005F2105EB0343656D92B24FF0FE4606EBC1
:101FE0000565084403F4FE03104405F0FE4518445B
:101FF000284449F8600C59F86C0C20F0100049F89E
:102000006C0CE06DC00049F85C0C59F86C0C40F0A9
:10201000100049F86C0C59F86C0CA16D20F00C0004
:1020200008435FEA4E3149F86C0C05D557F80800B3
:1020300040F4802047F80800BCF1000F05D0D9F823
:10204000000020F00400C9F80000386840F08070FB
:102050003860FEF7F7FA04463868800109D4FEF7C5
:10206000F1FA001B02284FF00300F5D901B0BDE8DA
:10207000F08359F86C0C40F4802049F86C0C002077
:1020800001B0BDE8F083000090F88920012A1EBF4E
:1020900001221046704790F88820012A4FF0020272
:1020A00015D080F889200268136823F001031360BB
:1020B000D1E900C3896803F4702343EA0C03194390
:1020C000D1610121002280F8891080F88820104613
:1020D00070470000F0B581B000285ED0044600686B
:1020E00042F2000340F08052C5F2006300219A42A0
:1020F000A16203D1E1680F294FD800E0E168E26BEB
:10210000012505EB52120831C90802FB01F143F227
:10211000FF72C5F20002904212DC43F60003C4F2E3
:102120000003984237D043F20003C4F201039842FF
:1021300031D042F20003C4F2006398420ED02FE087
:1021400043F60005C5F20005A84224D043F200057D
:10215000C5F20105A8421ED0984221D108291CD8F9
:1021600090420CDC43F60002C4F20002904212D00E
:1021700043F20002C4F2010290420CD010E043F29C
:102180000002C5F20102904205D043F60002C5F2FA
:102190000002904204D1102902D9012001B0F0BD03
:1021A00094F8891031B9002084F88800204600F0A6
:1021B0006BF82068022184F88910016821F0010180
:1021C00001608368A7696268B7F1806F03F4F81C47
:1021D0000ED12AB1B2F5800F0AD1A36B73B903E017
:1021E000A36BB3F1805F05D1036843F480530360B0
:1021F000530203D4E3684FF0010E0DE0E368072BB0
:1022000008D3D0F800E0266D2EF4807535434FF0EA
:10221000000E04E04FF0000E056825F4807505609F
:10222000E569A66A45EA0C05E16B2E433143194383
:10223000A568266963698160616B3A43676A1143E7
:10224000A26B394311433143226A1943E36C1143B2
:102250001943A26C2943A36D1143E26D1943236E08
:1022600011431943BEF1000FC16005D1C168626D11
:1022700021F000411143C16000200121C4F88C000D
:1022800084F8891001B0F0BDB0B5B8B0044600259F
:1022900002A8C0213795CDE93555CDE93355FEF774
:1022A0003DF8206843F20001C4F20101884201D0E8
:1022B00038B0B0BD4FF4000002904FF48010039589
:1022C0002E9002A8FEF768FB002818BFFEF78EF8D4
:1022D00040F68C40C4F20260816941F48051816112
:1022E000816901F4805101910199016841F0010176
:1022F0000160006833A900F0010001900198E0201E
:102300003390022034900020359003203690052031
:1023100037900020C4F20220FEF780F838B0B0BD3C
:102320002DE9F04381B0D0F800901D4617460446D1
:102330000E46FEF787F994F8891001290CD1002E7A
:1023400018BF002F03D1012001B0BDE8F083804603
:1023500094F88800012803D1022001B0BDE8F08381
:1023600001210320002284F8881084F88900C4F831
:102370008C206666A4F86870A4F86A70E266A4F817
:102380007020A4F87220A068A267B0F5C02F206862
:10239000E26704D10168034641F4006204E00346A9
:1023A00053F80C2F61F352421A6041684FF6FF72E6
:1023B000914339444160016841F001010160C16904
:1023C000890207D46168B1F5800F03D1016841F437
:1023D00000710160E268102A15D343F2FF71C5F263
:1023E0000001884200F3A88043F60001C4F2000116
:1023F000884200F0AD8043F20001C4F2010188423E
:1024000000F0A680E6E0B4F86A10072A00F2E48043
:10241000002900F04981691C47D04FF6FE718E1EDD
:102420004F1C4169890704D50FE02068416989077D
:102430000BD4FEF707F9A0EB0800A84280F05F81FB
:10244000B4F86A000028F0D12EE1B4F86A1004292B
:1024500009D3E16B402906D9616E51F8042B026261
:102460003046616616E0B4F86A1002290AD3E16BBF
:1024700041B1606E30F8021BA9F8201060664FF67B
:10248000FE7007E0616E097880F82010606E013000
:1024900060663846B4F86A100844A4F86A00B4F8D4
:1024A0006A000028C1D1FFE020684169890706D48D
:1024B000FEF7C8F8B4F86A000028F5D1F4E0B4F8E3
:1024C0006A10042911D3E16B41290ED3616E51F8D2
:1024D000042B02626166B4F86A000438A4F86A004A
:1024E000B4F86A000028DFD1DEE0B4F86A100229EF
:1024F00011D3E16B79B1606E30F8021BA9F820109E
:102500006066B4F86A000238A4F86A00B4F86A0099
:102510000028C9D1C8E0616E097880F82010606E8B
:1025200001306066B4F86A000138A4F86A00B4F8B3
:102530006A000028B8D1B7E043F60001C5F20001F7
:10254000884205D043F20001C5F20101884241D121
:10255000B4F86A10002900F0A780691C01D120E0BE
:102560002068416989070BD4FEF76CF8A0EB0800DE
:10257000A84280F0C480B4F86A000028F0D193E04B
:10258000616E51F8042B02626166B4F86A0001388A
:10259000A4F86A00B4F86A000028E1D184E000BF22
:1025A00020684169890706D4FEF74CF8B4F86A0040
:1025B0000028F5D178E0616E51F8042B0262616663
:1025C000B4F86A000138A4F86A00B4F86A00002878
:1025D000E6D169E0B4F86A10002965D0691C35D0ED
:1025E0004FF6FE714E1C4169890704D50EE0206844
:1025F000416989070AD4FEF725F8A0EB0800A84234
:102600007DD2B4F86A000028F1D14DE0B4F86A1028
:10261000022909D3E16B39B1616E51F8042B0262D2
:102620004FF6FE70616606E0606E30F8021BA9F896
:10263000201060663046B4F86A100844A4F86A00B6
:10264000B4F86A000028D2D12EE0206841698907D9
:1026500006D4FDF7F7FFB4F86A000028F5D123E0AF
:10266000B4F86A10022910D3E16B71B1616E51F8B0
:10267000042B02626166B4F86A000238A4F86A00AA
:10268000B4F86A000028E0D10EE0606E30F8021B5A
:10269000A9F820106066B4F86A000138A4F86A004E
:1026A000B4F86A000028D0D1681C13D020684069B3
:1026B000000713D4FDF7C6FFA0EB0800A842F5D32E
:1026C000D4F88C0040F02000C4F88C0006E000BF75
:1026D000FDF7B8FF206840690007F9D5204601F0F2
:1026E0000FF8012084F88900002084F88800D4F8CD
:1026F0008C00002818BF012001B0BDE8F0832046FF
:1027000000F0FEFFD4F88C0040F48070C4F88C0018
:10271000012084F88900002084F88800032001B09B
:10272000BDE8F083042888BF7047DFE800F0031499
:10273000263738004EF21000CEF20000016821F07A
:102740000401016040F6E040C4F20260016821F437
:102750004001016070474EF21000CEF200000168A7
:10276000012221F00401016040F6E040C4F2026061
:10277000016862F39751016070474EF21000CEF28B
:1027800000000168022221F00401016040F6E040EF
:10279000C4F20260016862F39751016070474EF223
:1027A0001000CEF20000016841F0040101607047A2
:1027B000411E0020B0EB116F1CBF012070474EF28C
:1027C0001002CEF2000251609060116841F00301E6
:1027D000116070474EF21000CEF200000068400712
:1027E00044BF0420704740F6E040C4F20260006835
:1027F00000F44001A1F58000B0FA80F04009B1F585
:10280000000F08BF02207047FEE70000F0B583B05C
:1028100040F27007010AC2F200078DF80310F98830
:102820003A898DF8040002FB01F6B97800200024F3
:10283000ADF80700ADF80500002918BF2A21C4F241
:1028400002248DF80910204610210022FDF7F4FE25
:1028500040F27C05C2F200050DF109012846012273
:102860000123FFF75DFD204610210122FDF7E4FE64
:102870000DF10701284602220123FFF751FD3879A7
:102880001021002818BF2B208DF80A0020460022B6
:10289000FDF7D2FE0DF10A01284601220123FFF7C0
:1028A0003FFD204610210122FDF7C6FE0DF1050176
:1028B000284602220123FFF733FD38781021002833
:1028C00018BF2C208DF80B0020460022FDF7B4FE27
:1028D0000DF10B01284601220123FFF721FD2046BF
:1028E00010210122FDF7A8FE76B140F27C04C2F26D
:1028F00000040DF1030500BF2046294602220123F2
:10290000FFF70EFD013EF7D103B0F0BD2DE9F04118
:1029100084B04FF4A071002808BFF0214FF0F00000
:1029200040F2700608BF4FF4A0706FF05707C2F274
:10293000000608BF0827F180308101200025307093
:10294000B07030713620C4F202258DF8040028469C
:10295000102100224FF00008FDF76EFE40F27C04CB
:10296000C2F2000401A9204601220123FFF7D8FC8E
:10297000284610210122FDF75FFE0DF105012046DA
:10298000012201238DF80570FFF7CAFCB0781021F1
:10299000002818BF2A208DF8060028460022FDF7DF
:1029A0004BFE0DF10601204601220123FFF7B8FC82
:1029B000284610210122FDF73FFE0DF107012046B8
:1029C000012201238DF80780FFF7AAFC02A9204607
:1029D000012201238DF80880FFF7A2FCF0880DF199
:1029E00009010138000A8DF809002046012201235F
:1029F000FFF796FCB0790DF10A0101388DF80A0055
:102A0000204601220123FFF78BFC3079102100289A
:102A100018BF2B208DF80B0028460022FDF70CFE76
:102A20000DF10B01204601220123FFF779FC284616
:102A300010210122FDF700FE03A9204601220123F7
:102A40008DF80C80FFF76CFC0DF10D012046012282
:102A500001238DF80D80FFF763FC30890DF10E0125
:102A60000138000A8DF80E00204601220123FFF7ED
:102A700057FC307A0DF10F0101388DF80F00204618
:102A800001220123FFF74CFC04B0BDE8F0810000F7
:102A90002DE9F04F81B00024C4F2022420464FF407
:102AA000807101224FF00108FDF7C6FD0120FDF7FE
:102AB000A1FC20464FF4807100220026FDF7BCFDEA
:102AC0005020FDF797FC20464FF480710122FDF75E
:102AD000B3FD0A20FDF78EFCCF208DF803002046C1
:102AE000102100221027FDF7A7FD40F27C05C2F25D
:102AF00000050DF10301284601220123FFF710FC18
:102B0000204610210122FDF797FD0DF10301284613
:102B1000012201238DF80360FFF702FC4FF0C10B87
:102B20000DF103012846012201238DF803B0FFF7C0
:102B3000F7FB4FF0300A0DF1030128460122012373
:102B40008DF803A0FFF7ECFBED208DF80300204685
:102B500010210022FDF770FD0DF10301284601222E
:102B60000123FFF7DDFB204610210122FDF764FD64
:102B700064208DF803000DF1030128460122012392
:102B8000FFF7CEFB03208DF803000DF1030128466B
:102B900001220123FFF7C4FB12208DF803000DF181
:102BA0000301284601220123FFF7BAFB81208DF89B
:102BB00003000DF10301284601220123FFF7B0FBBA
:102BC000E8208DF80300204610210022FDF734FD97
:102BD0000DF10301284601220123FFF7A1FB204646
:102BE00010210122FDF728FD85208DF803000DF14D
:102BF0000301284601220123FFF792FB0DF1030197
:102C00002846012201238DF803704FF01009FFF7C9
:102C100087FB7A208DF803000DF10301284601227D
:102C20000123FFF77DFBCB208DF803002046102108
:102C30000022FDF701FD0DF10301284601220123C9
:102C4000FFF76EFB204610210122FDF7F5FC39202D
:102C50008DF803000DF10301284601220123FFF73F
:102C60005FFB2C208DF803000DF1030128460122A3
:102C70000123FFF755FB0DF1030128460122012333
:102C80008DF80360FFF74CFB34208DF803000DF145
:102C90000301284601220123FFF742FB02208DF8A1
:102CA00003000DF10301284601220123FFF738FB41
:102CB000F7208DF80300204610210022FDF7BCFC10
:102CC0000DF10301284601220123FFF729FB2046CD
:102CD00010210122FDF7B0FC20208DF803000DF13A
:102CE0000301284601220123FFF71AFBEA208DF891
:102CF0000300204610210022FDF79EFC0DF1030188
:102D0000284601220123FFF70BFB20461021012258
:102D1000FDF792FC0DF103012846012201238DF8F5
:102D20000360FFF7FDFA0DF103012846012201239C
:102D30008DF80360FFF7F4FAC0208DF803002046F9
:102D400010210022FDF778FC0DF103012846012235
:102D50000123FFF7E5FA204610210122FDF76CFC64
:102D60001B208DF803000DF10301284601220123E9
:102D7000FFF7D6FA2046102100228DF803B0FDF7A8
:102D80005BFC0DF10301284601220123FFF7C8FA7D
:102D9000204610210122FDF74FFC0DF103012846CA
:102DA000012201238DF803800127FFF7B9FAC5201E
:102DB0008DF80300204610210022FDF73DFC0DF1A7
:102DC0000301284601220123FFF7AAFA2046102119
:102DD0000122FDF731FC0DF10301284601220123F8
:102DE0008DF803A0FFF79CFA0DF10301284601229C
:102DF00001238DF803A0FFF793FAC7208DF8030095
:102E0000204610210022FDF717FC0DF10301284692
:102E100001220123FFF784FA204610210122FDF749
:102E20000BFCB7208DF803000DF1030128460122A9
:102E30000123FFF775FA36208DF803002046102194
:102E40000022FDF7F9FB0DF10301284601220123C1
:102E5000FFF766FA204610210122FDF7EDFB48201E
:102E60008DF803000DF10301284601220123FFF72D
:102E700057FA3A208DF80300204610210022FDF772
:102E8000DBFB0DF10301284601220123FFF748FA7D
:102E9000204610210122FDF7CFFB55208DF80300BD
:102EA0000DF10301284601220123FFF739FAB12071
:102EB0008DF80300204610210022FDF7BDFB0DF127
:102EC0000301284601220123FFF72AFA2046102198
:102ED0000122FDF7B1FB0DF1030128460122012378
:102EE0008DF80360FFF71CFA0DF10301284601225B
:102EF00001238DF80390FFF713FAB6208DF8030035
:102F0000204610210022FDF797FB0DF10301284612
:102F100001220123FFF704FA204610210122FDF7C8
:102F20008BFB4FF00A080DF1030128460122012313
:102F30008DF80380FFF7F4F9A2208DF803000DF15E
:102F40000301284601220123FFF7EAF9F2208DF858
:102F50000300204610210022FDF76EFB0DF1030156
:102F6000284601220123FFF7DBF920461021012228
:102F7000FDF762FB0DF103012846012201238DF8C4
:102F80000360FFF7CDF926208DF8030020461021BD
:102F90000022FDF751FB0DF1030128460122012318
:102FA000FFF7BEF9204610210122FDF745FB0DF188
:102FB00003012846012201238DF80370FFF7B0F9C1
:102FC000E0208DF80300204610210022FDF734FB9D
:102FD0000DF10301284601220123FFF7A1F9204644
:102FE00010210122FDF728FB4FF00F0A0DF103011C
:102FF0002846012201238DF803A0FFF791F94FF035
:103000002A0B0DF103012846012201238DF803B09C
:10301000FFF786F928208DF803000DF103012846FB
:1030200001220123FFF77CF908270DF1030128464F
:10303000012201238DF80370FFF772F90E208DF83D
:1030400003000DF10301284601220123FFF768F96F
:103050000DF103012846012201238DF80370FFF7CB
:103060005FF954208DF803000DF103012846012279
:103070000123FFF755F9A9208DF803000DF1030195
:10308000284601220123FFF74BF943208DF8030066
:103090000DF10301284601220123FFF741F90DF14B
:1030A00003012846012201238DF80380FFF738F938
:1030B0000DF103012846012201238DF803A0FFF73B
:1030C0002FF90DF103012846012201238DF8036039
:1030D000FFF726F90DF103012846012201238DF89F
:1030E0000360FFF71DF90DF10301284601220123BA
:1030F0008DF80360FFF714F90DF103012846012252
:1031000001238DF80360FFF70BF9E1208DF8030030
:10311000204610210022FDF78FFA0DF10301284609
:1031200001220123FFF7FCF8204610210122FDF7C0
:1031300083FA0DF103012846012201238DF8036073
:10314000FFF7EEF815208DF803000DF10301284676
:1031500001220123FFF7E4F817208DF803000DF199
:103160000301284601220123FFF7DAF807208DF832
:1031700003000DF10301284601220123FFF7D0F8D7
:103180004FF011090DF103012846012201238DF8AA
:103190000390FFF7C5F806208DF803000DF1030139
:1031A000284601220123FFF7BBF84FF02B080DF151
:1031B00003012846012201238DF80380FFF7B0F8B0
:1031C00056208DF803000DF103012846012201234A
:1031D000FFF7A6F83C208DF803000DF10301284607
:1031E00001220123FFF79CF805208DF803000DF163
:1031F0000301284601220123FFF792F810208DF8E1
:1032000003000DF10301284601220123FFF788F88E
:103210000DF103012846012201238DF803A0FFF7D9
:103220007FF83F270DF103012846012201238DF885
:103230000370FFF775F80DF1030128460122012301
:103240008DF80370FFF76CF80DF103012846012299
:1032500001238DF803A0FFF763F820461021002218
:103260008DF80380FDF7E8F90DF1030128460122EE
:103270000123FFF755F8204610210122FDF7DCF964
:103280000DF103012846012201238DF80360FFF7A9
:1032900047F80DF103012846012201238DF8036050
:1032A000FFF73EF801208DF803000DF103012846D9
:1032B00001220123FFF734F80DF103012846012212
:1032C00001238DF80370FFF72BF820461021002210
:1032D0008DF803B0FDF7B0F90DF103012846012286
:1032E0000123FFF71DF8204610210122FDF7A4F964
:1032F0000DF103012846012201238DF80360FFF739
:103300000FF80DF103012846012201238DF8036017
:10331000FFF706F80DF103012846012201238DF87D
:103320000360FEF7FDFFEF208DF803000DF10301B0
:10333000284601220123FEF7F3FF35208DF8030014
:10334000204610210022FDF777F90DF103012846F0
:1033500001220123FEF7E4FF204610210122FDF7A0
:103360006BF90DF103012846012201238DF803605A
:10337000FEF7D6FF2046102100228DF80390FDF7BE
:103380005BF90DF10301284601220123FEF7C8FF76
:10339000204610210122FDF74FF921208DF803006E
:1033A000204610210022FDF747F90DF103012846C0
:1033B00001220123FEF7B4FF204610210122FDF770
:1033C0003BF97820FDF716F829208DF803002046F8
:1033D00010210022FDF730F90DF1030128460122EA
:1033E0000123FEF79DFF204610210122FDF724F95D
:1033F0000020FFF78BFA0020FFF708FA01B0BDE8C4
:10340000F08F000070B586B0002540F68C40059521
:10341000C4F202600168002441F00101016000680B
:10342000C4F2022400F00100009000982046102110
:1034300000221026FDF700F901200196CDE90205D2
:103440000320049001A92046FCF7E8FF06B070BDF8
:1034500080B50020FDF7FCF8002818BFFCF7C6FF78
:10346000FDF706F9002808BF80BDBDE88040FCF7E5
:10347000BDBF000010B584B040F27C0043F20003F1
:1034800000244FF48001C2F20000C4F2010303944F
:10349000CDE9014407224FF0806CC0E900314FF0C4
:1034A0008041C0E90242C0E90444C0E906C4C0E961
:1034B0000844C0E90A42C0E90D14C463C0E91244DB
:1034C000C0E91444C0E916440466FEF703FE002870
:1034D00018BFFCF78BFF4FF080500194CDE9020438
:1034E00040F27C00C2F2000001A9FEF7CDFD0028E9
:1034F00018BFFCF77BFF04B010BD0000FEE7000022
:10350000FEE700007047000070B540F62C46C4F29C
:10351000026656F82C1C044621F0806046F82C0CFC
:10352000FDF790F8054656F82C0C00010BD500BFAE
:10353000FDF788F8401B022884BF032070BD56F8B1
:103540002C0C0001F4D4306840F60371884394E8F1
:103550000E106FF0FF0505EB0222084310433060A8
:1035600030690021C8F2800100EA010E591E4FF4B3
:103570007E42236902EB4C224FF4FE0505EB034328
:1035800065696FF35F2192B24FF0FE4000EB05607A
:10359000714403F4FE03114400F0FE401944084452
:1035A00030613068A16920F00C0008433060206A67
:1035B00031680843306030684FF6F87120F0100031
:1035C00030607069E269884340EAC2007061306827
:1035D00040F01000306056F82C0C40F0806046F847
:1035E0002C0CFDF72FF8044656F82C0C000144BFB4
:1035F000002070BDFDF726F8001B032824BF032020
:1036000070BDF1E770B540F63046C4F2026656F878
:10361000301C044621F0805046F8300CFDF712F8BB
:10362000054656F8300C80000BD500BFFDF70AF8B0
:10363000401B022884BF032070BD56F8300C800068
:10364000F4D4306840F60371884394E80E106FF0AC
:10365000FF0505EB0222084310433060706900212A
:10366000C8F2800100EA010E591E4FF47E42236920
:1036700002EB4C224FF4FE0505EB034365696FF343
:103680005F2192B24FF0FE4000EB0560714403F4FD
:10369000FE03114400F0FE40194408447061306894
:1036A000A16920F00C0008433060206A31680843AB
:1036B000306030684FF6F87120F010003060B0696B
:1036C000E269884340EAC200B061306840F010000F
:1036D000306056F8300C40F0805046F8300CFCF763
:1036E000B1FF044656F8300C800044BF002070BD86
:1036F000FCF7A8FF001B032824BF032070BDF1E7DF
:10370000016840F26F32D1F814C08B6943F00803AE
:103710008B618B6943F010038B610B6823F001030D
:103720000B600B6923EA02020A618A6822F44042B4
:103730008A6090F889305FEA8C620BD5042B09D03F
:10374000D0F88C2042F08002C0F88C208A6942F0C8
:1037500020028A6190F889305FEA4C620BD5032B16
:1037600009D0D0F88C2042F00402C0F88C208A697D
:1037700042F040028A615FEA8C5208D45FEACC5280
:1037800012D40021A0F86A10A0F872107047D0F887
:103790008C2042F00102C0F88C208A6942F4007249
:1037A0008A615FEACC52ECD5D0F88C2042F0080256
:1037B000C0F88C208A6942F480728A610021A0F8E6
:1037C0006A10A0F87210704770470000FCF75ABFEB
:1037D0004EF6885CCEF2000CDCF80010012241F4B9
:1037E0007001CCF8001040F60041C4F202610A609A
:1037F0000022CA610A624A620B684FF6FF70CEF679
:10380000F620184008608A62086820F4802008606A
:103810004FF000600A654CF8800C7047FEE700002E
:103820009EB0FCF73DFF06A86021FCF777FD002461
:103830004FF44030CDE90444CDE90244CDE90044E1
:10384000FDF704F808B172B6FEE7102001210690DA
:10385000CDE90D1002204FF400520F94CDE9140170
:10386000179203250A221695CDE91820CDE91A01F1
:103870000C20CDE91C0406A8FDF74CFE08B172B679
:10388000FEE71F20CDE900050020CDE90400CDE9C9
:10389000020068460421FDF72DFC10B172B600BF8E
:1038A000FEE7FFF7AFFDFFF7D3FDFFF7E3FDFFF7FF
:1038B000EFF847F6FF70FEF7A9FF00BFFEE7F1EE55
:1038C000100A4FF6FF71C0F2C03120EA010040F04B
:1038D0004070E1EE100A7047000000000000000098
:1038E000010203040607080900000242010000006B
:1038F0000000024203000000000002420600000037
:103900000004024201000000000402420A0000001C
:103910000008024202000000000C02420D000000FC
:10392000000C024202000000000802420A000000EF
:103930000004024200000000000802420C000000E7
:1039400000040242030000000004024204000000E0
:1039500000100242000000000010024202000000BD
:103960000010024203000000006CDC0200366E0111
:103970000024F400001BB70000093D0080841E00F5
:10398000504B140040420F0000E02E000070170062
:1039900000A00F0000B80B00801A0600400D0300C5
:1039A00088070200A0860100C83900080000002036
:1039B0001000000074020008D83900081000002030
:1039C00000610000900200080100000010000000EB
:0839D00000093D0000000000A9
:0400000508000239B4
:00000001FF
