:020000040800F2
:10000000001301204D020008656E000865580008C5
:10001000616E000805090008358900085F020008C4
:1000200000000000000000000000000091710008C6
:100030000909000800000000716E0008B571000891
:1000400069020008690200086902000869020008E4
:1000500069020008690200086902000869020008D4
:1000600069020008690200086902000869020008C4
:1000700069020008690200086902000869020008B4
:1000800069020008690200086902000869020008A4
:100090006902000869020008690200086902000894
:1000A0006902000869020008690200086902000884
:1000B00000000000690200086902000869020008E7
:1000C0006902000869020008690200086902000864
:1000D0006902000869020008690200086902000854
:1000E0006902000869020008690200086902000844
:1000F0006902000869020008690200086902000834
:1001000069020008217200082D72000869020008C7
:100110006902000869020008690200086902000813
:100120006902000869020008690200086902000803
:1001300069020008690200086902000869020008F3
:1001400069020008ED7400086902000869020008ED
:1001500069020008690200086902000869020008D3
:1001600069020008690200086902000869020008C3
:1001700069020008690200086902000869020008B3
:1001800069020008690200086902000869020008A3
:100190006902000869020008690200086902000893
:1001A0006902000869020008690200086902000883
:1001B00069020008000000006902000869020008E6
:1001C00069020008000000006902000869020008D6
:1001D0006902000869020008690200086902000853
:1001E0006902000869020008690200086902000843
:1001F0000000000000000000690200086902000819
:100200006902000869020008690200086902000822
:100210006902000869020008690200086902000812
:100220006902000869020008690200086902000802
:100230006902000869020008DFF80CD000F050FBEA
:1002400000480047953F03080013012007488047F6
:1002500007480047FEE7FEE7FEE7FEE7FEE7FEE7AA
:10026000FEE7FEE7FEE7FEE7FEE70000D5710008C7
:10027000390200082DE9F05F0546002092469B46B2
:1002800088460646814640241BE0284641464746AC
:10029000224600F0CFF953465A46C01A914110D376
:1002A00011461846224600F0B6F92D1A67EB0108F0
:1002B0004F4622460120002100F0ADF917EB00095E
:1002C0004E41201EA4F10104DFDC484631462A4697
:1002D0004346BDE8F09FD2B201E000F8012B491E71
:1002E000FBD270470022F6E710B513460A460446D3
:1002F0001946FFF7F0FF204610BD30B505462A46E7
:100300000B4612F8010B13F8014B08B1A042F8D0CC
:100310001CB1002802D06D1CF1E7284630BD421CFC
:1003200010F8011B0029FBD1801A704710B500227C
:1003300000E0521C835C8C5CA34201D1002BF8D1FD
:10034000D8B2E1B2401A10BD034611F8012B00F8F3
:10035000012B002AF9D1184670472DE9FE4F80463F
:1003600081EA0300C00F0C46009021F0004123F009
:100370000045B8EB0200A94105D24046214690460F
:100380001C460B46024623F00040104347D0270D81
:10039000C7F30A00C3F30A510290401A01904028A3
:1003A0006BDAC3F3130040F4801B0098924620B12F
:1003B0000023D2EB030A63EB0B0B01985946C0F103
:1003C0004002504600F027F906460D465046594671
:1003D000019A00F03FF910EB08006141002487EA20
:1003E000115284EAE7731A4340D0009A62B3019A2B
:1003F000012A4FEA075215DC001B61EB02014FF0A6
:10040000004202EA0752CDE90042001C41F580118A
:1004100032462B4600F076F903B0BDE8F08F404637
:100420002146F9E7001B61EB0201001C41F5801336
:1004300000185B412018A2F5001747EB030140EAC2
:10044000D570B6196D4111E06D084FEA360645EAE0
:10045000C0754FEA0752001B61EB0201001C41F519
:10046000801149084FEA30000019514132462B46AD
:1004700003B0BDE8F04F00F036B90098012240000B
:100480000023D0EB020263EBE073009821464FEAB1
:10049000E074B8EB000061EB0401E9E783F000438E
:1004A0005BE781F0004158E72DE9FE4F81EA030444
:1004B00004F0004421F0004100944FF0000B23F0C1
:1004C000004350EA01045ED052EA03045BD0C3F358
:1004D0000A54C1F30A552C44A4F2F3340194A0FB4E
:1004E0000254C1F3130141F48011C3F3130343F425
:1004F000801301FB024400FB034E840A970A44EA7E
:10050000815447EA8357A4FB076802958D0A05FBCF
:1005100007854FEA932C04FB0C542705029D4FEAF4
:10052000065847EA1637B5EB08056EEB070C870E41
:10053000920E47EA811742EA8312A7FB0201B6EB4B
:100540000B0164EB00042B0D43EA0C335E1844EB03
:100550001C50DA465146E7FB0201C5F313044FEA8B
:100560000B3343EA14534FEA0432019C43EA060377
:10057000A4F10C040294009CCDE900B400F0C2F890
:1005800003B0BDE8F08F00200146F9E700F000421B
:1005900030F000400AD0C10D01F56071C0F31600C3
:1005A00042EA0151C208400711437047002001464A
:1005B000704701F0004330B421F0004150EA0102DD
:1005C00006D00A0DA2F56072C1F31301002A02DC05
:1005D00030BC00207047440F44EAC104C100E01859
:1005E00030BC00EBC25000F047B830B50B460146B6
:1005F00000202022012409E021FA02F59D4205D3C2
:1006000003FA02F5491B04FA02F52844151EA2F16B
:100610000102F1DC30BD202A04DB203A00FA02F1AD
:10062000002070479140C2F1200320FA03F31943E0
:1006300090407047202A04DB203A21FA02F0002182
:10064000704721FA02F3D040C2F1200291400843E2
:1006500019467047202A06DBCB17203A41FA02F0F0
:1006600043EAE07306E041FA02F3D040C2F120020F
:1006700091400843194670470029A8BF7047401CA5
:10068000490008BF20F00100704710B4B0FA80FCA8
:1006900000FA0CF050EA010404BF10BC704749B1E5
:1006A000CCF1200421FA04F411FA0CF118BF012155
:1006B00021430843A3EB0C01CB1D4FEA00614FEA35
:1006C000102042BF002010BC704700EBC350104404
:1006D0000029A4BF10BC7047401C490008BF20F08F
:1006E000010010BC704710B5141E73F1000408DA45
:1006F000401C41F1000192185B411A4301D120F0E6
:10070000010010BD2DE9F04D92469B4611B1B1FAA2
:1007100081F202E0B0FA80F220329046FFF77BFFD0
:1007200004460F4640EA0A0041EA0B0153465A4686
:10073000084313D0114653EA010019D0C8F1400212
:100740005046FFF777FF05460E465046594642464B
:10075000FFF761FF084305D0012004E02046394639
:10076000BDE8F08D0020054346EAE0762C43374390
:100770000A986305E40AA0EB08000022FD0A44EA97
:1007800047540A3002D500200146E9E70105101957
:100790006941DDE9084500196941BDE8F04DA2E76E
:1007A0002DE9F04D81EA030404F0004B21F00045EF
:1007B00014464FF0000A23F0004150EA050220D011
:1007C00054EA01021DD0C5F30A570246C5F31303CC
:1007D000C1F31300C1F30A5640F4801543F48013AB
:1007E000A7EB0608101BD64608F2FD3873EB050090
:1007F00002D308F1010801E092185B41B8F1000F43
:1008000003DA00200146BDE8F08D00204FF480118E
:10081000064684460EE0171B73EB050705D3121B33
:1008200063EB050306434CEA010C49084FEA30002C
:1008300092185B4150EA0107EDD152EA030012D051
:1008400082EA040083EA0501084305D0101BAB418E
:1008500006D20122002306E000224FF0004302E00E
:100860006FF0010253101AEB06004CEB085110EB2D
:100870000A0041EB0B01BDE8F04DFFF734BFC1F3B7
:100880000A52C1F3130140F2FF3341F480119A423E
:1008900002DA00200146704740F233439A42A2F246
:1008A000334202DC5242FFF7C5BEFFF7B4BE000080
:1008B00030B5041E71F1000404DB4FF000444042E7
:1008C00064EB0101141E73F1000405DB1C464FF0BC
:1008D0000043524263EB0403994208BF904230BD8B
:1008E000064C074D06E0E06840F0010394E807007D
:1008F00098471034AC42F6D3FFF7A2FC64420408D8
:1009000084420408FEE700007047000070B5C0B0E4
:1009100040F2103640F66404C2F20006C2F200044F
:10092000711C2046012204F013FE6D4642F2310193
:100930004BA2C0F6040128463CF09AFB2846FFF77C
:10094000EEFC82B2204629464FF0FF3304F0AEFEA3
:1009500000F0F6FA044640F6B83500BF307828B902
:1009600000F0EEFA001BA842F8D90AE0002030702F
:1009700070804EF2AC00C2F200004FF40071FFF73D
:10098000B1FC4FF47A7000F0ABF96C4642F23101E1
:1009900035A2C0F6040120463CF06AFB2046FFF772
:1009A000BEFC82B240F66400C2F2000021464FF065
:1009B000FF3304F07BFE00F0C3FA044640F6B8357E
:1009C000307828B900F0BCFA001BA842F8D90AE038
:1009D0000020307070804EF2AC00C2F200004FF484
:1009E0000071FFF77FFC4FF47A7000F079F96C46E4
:1009F00042F231011FA2C0F6040120463CF038FB50
:100A00002046FFF78CFC82B240F66400C2F2000080
:100A100021464FF0FF3304F049FE00F091FA0446FE
:100A200040F6B835307850B900F08AFA001BA84279
:100A3000F8D94FF4FA7000F053F940B070BD0020BF
:100A4000307070804EF2AC00C2F200004FF40071C2
:100A5000FFF748FC4FF4FA7000F042F940B070BD67
:100A600041542B525354000041542B43574D4F4493
:100A7000453D310041542B43574A41503D22726558
:100A800064222C22313233343536373822000000CC
:100A900072B600BFFEE7000010B50024C4F20224C5
:100AA00020464FF40061002200F044FA0A2000F0D2
:100AB00017F920464FF40061012200F03BFA642050
:100AC000BDE8104000F00CB970B582B040F254643B
:100AD0000320C2F200048DF8050064250DF1050223
:100AE000204670210123009500F0B6FB012000F0A4
:100AF000F7F801AA204671210123009500F0CCFAF5
:100B000004209DF804608DF807000DF107022046CF
:100B100070210123009500F09FFB012000F0E0F818
:100B20000DF10602204671210123009500F0B4FA70
:100B30009DF8060006F00F0140EA012002B070BDEA
:100B400070B582B040F254640520C2F200048DF802
:100B5000050064250DF10502204670210123009552
:100B600000F07AFB012000F0BBF801AA20467121B9
:100B70000123009500F090FA06209DF804608DF89E
:100B800007000DF10702204670210123009500F0B7
:100B900063FB012000F0A4F80DF10602204671214C
:100BA0000123009500F078FA9DF8060006F00F0189
:100BB00040EA012002B070BDB0B582B040F254648A
:100BC0000220C2F200048DF8070064250DF107022F
:100BD000204670210123009500F03EFB012000F02B
:100BE0007FF80DF10602204671210123009500F0E7
:100BF00053FA9DF8060000F00F0002B0B0BD0000EF
:100C0000B0B5044600F09CF9002C04BF0120B0BD33
:100C1000054694F85400022828D12168486940F01C
:100C200004004861052084F854000869800405D553
:100C300023E000BF2168086980041ED400F080F919
:100C4000401B0528F6D9A06D40F01000A0650320D8
:100C500084F8540094F8500000064FF0010044BF9F
:100C6000616F0873002184F84C10B0BD2020A0658E
:100C70000120002184F84C10B0BD4869012240F0E9
:100C800002004861042084F854004FF4FE40C8601C
:100C900084F8542094F8500000064FF0000002D56C
:100CA000636F1A738864002184F84C10B0BD000093
:100CB000002804BF0120704790F8541002290AD17F
:100CC000042180F85410006842F204024169114383
:100CD000416100207047202181650120704700009C
:100CE000B0B5044600F02CF9054640F20400C2F20B
:100CF00000000078611C18BF044400BF00F020F918
:100D0000401BA042FAD3B0BD2DE9F04F81B00D6871
:100D1000002D00F00381804647F67F70C0F22F005F
:100D200000EA98200027009000234FF0010E4FF0BA
:100D3000030BC4F2026740460EFA03F415EA040AF4
:100D400000F0E680B8452BD0D1F804C04CF0100478
:100D5000122C40F084806FF0030202EA53071C2239
:100D600002EA830647440F223D6A02FA06F40A6942
:100D7000A54302F00F02B2402A433A6202685C00C7
:100D8000D1F804C00BFA04F5AA430CF0030505FAE8
:100D900004F4224399460260BCF1120F34D96DE08D
:100DA00038684DF6C8124D68C0F60302A04302EB46
:100DB000C30405F001059D40D4F80490054352F8A2
:100DC00033006FF0030202EA59041C223D6005194A
:100DD00002EA89042F6A0F2202FA04F60B22B743B3
:100DE00002FA04F637432F6207684FEA49060BFA06
:100DF00006F50222AF4302FA06F637430760D1F840
:100E000004C0BCF1120F39D80EFA0CF212F0061F12
:100E100021D04FEA49050324826804FA05FBCC6817
:100E200022EA0B02AC40224382604268CCF30016F7
:100E30000EFA09F4A24306FA09F42243BCF1030FA7
:100E4000426003D14FF0030B5FE000BF6FEA0B0479
:100E50004FF0030B17E0BCF1030F56D00EE0026811
:100E60005C000BFA04F5AA430CF0030505FA04F440
:100E7000224399460260BCF1120FC5D94FEA4905D9
:100E80000BFA05F2D443C2688E68224006FA05F4D4
:100E900022435FEACC07C26037D542F2000423F058
:100EA0000302C4F202641827224407EAC307166E3D
:100EB0000F25BD40AE43009D05FA07F7374317667F
:100EC00022684F6842EA0A06FD0258BF22EA0A0673
:100ED00026606268BD0242EA0A0658BF22EA0A0694
:100EE0006660D4F88420BD0342EA0A0658BF22EAAD
:100EF0000A06C4F88460D4F88020FF0342EA0A0698
:100F000058BF22EA0A06C4F880600027C4F20267CC
:100F10000D68013335FA03F27FF40EAF01B0BDE87E
:100F2000F08F0000426902EA0103914341EA034164
:100F3000816170471823002A08BF2823C1507047D9
:100F40004EF2FC20C2F200000068704790F8412089
:100F5000202A03D190F84020012A02D1022108461C
:100F60007047242280F841200268136823F00103AF
:100F70001360136823F480531360136819431160DE
:100F8000116841F001011160202180F84110002119
:100F900080F840100846704790F84120202A03D17D
:100FA00090F84020012A02D10221084670472422ED
:100FB00080F841200268136823F00103136013686E
:100FC00023F4706343EA01211160116841F00101CB
:100FD0001160202180F84110002180F8401008465F
:100FE00070470000002804BF0120704710B5044678
:100FF00090F8410028B9002084F84000204600F015
:1010000007FA242084F8410094E80910E268016896
:10101000012A21F00101016023F070610161816802
:1010200021F40041816006D14CF400418160014609
:1010300051F8043F0AE04CF404418160014651F844
:10104000043F022A02D143F4006201E023F400626B
:101050000A60416804F1100341F0007141F400415D
:101060004160C16821F40041C1600ECB114341EAE7
:101070000321E269C160216A11430160016841F006
:101080000101016000202021606484F84110206388
:1010900084F8420010BD00002DE9F04782B00446FC
:1010A00090F84100202803D194F84000012803D192
:1010B000022002B0BDE8F08701201F461546884691
:1010C00084F84000FFF73CFF216806468A69120455
:1010D00015D500BF20461921324604F0C5FB002873
:1010E00040F09180FFF72CFF801B21681A2803D362
:1010F0008869000400F19F8088690004EAD42220F6
:1011000084F84100102084F8420000206064656289
:1011100067856063608D40F2000AB0F5807F49F614
:101120000000CFF60040C0F2FF1A0AD351F8043F86
:1011300042466FF39F22034013430AF51057FF22E4
:101140000DE0628D43466FF39F23D7B251F8045FE1
:1011500043EA074305EA00073B430AF592373B435E
:101160000B602285618D0A9F002946D06FF39F286E
:101170004FF0FF0900F5806520463946324604F0FD
:10118000AFFC00283FD12068616A406A0870606A3D
:10119000218D0130013960622185608D0904A0F143
:1011A00001006085608D25D120B32046802100227A
:1011B0003B46009604F018FC28BB608DB0F5807F9C
:1011C0000AD32068A4F8289050F8041F52462940FA
:1011D00041EA08010CE000BF618D21852068C9B299
:1011E00050F8042F48EA01412A4011434FF00072A1
:1011F00011430160608D0028BED120463946324639
:1012000004F0D6FC18B1012002B0BDE8F0872068D8
:101210002021C16142684EF60003CFF600631A40F8
:101220004260002084F8411084F8420084F84000B5
:1012300002B0BDE8F087606C40F0200060642020C0
:1012400084F84100002084F8420084F84000012026
:1012500002B0BDE8F08700002DE9F04782B00446F7
:1012600090F84100202803D194F84000012803D1D0
:10127000022002B0BDE8F08701201F4615468846CF
:1012800084F84000FFF75CFE216806468A69120474
:1012900015D500BF20461921324604F0E5FA002892
:1012A00040F08D80FFF74CFE801B21681A2803D385
:1012B0008869000400F19B8088690004EAD4212039
:1012C00084F84100102084F84200002060646562C8
:1012D00067856063608D40F2000AB0F5807F49F653
:1012E0000000CFF60040C0F2FF1A0AD351F8043FC5
:1012F00042466FF39F22034013430AF50057FF2233
:101300000DE0628D43466FF39F23D7B251F8045F1F
:1013100043EA074305EA00073B430AF590373B439E
:101320000B602285618D0A9F002942D06FF39F28B0
:101330004FF0FF0900F5806520463946324604F03B
:1013400077FCE0BB606A226810F8011B9162606262
:10135000608D01386085208D411E2185608D0904D6
:1013600024D118B32046802100223B46009604F089
:101370003BFB20BB608DB0F5807F09D32068A4F8CB
:10138000289050F8041F5246294041EA08010BE01A
:10139000618D21852068C9B250F8042F48EA0141C7
:1013A0002A4011434FF0007211430160608D002804
:1013B000C2D120463946324604F0FAFB18B101206A
:1013C00002B0BDE8F08720682021C16142684EF676
:1013D0000003CFF600631A404260002084F84110F9
:1013E00084F8420084F8400002B0BDE8F087606CE9
:1013F00040F020006064202084F84100002084F840
:10140000420084F84000012002B0BDE8F0870000EF
:10141000B0B5B8B00446002502A8C0213795CDE983
:101420003555CDE93355FEF75DFF206845F20041A3
:10143000C4F20001884201D038B0B0BD4020029013
:1014400002A803951C9501F097F9002818BFFFF733
:101450001FFB40F68C44C4F20264206833A940F0BC
:1014600002002060206800F0020001900198C02076
:101470003390122034900020CDE9350004203790BD
:1014800040F20040C4F20220FFF73EFC206940F425
:1014900000102061206900F400100190019838B01C
:1014A000B0BD000040F20041C4F203010A68D20757
:1014B0001CBF012070470A6822F004021043086034
:1014C0000020704740F20041C4F20301086840F078
:1014D000010200200A60704740F204004EF2FC2135
:1014E000C2F20000C2F2000100780A6810440860ED
:1014F0007047000080B542F20000C4F202000168AB
:1015000041F480710160032000F0C6F801F008FF8B
:1015100040F62041C4F2026109684DF6B01201F0B4
:101520000F01C0F60302515CC84040F26001C2F2F4
:1015300000010860042003F081F80F2000F008F893
:1015400000281CBF012080BD00F054F8002080BDA1
:10155000B0B588B040F69C41C4F202610A68044606
:1015600042F020020A60096802A801F020010291FD
:10157000029901A901F038FE01F072FE4DF6836177
:10158000C4F21B31A0FB01014FF0FF3000EB914191
:1015900040F2847041F2004340F2E732C2F20000B0
:1015A000C4F200030025C0E90031C0E90252056120
:1015B00003F054F90546B0B940F28470C2F200005D
:1015C00003F0A0F9054670B90F2C0BD83220214644
:1015D0000022002500F034F840F20800C2F20000BA
:1015E000046000E00125322000F01AF8284608B017
:1015F000B0BD000081B040F69440C4F202600168C2
:10160000002241F00401016000680F2100F0040095
:10161000009000986FF0010001B000F011B80000D8
:101620000028B8BF704700F01F01012202FA01F143
:101630004EF200124009CEF2000242F8201070472C
:1016400010B54EF60C5CCEF2000CDCF80030C3F3A3
:10165000022E8EF00704042C28BF0424BEF10303DD
:101660004FF0FF3E38BF00230EFA04F4A143994027
:101670000EFA03F39A4300F00F03043B1143634453
:1016800009010C3300F16042B0F1FF3FC8BF02F521
:101690006443197010BD00004EF60C51CEF20001EB
:1016A0000A684FF6FF031A4060F30A2242F0806096
:1016B00040F0FD700860704710B540F60C0CC4F2A5
:1016C000026CDCF8301001F4403181420CD1B0F1F1
:1016D000011F3CBF002010BDDCF8000040F480205A
:1016E000CCF80000002010BDDCF80010B0F5803F01
:1016F00021F4E02141EA000140F2600088BF41F49A
:101700008021CCF80010C2F20000006841F259714B
:10171000CDF2B711A0FB01020120910B00EB923E2C
:101720000A4600BFDCF80000B2F1FF3318BF012306
:10173000541C22D010F400401FD1DCF80000002A15
:10174000134618BF012318D010F4004015D1DCF85F
:101750000000531E18BF0123012A0ED010F40040D0
:101760000BD1DCF80000931E18BF0123022A04D01D
:1017700010F40040A2F10402D4D0002B04BF0320D7
:1017800010BD00BFDCF830004A1C26D010F4004029
:1017900029D1DCF830000029AEF1010218D010F494
:1017A000004015D1DCF830000129AEF102020FD063
:1017B00010F400400CD1DCF830000229A1F1040241
:1017C00005D010F40040AEF1040E1146DAD002321A
:1017D0000020002A08BF032010BD72460020002A06
:1017E00008BF032010BD72460020002A08BF032056
:1017F00010BD000040F63C00C4F20260006800F436
:1018000040307047B0B540F6284EC4F2026EDEF8A4
:101810000C50DEF80030DEF8001003F00303C1F3D3
:101820000321DEF800206FF35F25C2F30012DEF81B
:101830001040012BC4F3CC0401F1010C04FB02F2B3
:1018400000EE102AB8EE400A65D0032B18BF022B19
:1018500061D101EE10CA9FED4F2AB8EE411ADEF8B1
:101860000C1082EE011A6FF35F2102EE101A9FED49
:101870004A3AB8EE422A20EE030A30EE020AB7EEE8
:10188000002A30EE022ADEF8001021EE020AC90317
:1018900070D5DEF80C10B7EE002AC1F3462101EE38
:1018A000101AB8EE411A31EE021A80EE011ABCEE9F
:1018B000C11A11EE102A0260DEF8001089035FD50C
:1018C000DEF80C10B7EE002AC1F3064101EE101A43
:1018D000B8EE411A31EE021A80EE011ABCEEC11ABE
:1018E00011EE102A4260DEF8001049034ED5DEF8F2
:1018F0000C10B7EE002AC1F3066101EE101AB8EE23
:10190000411A31EE021A80EE010ABCEEC00A10EE56
:10191000101A8160B0BD5EF8201C090203D4DEF805
:10192000CC100B0401E05EF8203C4DF64822190F64
:10193000C0F6030202EB810102EE10CA91ED001A1B
:101940009FED153AB8EE411AB8EE422A20EE030A8E
:1019500081EE022A01EE105AB8EE411A30EE010A69
:10196000B7EE001A30EE011ADEF8001021EE020A7E
:10197000C9038ED400220260DEF8001089039FD4D0
:1019800000224260DEF800104903B0D400218160DB
:10199000B0BD00BF0024744B00000039B0B540F664
:1019A0002C4EC4F2026EDEF81050DEF80030DEF885
:1019B000001003F00303C1F30321DEF800206FF3EE
:1019C0005F25C2F30012DEF81440012BC4F3CC04EF
:1019D00001F1010C04FB02F200EE102AB8EE400AFD
:1019E00065D0032B18BF022B61D101EE10CA9FED09
:1019F0004F2AB8EE411ADEF8101082EE011A6FF38A
:101A00005F2102EE101A9FED4A3AB8EE422A20EE0C
:101A1000030A30EE020AB7EE002A30EE022ADEF8A0
:101A2000001021EE020AC90370D5DEF81010B7EEDF
:101A3000002AC1F3462101EE101AB8EE411A31EE28
:101A4000021A80EE011ABCEEC11A11EE102A0260D1
:101A5000DEF8001089035FD5DEF81010B7EE002A1B
:101A6000C1F3064101EE101AB8EE411A31EE021A26
:101A700080EE011ABCEEC11A11EE102A4260DEF8A7
:101A8000001049034ED5DEF81010B7EE002AC1F35E
:101A9000066101EE101AB8EE411A31EE021A80EE1C
:101AA000010ABCEEC00A10EE101A8160B0BD5EF8EB
:101AB000241C090203D4DEF8C8100B0401E05EF810
:101AC000243C4DF64822190FC0F6030202EB8101B7
:101AD00002EE10CA91ED001A9FED153AB8EE411AC8
:101AE000B8EE422A20EE030A81EE022A01EE105AD5
:101AF000B8EE411A30EE010AB7EE001A30EE011AC4
:101B0000DEF8001021EE020AC9038ED40022026022
:101B1000DEF8001089039FD400224260DEF8001036
:101B20004903B0D400218160B0BD00BF0024744BD4
:101B300000000039B0B540F6304EC4F2026EDEF857
:101B40001450DEF80030DEF8001003F00303C1F398
:101B50000321DEF800206FF35F25C2F30012DEF8E8
:101B60001840012BC4F3CC0401F1010C04FB02F278
:101B700000EE102AB8EE400A65D0032B18BF022BE6
:101B800061D101EE10CA9FED4F2AB8EE411ADEF87E
:101B9000141082EE011A6FF35F2102EE101A9FED0E
:101BA0004A3AB8EE422A20EE030A30EE020AB7EEB5
:101BB000002A30EE022ADEF8001021EE020AC903E4
:101BC00070D5DEF81410B7EE002AC1F3462101EEFD
:101BD000101AB8EE411A31EE021A80EE011ABCEE6C
:101BE000C11A11EE102A0260DEF8001089035FD5D9
:101BF000DEF81410B7EE002AC1F3064101EE101A08
:101C0000B8EE411A31EE021A80EE011ABCEEC11A8A
:101C100011EE102A4260DEF8001049034ED5DEF8BE
:101C20001410B7EE002AC1F3066101EE101AB8EEE7
:101C3000411A31EE021A80EE010ABCEEC00A10EE23
:101C4000101A8160B0BD5EF8281C090203D4DEF8CA
:101C5000C4100B0401E05EF8283C4DF64822190F31
:101C6000C0F6030202EB810102EE10CA91ED001AE8
:101C70009FED153AB8EE411AB8EE422A20EE030A5B
:101C800081EE022A01EE105AB8EE411A30EE010A36
:101C9000B7EE001A30EE011ADEF8001021EE020A4B
:101CA000C9038ED400220260DEF8001089039FD49D
:101CB00000224260DEF800104903B0D400218160A8
:101CC000B0BD00BF0024744B0000003980B584B063
:101CD000024647F6FF7300209B1A70EB0103C0F227
:101CE0007380D2F17F0370EB0103C0F2A880013A48
:101CF00061F10001D2F13F034FF0000373EB0101EA
:101D0000C0F0FE84DFE812F040006702FC04F80136
:101D1000FC04FC04FC041802FC04FC04FC04FC04A9
:101D2000FC04FC04FC048702FC04FC04FC04FC042A
:101D3000FC04FC04FC04FC04FC04FC04FC04FC04A3
:101D4000FC04FC04FC043802FC04FC04FC04FC0459
:101D5000FC04FC04FC04FC04FC04FC04FC04FC0483
:101D6000FC04FC04FC04FC04FC04FC04FC04FC0473
:101D7000FC04FC04FC04FC04FC04FC04FC04FC0463
:101D8000FC04FC04FC04AA0240F60040C4F2026019
:101D9000D0F8E01001F00301012900F08D83002943
:101DA00000F0E8830268022903D112F4806240F057
:101DB0003D84D0F8F000032900F002024FF000004B
:101DC00008BF900304B080BD4FF6FF73C0F23F031D
:101DD0009B1A70EB010369DB4FF6FF73C0F203033C
:101DE0009B1A4FF0000C7CEB010380F28C804FF6C5
:101DF000FF73C0F20F039B1A7CEB0103C0F20C814E
:101E000082F480230B4300F0538282F400221143BA
:101E100040F0768440F60040C4F20260D0F8E4104E
:101E2000026811F4405140F0A98312F4005200F00E
:101E3000A58346F60040C0F2DC2004B080BD40F22D
:101E4000FF339B1A4FF0000C7CEB010380F2828081
:101E500041F6FF739B1A7CEB0103C0F2098182F407
:101E600080630B4300F03A8282F40062114340F039
:101E7000478440F60040C4F20260D0F8E81011F444
:101E8000407100F0A083D0F8F020B1F5807F03D13D
:101E900012F0006240F087830268B1F5007F40F0E5
:101EA000D18112F4806240F0C183CBE16FF07E43B8
:101EB0009B1A4FF0000C7CEB010380F281806FF0E5
:101EC00078439B1A7CEB0103C0F2F08082F0007330
:101ED0000B4300F02A8282F08062114340F01084AC
:101EE00040F60040C4F20260D0F8E410C1F30151A2
:101EF000002900F0E182012900F0A88301A802294D
:101F000000F02D8380E382F400430B4300F02A822B
:101F100082F480330B4300F0478282F40032114395
:101F200040F0EE8340F60041C4F20261D1F8E800CF
:101F3000C0F30242042A00F2C6834BF68030DFE889
:101F400012F00500F3026803DF03B50301F072F934
:101F500004B080BD82F080030B4300F03D8282F428
:101F600080730B4300F0608282F40072114340F0F2
:101F7000C78340F60040C4F20260D0F8E81011F4C4
:101F8000406100F02B83D0F8F020B1F5806F03D1D1
:101F900012F0006240F007830268B1F5006F03D1D0
:101FA00012F4806240F04283D0F8F000B1F5406F47
:101FB00000F002024FF0000008BF900304B080BDA3
:101FC00082F480030B4300F04B8282F400030B4346
:101FD00000F0588282F08072114340F0918340F605
:101FE0000040C4F20260D0F8E010C1F301410129C1
:101FF00000F06282022900F0B782032940F03E829D
:102000000168890640F15F838168090200F18583D8
:10201000D0F8F4000004A5E382F480130B4300F031
:102020004F8282F40012114340F06A8340F6004070
:10203000C4F20260D0F8E410490400F17582D0F8CF
:10204000E010C1F38161002900F0D382012900F082
:10205000DA82032940F082820168890640F13383E5
:102060008168090200F17983D0F8F400000479E373
:1020700082F400530B4300F03F8282F4804211430C
:1020800040F03E8340F60041C4F20261D1F8E40022
:10209000C0F30222042A00F216834BF68030DFE8F8
:1020A00012F08C023D0243022F03CB0282F0006348
:1020B0000B4300F03F8282F08052114340F02083B6
:1020C00040F60041C4F20261D1F8E800D1F8F020F6
:1020D00010F4004003D112F0020240F0FB80D1F86E
:1020E000F02000284FF0000018BF12F0006200F04E
:1020F0000783D1F8F00058E240F60040C4F20260D5
:10210000D0F8E01001F03001102900F0D58100294D
:1021100000F0B4810268202903D112F4806240F0FB
:102120008582D0F8F000302900F002024FF0000064
:1021300008BF900304B080BD40F60040C4F20260C6
:10214000D0F8E01001F0C001402900F0B58100296D
:1021500000F094810268802903D112F4806240F07B
:102160006582D0F8F000C02900F002024FF00000B4
:1021700008BF900304B080BD40F60041C4F2026184
:10218000D1F8E80000F00700012800F09581002850
:1021900000F0EC810A68022803D112F4806240F05A
:1021A0004582D1F8F020032803D112F0020240F05A
:1021B00091800A6804284FF0000040F0A18212F0DC
:1021C000200200F09D828868000200F1CA82D1F8E6
:1021D000F4000004C6E240F60040C4F20260D0F809
:1021E000E01001F00C01042900F06681002900F0E4
:1021F00045810268082903D112F4806240F01682FA
:10220000D0F8F0000C2900F002024FF0000008BFE7
:10221000900304B080BD40F60040C4F20260D0F8E4
:10222000E01001F44071B1F5807F00F04581002994
:1022300000F024810268B1F5007F03D112F48062BE
:1022400040F0F481D0F8F000B1F5407F00F00202D8
:102250004FF0000008BF900304B080BD40F600417D
:10226000C4F20261D1F8E00000F44060B0F5806F84
:1022700000F02281002800F001810A68B0F5006FAB
:1022800003D112F4806240F0D1810A68B0F5406F4A
:102290004FF0000040F0348212F0200200F0308253
:1022A0008868000200F14F82D1F8F400000459E27E
:1022B00040F60040C4F20260D0F8F010D0F8F020F0
:1022C00001F44071B1F5807F40F0658112F00202A7
:1022D00000F061814FF4004004B080BD40F6004042
:1022E000C4F20260D0F8E01011F4402100F0C68082
:1022F000D0F8F020B1F5802F03D112F0006240F049
:1023000052810268B1F5002F03D112F4806240F0CF
:102310008D81D0F8F000B1F5402F00F002024FF0AF
:10232000000008BF900304B080BD40F60040C4F236
:102330000260D0F8E810C1F3C101012900F0BC80AF
:10234000022900F01181032940F0108101688906FB
:1023500040F1B9818168090200F1E181D0F8F4000F
:102360000004FFE140F60041C4F20261D1F8E80048
:1023700010F4E04200F07481B2F5005F00F0748167
:10238000B2F5805F00F098800B68B2F5A04F40F086
:10239000AD81980640F197818868000200F1DF81E5
:1023A000D1F8F4000004DDE140F60041C4F202611E
:1023B000D1F8E40000F00702042A00F284814BF611
:1023C0008030DFE812F00500B10026019D017D019B
:1023D00000F030FF04B080BD40F60041C4F202615D
:1023E000D1F8E00000F44050B0F5805F64D00028E0
:1023F00044D00A68B0F5005F03D112F4806240F067
:1024000015810A68B0F5405F4FF0000040F0788118
:1024100012F0200200F074818868000200F19581BA
:10242000D1F8F40000049DE140F60040C4F20260DF
:10243000D0F8E810C1F3811101293DD0022900F044
:102440009380032940F092800168890640F13B8126
:102450008168090200F16581D0F8F400000481E18F
:1024600040F60041C4F20261D1F8E00000F44040BF
:10247000B0F5804F20D0002840F0D18000F0F0FE71
:1024800004B080BD40F60040C4F20260D0F8E01015
:10249000C1F3015101290FD0022965D0032969D167
:1024A0000168890640F10F818168090200F13B81D2
:1024B000D0F8F400000455E100F032FF04B080BD14
:1024C00040F60040C4F20260D0F8E010C1F3816130
:1024D000002900F08E80012900F0958003293DD16C
:1024E0000168890640F1EF80816809025ABFD0F87F
:1024F000F4000004806835E140F60041C4F2026156
:10250000D1F8E400C0F34212042A00F2DC804BF65A
:102510008030DFE802F0520309F5910001A8FFF7CF
:1025200009FB019804B080BD01A8FFF76BF9019881
:1025300004B080BD40F60041C4F20261D1F8E00071
:10254000096810F0407002D111F400316ED1B0F181
:10255000007F32D0B0F1807F40F0B58001A8FFF756
:1025600051F9029804B080BD006866E000F0B8FE42
:1025700004B080BD00F094FE04B080BD0268B1F5E7
:10258000805F77D112F4005274D043F20060C0F241
:102590006E1004B080BDD0F8F020B1F5007F77D187
:1025A00012F0006274D0D0F8F000C0004FF0FA00D2
:1025B00058BF4FF4FA4004B080BD01A8FFF7EEF910
:1025C000019804B080BD016889067CD58168090244
:1025D00000F19880D0F8F4000004C3E00168890697
:1025E00071D58168090200F18F80D0F8F4000004F1
:1025F000B8E0006846F600418004C0F2DC2101EA40
:10260000E07004B080BD01A8FFF7C8F9029804B0DB
:1026100080BD01A8FFF78EFA029804B080BD0A6859
:10262000B0F5004F52D112F480624FD042F2004018
:10263000C0F2F40004B080BD086842F200414005D9
:10264000C0F2F40101EAE07004B080BD01688906BF
:1026500039D58168090268D4D0F8F400000481E01B
:1026600000F0E8FD04B080BD01A8FFF797F90398DA
:1026700004B080BD006810F480601CBF42F20040CE
:10268000C0F2F400B1F5005F18BF002004B080BDB7
:10269000006810F400301CBF4AF22010C0F207009E
:1026A000B1F5407F18BF002004B080BD08688006E7
:1026B00009D5886800024AD4D1F8F400000451E03A
:1026C0000868800622D4002004B080BD0A68B0F5F6
:1026D000404F4FF0000013D112F0200210D0886854
:1026E000000236D4D1F8F40000043BE042F200408E
:1026F000B2F5405FC0F2F40019D113F4003316D0E4
:1027000004B080BD80682DE080682BE088680002FE
:1027100021D4D1F8F400000424E0806822E080682D
:1027200020E080681EE080681CE080681AE009688C
:1027300011F4806118BF0146B2F5804F18BF002127
:10274000084604B080BD88680CE088680AE08868A4
:1027500008E0886806E0886804E0806802E088682D
:1027600000E08868C0F303604DF64821C0F603011D
:1027700051F8200004B080BD2DE9F04F81B004462F
:10278000006840F6E04BC107C4F2026B46D18107F6
:102790004ED4410756D401075ED4C10666D48106E3
:1027A0006ED4410600F17780010600F17F80C105FB
:1027B00000F18780410200F18F80810500F1978050
:1027C000410500F19F80010500F1A78040F62848EF
:1027D0008004C4F2026840F1B080D4F890004FEA5F
:1027E0007011042900F20381DFE811F005000701F0
:1027F00012011801180104F1080004F063FB0646F9
:10280000002800F002816078400600F19B80374686
:1028100035466078000600F1AA804AE3DBF8001034
:10282000226D21F003011143CBF800108107B0D5D0
:10283000DBF80010626D21F00C011143CBF80010A1
:102840004107A8D5DBF80010A26D21F0300111433B
:10285000CBF800100107A0D5DBF80010E26D21F0E5
:10286000C0011143CBF80010C10698D5DBF8001069
:10287000226E21F440711143CBF80010810690D5EF
:10288000DBF80810626E21F007011143CBF8081045
:1028900041067FF589AFDBF80010A26E21F440619C
:1028A0001143CBF8001001067FF581AFDBF8001073
:1028B000E26E21F440511143CBF80010C1057FF5C1
:1028C00079AFDBF80810226F21F0C0011143CBF87B
:1028D000081041027FF571AFDBF80010626F21F440
:1028E00040411143CBF8001081057FF569AFDBF85B
:1028F0000810A26F21F440611143CBF80810410584
:102900007FF561AFDBF80010E26F21F44021114345
:10291000CBF8001001057FF559AFDBF80810D4F8AB
:10292000802021F440711143CBF8081040F628486C
:102930008004C4F202683FF550AF0026607840067C
:102940007FF565AFD4F894004FEA3020042800F2F8
:1029500072803746DFE800F076808A030300002F9C
:102960003D4600F08E806078000640F1A282D4F8E7
:10297000A4004FEA3030052800F28182022800F0DE
:102980008582002F3E4600F08A82A078C00700F0C2
:102990009582D4F88800042800F28380DFE800F0F4
:1029A000038893030300002F3D4600F09580A07834
:1029B000800740F18882D4F88C004FEA3040042828
:1029C00000F29A80DFE810F0050002010D01050019
:1029D0000500002FB94600F00D81A078400700F1F6
:1029E00092804D46A078C00600F12C81E8E10126D6
:1029F000607840067FF50BAFA4E704F12C0004F0EB
:102A0000DFFA064600287FF4FEAED4F8900005E019
:102A1000D8F8001041F48031C8F80010DBF8041039
:102A200021F0E0010843CBF804000026607840065E
:102A30007FF5EDAE86E701270125607800063FF5BA
:102A400096AF36E204F1080004F03CFA0746002F86
:102A50003D467FF488AF14E004F12C0004F0B0FA96
:102A60000746002F3D467FF47EAF0AE0D8F800000D
:102A7000374640F48030C8F80000002F3D467FF410
:102A800072AFDBF80400D4F8941020F4E06008433F
:102A90000027CBF804003546607800063FF567AFA5
:102AA00007E201270125A07880073FF584AF0AE2FD
:102AB000D8F8000040F48030C8F80000002F3D46F0
:102AC0007FF475AF08E004F12C0004F079FA0746B2
:102AD000002F3D467FF46BAFDBF80400D4F888107C
:102AE00020F0070008430027CBF804003546A07803
:102AF00080073FF560AFE6E101274FF00109A078BC
:102B000040077FF56EAF5BF84C0C40070ED45BF8C6
:102B10004C0C4FF0010A40F004004BF84C0C5BF8F1
:102B20004C0C00F004000090009801E04FF0000A07
:102B30004FF60045CFF6FF7558F8050040F001004C
:102B400048F80500FEF7FCF9064600BF58F80500F6
:102B5000C0070AD1FEF7F4F9801B0228F6D9032733
:102B60000325BAF1000F63D168E0002F3D465CD128
:102B7000DBF8100010F440704CD0D4F8BC10884240
:102B800011D0DBF81000DBF8101020F4407041F495
:102B90008031CBF81010DBF8101021F48031CBF825
:102BA0001010CBF81000C00734D0FEF7C9F9064664
:102BB00003270325DBF8100080072BD4FEF7C0F9AC
:102BC000801B41F288318842F4D92EE0D8F8000009
:102BD00040F48030C8F80000002FB9467FF4FDAE05
:102BE00008E004F12C0004F0EBF90746002FB94689
:102BF0007FF4F3AEDBF80800D4F88C1020F4E0206A
:102C000008430027CBF80800A946A07840077FF5C5
:102C1000E8AE78E7DBF81000D4F8BC1020F4407080
:102C2000084300274D46CBF81000BAF1000F05D03D
:102C30005BF84C0C20F004004BF84C0CA078C0065C
:102C400040F1BE80D4F89C004FEAB060032800F247
:102C50009280DFE800F00297A102002F394600F0D1
:102C6000A5802068020340F1B080D4F8982032B1EA
:102C7000B2F5005F18BFB2F5805F40F0FA80002F18
:102C80003E4652D0810200F1A480010200F1B680DC
:102C9000C10100F1BF80810100F1C880400140F115
:102CA000D180D4F8AC00B0F5401F27D0B0F5001F9C
:102CB00005D1D8F8000040F40030C8F80000002F1B
:102CC0003D4623D0E078000740F1C180D4F884006D
:102CD00058B1B0F1007F34D0B0F1807F46D1D8F840
:102CE000000040F40030C8F800008FB3E078C00660
:102CF00000F1B280384601B0BDE8F08F04F1080061
:102D000004F0E0F80746002F3D46DBD1DBF8040075
:102D1000D4F8AC1020F4401008430027CBF804008E
:102D20003546E0780007D1D491E0DBF80430002785
:102D300023F440531A43CBF804200E468102A4D555
:102D400047E004F1080004F0BDF80746002FCDD19C
:102D5000DBF80000D4F8841020F040700843CBF872
:102D600000002F46E078C006C4D575E00127E07862
:102D7000C006BFD570E001270121206802033FF59E
:102D800074AF22E004F1080004F09CF80746002F1D
:102D900039467FF466AF09E0D8F8000040F400300F
:102DA000C8F80000002F39467FF45BAFDBF8000065
:102DB000D4F89C1020F0406008430027CBF80000B6
:102DC0002946206802033FF550AF0E4681027FF589
:102DD0005CAFD4F8A010B1F5804F05D1D8F8002031
:102DE00042F48032C8F80020DBF8042022F480424C
:102DF0001143CBF8041001027FF54AAFDBF8001055
:102E0000D4F8B02021F440111143CBF80010C101D7
:102E10007FF541AFDBF80010D4F8B42021F4403145
:102E20001143CBF8001081017FF538AFDBF80810B3
:102E3000D4F8B82021F018011143CBF80810400154
:102E40003FF52FAF3546E07800073FF53FAF2F46FF
:102E5000E078C0067FF54EAFDBF80800D4F8A81084
:102E600020F400400843CBF80800384601B0BDE824
:102E7000F08F0127012681027FF507AFA9E701271F
:102E80000126A078C0077FF484AD17E004F10800A4
:102E900004F018F80746002F3E467FF476ADDBF8C5
:102EA0000800D4F8A41020F4E04008430027CBF831
:102EB00008002E46A078C0077FF46BAD3546A07899
:102EC00080073FF578ADA946A07840077FF589AD2A
:102ED00019E600002DE9F04F81B0002800F02D81A7
:102EE00042F20008C4F202080446D8F800000D4679
:102EF00000F00F0088420DD2D8F8000020F00F003B
:102F00002843C8F80000D8F8000000F00F00A842DD
:102F100040F01381206840F62049C106C4F20269DE
:102F20000DD56169D9F8042002F07002914206D9EA
:102F3000D9F8042022F070021143C9F804100107E7
:102F40000FD52169D9F80020702303EA12129142AB
:102F500007D9D9F8002022F4E06242EA0111C9F849
:102F6000001041070DD5E168D9F8002002F0700289
:102F7000914206D9D9F8002022F070021143C9F815
:102F8000001081070DD5A168D9F8002002F00F02CA
:102F9000914206D9D9F8002022F00F021143C9F856
:102FA0000010C00773D1206881070DD5A168D9F83A
:102FB000002002F00F02914206D2D9F8002022F040
:102FC0000F021143C9F80010D8F8001001F00F01EA
:102FD000A9420DD9D8F8001021F00F012943C8F8F3
:102FE0000010D8F8001001F00F01A94240F0A580B0
:102FF00041070DD5E168D9F8002002F07002914236
:1030000006D2D9F8002022F070021143C9F800104E
:1030100001070FD52169D9F80020702303EA1212A5
:10302000914207D2D9F8002022F4E06242EA01116D
:10303000C9F80010C0060DD56069D9F8041001F078
:103040007001884206D2D9F8041021F070010843BB
:10305000C9F8040000F064F9D9F800104DF6B01278
:1030600001F00F01C0F60302525C40F20801C2F207
:103070000001096840F2600320FA02F2C2F2000384
:1030800008461A6001B0BDE8F04FFEF761BA60680B
:1030900040F61C4B0228C4F2026B14D003281AD14C
:1030A000D9F8740040071CD4D9F874004FF0010A15
:1030B00040F00400C9F87400D9F8740000F004006E
:1030C000009000980FE05BF81C0C800331D40120C5
:1030D00001B0BDE8F08F5BF81C1C60B349052CD52E
:1030E00030E04FF0000AFDF72BFF4FF6F037CFF638
:1030F000FF775BF8071049030CD506465BF807001D
:10310000400407D4FDF71CFF801B02284FF003008A
:10311000F4D965E0BAF1000F05D0D9F8740020F0B9
:103120000400C9F874005BF81C0C800105D56068C8
:1031300008E0022006E0480703D4012001B0BDE802
:10314000F08F0020DBF8001021F003010843CBF8DA
:103150000000FDF7F5FE61680646032941F2883755
:1031600010D002291ED069BBDBF8000010F00C0F54
:103170003FF419AFFDF7E4FE801BB8424FF00300A7
:10318000F2D92DE0DBF8000000F00C000C283FF431
:103190000AAFFDF7D5FE801BB8424FF00300F1D90E
:1031A0001EE000BFDBF8000000F00C0008283FF430
:1031B000FAAEFDF7C5FE801BB8424FF00300F1D90F
:1031C0000EE000BFDBF8000000F00C0004283FF424
:1031D000EAAEFDF7B5FE801BB8424FF00300F1D90F
:1031E00001B0BDE8F08F00001F22026040F62042CF
:1031F000C4F2026252F8043C03F003034360136814
:1032000003F00F038360136803F07003C360D2F808
:1032100000C0702303EA1C130361526802F07002BD
:10322000426142F20000C4F20200006800F00F00A8
:103230000860704780B500F073F840F62041C4F292
:10324000026109684DF6B01201F00F01C0F60302E9
:10325000515CC84040F26001C2F20001086080BDCC
:1032600080B500F05DF840F62041C4F202610A68C2
:103270004DF6B01302F00F02C0F603039A5CD04083
:1032800040F26002C2F20002106009684DF6C012FE
:10329000C1F30211C0F60302515CC84080BD0000BA
:1032A00080B500F03DF840F62041C4F202610A68A2
:1032B0004DF6B01302F00F02C0F603039A5CD04043
:1032C00040F26002C2F20002106009684DF6C012BE
:1032D000C1F30221C0F60302515CC84080BD00006A
:1032E00080B500F01DF840F62041C4F202610A6882
:1032F0004DF6B01302F00F02C0F603039A5CD04003
:1033000040F26002C2F20002106049684DF6C0123D
:10331000C1F30211C0F60302515CC84080BD000039
:1033200040F62841C4F2026151F80C0C10F00C0276
:10333000086814D00C2A04BF00F0030001280ED046
:1033400051F80C0C00F00C00042842F20040C0F2CE
:10335000F40002D0082A64D00020002316E051F8BF
:10336000200C000204D4D1F8CC00C0F3033002E0FA
:1033700051F8200C000F4DF64823C0F6030353F814
:103380002030002A04BF1846704700200C2A18BFBE
:10339000704780B5D1F800C00A6801EE103AC2F358
:1033A000032E08689FED1F2AC0F300100A699FEDE5
:1033B0001E3AC2F3CC0202FB00F00EF1010200EE55
:1033C000100A5FEA8C70B8EE400AB8EE411A58BF96
:1033D000B0EE412A01EE102A20EE030AB8EE411A9F
:1033E000C86882EE011A6FF35F2002EE100AB8EE91
:1033F000422AC86830EE020AB7EE002AC0F306601F
:1034000030EE020A013021EE000A01EE100AB8EE99
:10341000411A80EE010ABCEEC00A10EE100ABDE8A7
:10342000804070470024744B000000392DE9F043C0
:1034300081B0002800F0D58440F694490446C4F2D7
:10344000026959F8780C59F86C1C227800F00C07C6
:10345000D00601F003081FD42078C00700F0FC81DB
:10346000082F70D00C2F08BFB8F1030F6BD0656820
:1034700040F60046B5F5803FC4F2026600F0C98010
:10348000B5F5A02F40F0BA80306840F4802030605D
:10349000306820F48010BBE0F7B10C2F08BFB8F102
:1034A000010F19D040F60046C4F20266E1693068A7
:1034B000002965D040F001003060FDF741FD054670
:1034C000306840076FD4FDF73BFD401B02284FF0EA
:1034D0000300F5D900F056BDE069002800F08184B2
:1034E00040F60045C4F20265666AA86800025ABF49
:1034F000D9F860000004A86800F07040864228D91E
:10350000002F40F0E780D9F80000400700F1C680A6
:10351000D9F8000040F00400C9F80000D9F8000014
:1035200000F0040000900098FEF764F9D9F800104C
:1035300021F00401C9F8001040F48031B1F5403F9A
:1035400000F0B380F0E06068002840F0858100F072
:1035500048BCA868B6F1404F40F40000A860A868D5
:1035600020F0704040EA0600A86034D3E868216A81
:1035700020F01F000843002FE86040F04681E6E09D
:1035800020F001003060FDF7DBFC054630684007A5
:103590007FF562AFFDF7D4FC401B02284FF003001B
:1035A000F4D900F0EFBCB06840F40000B060B1683E
:1035B000606A21F070410143B0F1404FB1603CD3EB
:1035C000F068216A20F01F000843F0602078C007EF
:1035D0007FF446AF40E1B6F1FF3F40F39B80E868DF
:1035E000B6F1804FC0F0AB80216A20F4F84040EA89
:1035F0008120002FE86040F00881A8E03068B5F530
:10360000A81F2ED140F480203060306840F4801034
:103610003060306840F480303060FDF791FC054642
:103620003068800300F11881FDF78AFC401B642894
:103630004FF00300F4D900F0A5BCB0F1FF3F40F318
:10364000D280F168B0F1804FC0F0FC80206A21F494
:10365000F84141EA8020F0602078C0077FF400AF95
:10366000FAE020F480303060306820F48020306050
:10367000306820F480103060FDF762FC002D0546B4
:10368000CED13068800340F1E780FDF759FC401B44
:1036900064284FF00300F4D900F074BCFEF7AAF8D8
:1036A00040F48031B1F5403F3ED10021B6F1805F5A
:1036B00038BF012142F20000C4F20200026822F089
:1036C0000F020A440260006800F00F00884240F0D8
:1036D0008883666AA868B6F1404F40F40000A8608D
:1036E000A86820F0704040EA0600A86005D3E868AA
:1036F000216A20F01F00084386E0B6F1FF3F6BDD32
:10370000E868B6F1804F7AD3216A20F4F84040EAA5
:10371000812079E0E868216A20F4787040EA41105D
:10372000002FE86071D112E00021B1EB167F40F06C
:103730007981B0F5803F40F054830321BAE7216AD4
:1037400020F4782040EAC130002FE8605DD1D9F83C
:103750000000400719D4D9F8000040F00400C9F86F
:103760000000D9F8000000F0040000900098FEF777
:1037700041F8D9F8001021F00401C9F8001040F414
:103780008031B1F5403F07D01BE0FEF733F840F43D
:103790008031B1F5403F14D10021B6F1805F38BFD0
:1037A000012142F20000C4F20200026822F00F027E
:1037B0000A440260006800F00F00884240F0118364
:1037C00023E00021B1EB167F40F03A81B0F5803F55
:1037D00040F007830321E4E7E868216A20F4787069
:1037E00040EA411010E0F068216A20F4787040EA65
:1037F0004110F0602078C0077FF432AE2CE0216ADF
:1038000020F4782040EAC130E860FFF789FD59F8DC
:10381000741C4DF6B01201F00F01C0F60302515CAA
:1038200040F2600220FA01F140F20800C2F200000A
:103830000068C2F200021160FDF78AFE002840F025
:10384000A18309E6206A21F4782141EAC030F060C2
:103850002078C0077FF404AE207880072ED5042F8F
:103860001FD00C2F08BFB8F1020F1AD040F6004647
:10387000C4F20266E1683068002900F0AF8040F4CD
:1038800080703060FDF75CFB054600BF3068400586
:103890000BD4FDF755FB401B02284FF00300F5D970
:1038A00070E3E068002800F09C8259F8840C2169DC
:1038B00020F4F81040EA014049F8840C207840F6E2
:1038C00000470007C4F202671ED42078400700F1C9
:1038D000F1802078800640F1A681E16A38680029ED
:1038E00000F08E8040F480503860FDF729FB0546DB
:1038F0003868800400F19781FDF722FB401B022805
:103900004FF00300F4D93DE3D9F8000040070ED48E
:10391000D9F800004FF0010840F00400C9F8000099
:10392000D9F8000000F004000090009801E04FF08A
:1039300000084FF62846CFF6FF76B859C00713D1D6
:10394000B85940F00100B851FDF7FAFA054600BF3A
:10395000B859C00708D1FDF7F3FA401B0228F7D980
:10396000032001B0BDE8F0836069D9F85C1008B3AA
:10397000A06901F08052904278D001F04062B2F12B
:10398000006F00F02E82490169D5D9F85C0020F063
:10399000A050C9F85C00FDF7D3FA0546D9F85C00E1
:1039A00000015BD5FDF7CCFA401B05284FF0030062
:1039B000F4D9E7E221F0A050C9F85C00FDF7C0FAA5
:1039C000054600BFD9F85C00000165D5FDF7B8FADF
:1039D000401B05284FF00300F4D9D3E220F4807097
:1039E0003060FDF7ADFA0546306840057FF566AFFB
:1039F000FDF7A6FA401B02284FF00300F4D9C1E2FC
:103A000020F480503860FDF79BFA05463868800442
:103A100040F10981FDF794FA401B02284FF00300A2
:103A2000F4D9AFE2B6F1005F40F21982B0FA80F04B
:103A300000214009B6F1405F98BF0121014039E6FD
:103A4000B6F1005F40F21682B0FA80F00021400922
:103A5000B6F1405F98BF01210140A2E6A069D9F804
:103A60005C1021F080510843C9F85C00D9F85C0073
:103A700040F08060C9F85C00FDF762FA054600BFBF
:103A8000D9F85C00000107D4FDF75AFA401B05285D
:103A90004FF00300F4D975E2B8F1000F3FF415AF11
:103AA000D9F8000020F00400C9F800002078400791
:103AB0007FF50FAFD9F8000040070ED4D9F8000009
:103AC0004FF0010840F00400C9F80000D9F80000E8
:103AD00000F004000090009801E04FF000084FF65D
:103AE0002846CFF6FF76B859C00712D1B85940F032
:103AF0000100B851FDF724FA054600BFB859C007C8
:103B000007D1FDF71DFA401B02284FF00300F5D93D
:103B100038E2A568E8070AD1D9F85C0020F0010076
:103B2000C9F85C00D9F85C0020F004000BE0D9F87B
:103B30005C00690705D540F00400C9F85C00D9F8BD
:103B40005C0040F00100C9F85C00FDF7F9F9002DB8
:103B5000054641F288360BD0D9F85C00800713D4B3
:103B6000FDF7EEF9401BB0424FF00300F4D909E233
:103B7000D9F85C0080071ED5FDF7E2F9401BB04282
:103B80004FF00300F4D9FDE1A168D9F85C00090603
:103B900029D420F0800041F28836C9F85C00D9F8B9
:103BA0005C00000531D5FDF7CBF9401BB0424FF06A
:103BB0000300F4D9E6E1D9F85C00000625D5D9F870
:103BC0005C0041F2883620F08000C9F85C00D9F82A
:103BD0005C00000519D5FDF7B3F9401BB0424FF06A
:103BE0000300F4D9CEE140F0800041F28836C9F8F4
:103BF0005C00D9F85C00000507D4FDF7A1F9401B73
:103C0000B0424FF00300F4D9BCE1B8F1000F3FF42B
:103C100060AED9F8000020F00400C9F80000207858
:103C200080063FF55AAE2078000626D5216B38680D
:103C300089B140F480403860FDF782F9054600BF45
:103C40003868000419D4FDF77BF9401B02284FF0B7
:103C50000300F5D996E120F480403860FDF770F953
:103C6000054600BF3868000407D5FDF769F9401B19
:103C700002284FF00300F5D984E12078400654D59E
:103C8000606BA0B1B86840F40000B860B86820F07C
:103C90007061D4E90902B0F1404F41EA0201B96014
:103CA00017D3F868216A20F01F0008432AE038681B
:103CB00020F010003860FDF743F9054638688006AB
:103CC00033D5FDF73DF9401B02284FF00300F5D92D
:103CD00058E1B0F1FF3F09DDF968B0F1804F0CD336
:103CE000206A21F4F84141EA80200BE0F868216A5B
:103CF00020F4787040EA411004E0206A21F4782131
:103D000041EAC030F860386840F010003860FDF7D4
:103D100017F905463868800607D4FDF711F9401BEE
:103D200002284FF00300F5D92CE1A56B002D00F01F
:103D3000328159F8780C00F00C000C2855D159F854
:103D40006C1C59F8600C012D4BD0E26B01F00303A1
:103D5000934246D1C1F30322236C013B9A4240D1E6
:103D6000626C01F4704191423BD1A26C01466FF349
:103D70005F21013A914234D1C0F34621E26C013A0D
:103D800091422ED1C0F30641226D013A914228D1D1
:103D9000C0F30660616D0139884222D159F85C0C8C
:103DA000C0F3CC00E16D884200F0F58059F86C0C4E
:103DB00020F0100049F86C0CFDF7C2F80546FDF73D
:103DC000BFF8A842FBD0E06DC00049F85C0C59F880
:103DD0006C0C40F0100049F86C0C002001B0BDE8FC
:103DE000F083012001B0BDE8F083386820F08070D6
:103DF0003860FDF7A5F8022D05460AD13868800124
:103E000012D5FDF79DF8401B02284FF00300F5D9AD
:103E1000B8E0386880011AD5FDF792F8401B0228F7
:103E20004FF00300F5D9ADE0D9F8000040072BD4DE
:103E3000D9F800004FF0010C40F00400C9F8000070
:103E4000D9F8000000F00400009000981EE059F836
:103E50006C0C4FF6FC71CFF6F871084099E0022126
:103E6000B0F5803F08BF0121B6F1805F18BF012186
:103E7000FFF720BC0221B0F5803F08BF0121B6F159
:103E8000805F18BF01218CE44FF0000C4FF60C4806
:103E9000CFF6FF7857F808E057F808304FF603766A
:103EA00023F4802347F8083059F86C3C6FF0FF0189
:103EB000B343D4E90F65D4E911023343184301EB4E
:103EC00005214FF47E43084349F86C0C59F8600C07
:103ED0000021C8F280010840511EE26C4FF4FE053B
:103EE00003EB4222236D6FF35F2105EB0343656D06
:103EF00092B24FF0FE4606EB0565084403F4FE035C
:103F0000104405F0FE451844284449F8600C59F85F
:103F10006C0C20F0100049F86C0CE06DC00049F802
:103F20005C0C59F86C0C40F0100049F86C0C59F816
:103F30006C0CA16D20F00C0008435FEA4E3149F88B
:103F40006C0C05D557F8080040F4802047F80800AD
:103F5000BCF1000F05D0D9F8000020F00400C9F82A
:103F60000000386840F080703860FCF7E9FF0446D4
:103F70003868800109D4FCF7E3FF001B02284FF0EA
:103F80000300F5D901B0BDE8F08359F86C0C40F49A
:103F9000802049F86C0C002001B0BDE8F0830000DF
:103FA00090F88920012A1EBF01221046704790F820
:103FB0008820012A4FF0020215D080F8892002687B
:103FC000136823F001031360D1E900C3896803F487
:103FD000702343EA0C031943D1610121002280F8C8
:103FE000891080F88820104670470000F0B581B035
:103FF00000285ED00446006842F2000340F0805280
:10400000C5F2006300219A42A16203D1E1680F2941
:104010004FD800E0E168E26B012505EB5212083150
:10402000C90802FB01F143F2FF72C5F2000290429F
:1040300012DC43F60003C4F20003984237D043F287
:104040000003C4F20103984231D042F20003C4F2EB
:10405000006398420ED02FE043F60005C5F200053C
:10406000A84224D043F20005C5F20105A8421ED0A3
:10407000984221D108291CD890420CDC43F600025A
:10408000C4F20002904212D043F20002C4F20102D4
:1040900090420CD010E043F20002C5F201029042BF
:1040A00005D043F60002C5F20002904204D1102967
:1040B00002D9012001B0F0BD94F8891031B9002077
:1040C00084F88800204600F06BF82068022184F80C
:1040D0008910016821F0010101608368A7696268A5
:1040E000B7F1806F03F4F81C0ED12AB1B2F5800F3E
:1040F0000AD1A36B73B903E0A36BB3F1805F05D161
:10410000036843F480530360530203D4E3684FF021
:10411000010E0DE0E368072B08D3D0F800E0266D10
:104120002EF4807535434FF0000E04E04FF0000E82
:10413000056825F480750560E569A66A45EA0C0501
:10414000E16B2E4331431943A56826696369816099
:10415000616B3A43676A1143A26B394311433143A0
:10416000226A1943E36C11431943A26C2943A36DDE
:104170001143E26D1943236E11431943BEF1000F41
:10418000C16005D1C168626D21F000411143C16079
:1041900000200121C4F88C0084F8891001B0F0BD22
:1041A000B0B5B8B00446002502A8C0213795CDE9C6
:1041B0003555CDE93355FCF795F8206843F20001F9
:1041C000C4F20101884201D038B0B0BD4FF4000004
:1041D00002904FF4801003952E9002A8FEF7CCFABF
:1041E000002818BFFCF754FC40F68C40C4F2026073
:1041F000816941F480518161816901F480510191AB
:104200000199016841F001010160006833A900F0E3
:10421000010001900198E0203390022034900020AA
:10422000359003203690052037900020C4F20220FC
:10423000FCF76AFD38B0B0BD2DE9F04381B0D0F88D
:1042400000901D46174604460E46FCF779FE94F88A
:10425000891001290CD1002E18BF002F03D1012095
:1042600001B0BDE8F083804694F88800012803D1AE
:10427000022001B0BDE8F08301210320002284F870
:10428000881084F88900C4F88C206666A4F86870E9
:10429000A4F86A70E266A4F87020A4F87220A068FE
:1042A000A267B0F5C02F2068E26704D10168034619
:1042B00041F4006204E0034653F80C2F61F35242CC
:1042C0001A6041684FF6FF729143394441600168BA
:1042D00041F001010160C169890207D46168B1F54B
:1042E000800F03D1016841F400710160E268102A77
:1042F00015D343F2FF71C5F20001884200F3A88094
:1043000043F60001C4F20001884200F0AD8043F2A0
:104310000001C4F20101884200F0A680E6E0B4F892
:104320006A10072A00F2E480002900F04981691C24
:1043300047D04FF6FE718E1E4F1C4169890704D588
:104340000FE02068416989070BD4FCF7F9FDA0EB69
:104350000800A84280F05F81B4F86A000028F0D11C
:104360002EE1B4F86A10042909D3E16B402906D97B
:10437000616E51F8042B02623046616616E0B4F8B3
:104380006A1002290AD3E16B41B1606E30F8021B5A
:10439000A9F8201060664FF6FE7007E0616E09789C
:1043A00080F82010606E013060663846B4F86A10FC
:1043B0000844A4F86A00B4F86A000028C1D1FFE0FC
:1043C00020684169890706D4FCF7BAFDB4F86A0091
:1043D0000028F5D1F4E0B4F86A10042911D3E16B98
:1043E00041290ED3616E51F8042B02626166B4F864
:1043F0006A000438A4F86A00B4F86A000028DFD123
:10440000DEE0B4F86A10022911D3E16B79B1606E75
:1044100030F8021BA9F820106066B4F86A00023870
:10442000A4F86A00B4F86A000028C9D1C8E0616E37
:10443000097880F82010606E01306066B4F86A0078
:104440000138A4F86A00B4F86A000028B8D1B7E0CF
:1044500043F60001C5F20001884205D043F2000195
:10446000C5F20101884241D1B4F86A10002900F078
:10447000A780691C01D120E02068416989070BD41D
:10448000FCF75EFDA0EB0800A84280F0C480B4F801
:104490006A000028F0D193E0616E51F8042B0262AB
:1044A0006166B4F86A000138A4F86A00B4F86A00DA
:1044B0000028E1D184E000BF20684169890706D463
:1044C000FCF73EFDB4F86A000028F5D178E0616E93
:1044D00051F8042B02626166B4F86A000138A4F84E
:1044E0006A00B4F86A000028E6D169E0B4F86A10FE
:1044F000002965D0691C35D04FF6FE714E1C41690C
:10450000890704D50EE02068416989070AD4FCF7C1
:1045100017FDA0EB0800A8427DD2B4F86A0000287D
:10452000F1D14DE0B4F86A10022909D3E16B39B139
:10453000616E51F8042B02624FF6FE70616606E070
:10454000606E30F8021BA9F8201060663046B4F89F
:104550006A100844A4F86A00B4F86A000028D2D1AE
:104560002EE020684169890706D4FCF7E9FCB4F81D
:104570006A000028F5D123E0B4F86A10022910D3AC
:10458000E16B71B1616E51F8042B02626166B4F89F
:104590006A000238A4F86A00B4F86A000028E0D182
:1045A0000EE0606E30F8021BA9F820106066B4F8C7
:1045B0006A000138A4F86A00B4F86A000028D0D173
:1045C000681C13D020684069000713D4FCF7B8FCBE
:1045D000A0EB0800A842F5D3D4F88C0040F02000EE
:1045E000C4F88C0006E000BFFCF7AAFC2068406914
:1045F0000007F9D5204602F061FD012084F889000A
:10460000002084F88800D4F88C00002818BF01200E
:1046100001B0BDE8F083204602F050FDD4F88C00D4
:1046200040F48070C4F88C00012084F889000020D8
:1046300084F88800032001B0BDE8F083042888BF17
:104640007047DFE800F00314263738004EF2100000
:10465000CEF20000016821F00401016040F6E04064
:10466000C4F20260016821F44001016070474EF21B
:104670001000CEF200000168012221F00401016067
:1046800040F6E040C4F20260016862F397510160B5
:1046900070474EF21000CEF200000168022221F0B5
:1046A0000401016040F6E040C4F20260016862F378
:1046B0009751016070474EF21000CEF20000016881
:1046C00041F004010160704770470000704700002E
:1046D00070470000704700007047000070470000FE
:1046E00090F83C20012A4FF0020200F0B38010B590
:1046F000012380F83C3080F83D20026842F6FF3309
:10470000D2F804E0D2F808C0C5F201039A420CDCEA
:1047100042F60043C4F201039A4212D043F200432E
:10472000C4F201039A420CD010E043F20043C5F2F8
:1047300001039A4205D042F60043C5F201039A42B2
:1047400004D14C682EF4700344EA030E4FF68F73C5
:10475000CFF6FF530C6803EA0E032343B2F1A04FD8
:104760005360BDE8104018DA40F6FF33C4F200038E
:104770009A422BDD43F2FF33C4F201039A4245DC37
:1047800040F60043C4F200039A4258D042F6004378
:10479000C4F201039A4252D056E040F6FF33C5F20C
:1047A00000039A4222DD43F2FF33C5F201039A422D
:1047B00039DC40F60043C5F200039A423FD042F68E
:1047C0000043C5F201039A4239D03DE0B2F1804F77
:1047D00035D040F20043C4F200039A422FD040F695
:1047E0000003C4F200039A4229D02DE0B2F1A04F99
:1047F00025D040F20043C5F200039A421FD040F694
:104800000003C5F200039A4219D01DE043F20043B1
:10481000C4F201039A4212D044F20003C4F201032D
:104820009A420CD010E044F20003C5F201039A4210
:1048300005D043F20043C5F201039A4204D18968CE
:104840002CF08003194391600121002280F83D1073
:1048500080F83C201046704770470000002804BFD5
:104860000120704710B5044690F83D0028B900209B
:1048700084F83C00204600F023F8022084F83D0034
:104880002068211D02F0D8FC012084F8480084F83B
:104890003E0084F83F0084F8400084F8410084F82A
:1048A000420084F8430084F8440084F8450084F80A
:1048B000460084F8470084F83D00002010BD000049
:1048C000006841F20001C4F20001884218BF70473D
:1048D00080B582B040F69C40C4F2026001680022BC
:1048E00041F0100101600068052100F01000019006
:1048F00001983120FCF7A4FE312002B0BDE88040D1
:10490000FCF78EBE90F83D1001291CBF01207047B6
:10491000022180F83D100168C868B1F1A04F40F055
:104920000100C86018DA40F6FF30C4F2000081428E
:104930002BDD43F2FF30C4F20100814245DC40F63A
:104940000040C4F20000814258D042F60040C4F258
:104950000100814252D064E040F6FF30C5F2000011
:10496000814222DD43F2FF30C5F20100814239DC91
:1049700040F60040C5F2000081423FD042F60040C0
:10498000C5F20100814239D04BE0B1F1804F35D002
:1049900040F20040C4F2000081422FD040F60000F7
:1049A000C4F20000814229D03BE0B1F1A04F25D0F4
:1049B00040F20040C5F2000081421FD040F60000E6
:1049C000C5F20000814219D02BE043F20040C4F24E
:1049D0000100814212D044F20000C4F20100814281
:1049E0000CD01EE044F20000C5F20100814205D067
:1049F00043F20040C5F20100814212D188680722CB
:104A0000C0F201020240062A4FF0000018BFB2F5C2
:104A1000803F00D17047086840F001000860002026
:104A20007047086840F001000860002070470000EF
:104A300070470000F0B581B004460068C768066999
:104A400006EA0705A90739D4680751D428076BD4AB
:104A5000E80600F18680E80740F0A18017F08007A3
:104A600018BF16F4025040F0A880002F18BF16F4AB
:104A7000807040F0AF80680600F1B680A80600F1B3
:104A8000BD80E80200F1C480A80200F1CB8068027A
:104A900006D520686FF4800101612046FFF71EFEF5
:104AA00028025CBF01B0F0BD21686FF4000220460F
:104AB0000A6101B0BDE8F040FFF7CEBE6FF0020121
:104AC0000161012121778069800707D02046FFF727
:104AD000AFFF002020776807B8D509E0204600F036
:104AE000ADF8204600F0ACF8002020776807ADD57F
:104AF00020686FF00401016102212177806910F4C0
:104B0000407F07D02046FFF793FF0020207728073B
:104B10009ED509E0204600F091F8204600F090F87C
:104B200000202077280793D520686FF008010161E5
:104B300004212177C069800708D02046FFF778FF5D
:104B400000202077E8067FF586AF0AE0204600F0D7
:104B500075F8204600F074F800202077E8067FF50D
:104B60007AAF20686FF01001016108212177C069D8
:104B700010F4407F08D02046FFF75AFF002020772E
:104B8000E8073FF46BAF0AE0204600F057F82046F4
:104B900000F056F800202077E8073FF45FAF206868
:104BA0006FF001010161204600F04CF817F080071A
:104BB00018BF16F402503FF458AF20686FF402514A
:104BC00001612046FFF782FD002F18BF16F48070A8
:104BD0003FF451AF20686FF4807101612046FFF708
:104BE00073FD68067FF54AAF20686FF040010161F0
:104BF000204600F051F8A8067FF543AF20686FF01B
:104C0000200101612046FFF763FDE8027FF53CAF1C
:104C100020686FF4801101612046FFF75DFDA80256
:104C20007FF535AF20686FF4001101612046FFF772
:104C300051FD68027FF534AF2BE70000704700009C
:104C40007047000070B50446006841F20005C4F2E8
:104C50000005A84217D101202EF0A6FA40F29636A0
:104C6000C2F200063088411CB0F5FA7F318009D3CA
:104C700040F60000C4F202204FF40051FCF752F954
:104C800000203080206805F58061884218BF70BD23
:104C9000BDE87040FCF720BC7047000090F884101D
:104CA000012902BF0221084670472421C0F888105C
:104CB00002681168136823F00103136021F00053A8
:104CC0000021416613602022C0F8882080F88410FB
:104CD00008467047704700007047000090F8842035
:104CE000012A02BF022108467047B0B501232422E1
:104CF00080F88430C0F888200268D0F864E0D2F8E8
:104D000000C01468BEF1000F24F001041460946820
:104D100024F0606441EA0401916019D091684DF675
:104D2000504EC1F342619368C0F6030E5B0F4DF61F
:104D300058451EF80340C0F60305EB5CE400B4FBE5
:104D4000F3F31EF80140695CE500B5FBF1F100E00A
:104D50000121A0F86A30A0F868102021C2F800C034
:104D6000C0F88810002180F88410BDE8B0400846E3
:104D70007047000090F88420012A02BF02210846F3
:104D80007047B0B50123242280F88430C0F8882011
:104D90000268D0F864E0D2F800C01468BEF1000FD9
:104DA00024F001041460946824F0604441EA040192
:104DB000916019D091684DF6504EC1F342619368ED
:104DC000C0F6030E5B0F4DF658451EF80340C0F6C3
:104DD0000305EB5CE400B4FBF3F31EF80140695CEF
:104DE000E500B5FBF1F100E00121A0F86A30A0F880
:104DF00068102021C2F800C0C0F88810002180F897
:104E00008410BDE8B04008467047000070470000BD
:104E10007047000070B50446006840F60F01C26993
:104E20000668D0F808C00A4200F0FF800121C1F2F4
:104E300000010CEA010E40F22011C0F200413140A5
:104E400011EB0E0100F00181D10718BF16F480713B
:104E500040F0E18191070CF0010308D53BB102213C
:104E60000162D4F8901041F00401C4F89010510789
:104E700008D53BB104210162D4F8901041F0020141
:104E8000C4F8901011070CD506F0200151EA0E016C
:104E900007D008210162D4F8901041F00801C4F84D
:104EA000901011050BD516F0806108D04FF4006109
:104EB0000162D4F8901041F02001C4F89010D4F8A9
:104EC0009010002900F06B8291060AD506F02001AF
:104ED0000CF08052891804D0616F11B120468847C8
:104EE0002068D4F89010826801F0280102F0400296
:104EF000891808D12046FFF78BFF0020C4F89000E6
:104F00004DE200BF206850E8000F216820F4907047
:104F100041E80002DAB1206850E8000F216820F46F
:104F2000907041E8000292B1206850E8000F2168BB
:104F300020F4907041E800024AB1206850E8000F68
:104F4000216820F4907041E80002002ADAD14FF67F
:104F5000FE70CEF6FF7000BF216851E8021F226884
:104F6000014042E80213C3B1216851E8021F2268E0
:104F7000014042E8021383B1216851E8021F226810
:104F8000014042E8021343B1216851E8021F226840
:104F9000014042E80213002BDED1E06E012824D14B
:104FA000206850E8000F216820F0100041E800025E
:104FB000DAB1206850E8000F216820F0100041E8C5
:104FC000000292B1206850E8000F216820F0100024
:104FD00041E800024AB1206850E8000F216820F043
:104FE000100041E80002002ADAD12020C4F88C0029
:104FF0000020E066216860678868400640F1B38160
:10500000D4F88000002800F0AE8147F29571C0F618
:105010000001C166FBF74CFE002800F0C081D4F807
:105020008000C16EBDE87040084791060DD506F0BE
:1050300020010CF08053C91807D0616F002900F0DF
:10504000AE812046BDE870400847E16E06EA0203E3
:10505000DD0615D5012913D11021016281684906A9
:1050600000F1E780B4F85C10B4F85E20B4F85E306C
:10507000002B1CBF891A5FEA014200F090810EE00C
:10508000110640F18A8006F080010CF400054919F0
:1050900000F08380A16F0029D3D180E1206850E81F
:1050A000000F226820F4907042E80003DBB1206812
:1050B00050E8000F226820F4907042E8000393B19A
:1050C000206850E8000F226820F4907042E8000346
:1050D0004BB1206850E8000F226820F4907042E83D
:1050E0000003002BDAD14FF6FE70CEF6FF7000BF42
:1050F000226852E8022F2368024043E80226C6B124
:10510000226852E8022F2368024043E8022686B153
:10511000226852E8022F2368024043E8022646B183
:10512000226852E8022F2368024043E80226002E3C
:10513000DED12020C4F88C000020E066606700BF4C
:10514000206850E8000F226820F0100042E80003B9
:10515000DBB1206850E8000F226820F0100042E820
:10516000000393B1206850E8000F226820F010007F
:1051700042E800034BB1206850E8000F226820F09D
:10518000100042E80003002BDAD1022289B2204647
:105190002267BDE87040FFF79DBD59060DD410028F
:1051A00040F1F28016F0804000F0EE802046BDE82D
:1051B0007040FFF72BBE00BF206850E8000F216849
:1051C00020F0400041E80002DAB1206850E8000F0A
:1051D000216820F0400041E8000292B1206850E8C8
:1051E000000F216820F0400041E800024AB1206829
:1051F00050E8000F216820F0400041E80002002A3A
:10520000DAD120200021C4F888002046A167BDE83B
:10521000704000F025BB01210162D4F8901041F0EC
:105220000101C4F8901091070CF001033FF516AE90
:105230001DE6D4F8803019688A6CB4F85CC091B26D
:10524000002900F09580614580F09280A4F85E20EE
:10525000196D81297BD000E0206850E8000F21689B
:1052600020F4807041E80002E2B1206850E8000FAD
:10527000216820F4807041E800029AB1206850E86B
:10528000000F216820F4807041E8000252B12068CC
:1052900050E8000F216820F4807041E80002002AE5
:1052A000DAD100BF206850E8020F216820F0010029
:1052B00041E80202DAB1206850E8020F216820F0CC
:1052C000010041E8020292B1206850E8020F216813
:1052D00020F0010041E802024AB1206850E8020FC4
:1052E000216820F0010041E80202002ADAD12020E2
:1052F000C4F88C000020E066206850E8000F2168A8
:1053000020F0100041E80002DAB1206850E8000FF8
:10531000216820F0100041E8000292B1206850E8B6
:10532000000F216820F0100041E800024AB1206817
:1053300050E8000F216820F0100041E80002002A28
:10534000DAD1D4F88000FBF75BFCB4F85CC0022033
:105350002067B4F85E00ACEB000081B22046BDE8E7
:105360007040FFF7B7BC2046BDE87040FFF750BD66
:105370008C4514D1186D812811D102222046226754
:10538000BDE87040FFF7A6BCD00108D5B6F1FF3FDD
:10539000C8BF70BD2046BDE87040FFF79DBC70BD22
:1053A00010B5E0B10446D0F8880028B9002084F890
:1053B0008400204600F028F82420C4F888002068E3
:1053C000A16A0268002922F0010202601CBF204687
:1053D00002F0AEF8204602F0C3FE012801D1012000
:1053E00010BD2168486820F490404860886820F02B
:1053F0002A008860086840F0010220460A60BDE883
:10540000104002F00BB900002DE9F041B8B004469D
:10541000002502A8C0213795CDE93555CDE9335592
:10542000FAF760FF206843F60001C4F201018842E8
:105430005AD045F20001C4F20001884240F0858054
:1054400010200025029002A803951A95FDF794F903
:10545000002818BFFBF71CFB40F68C40C4F202602A
:105460000169002641F4801101610169C4F202263C
:1054700001F4801101910199016833AC41F00401FC
:10548000016001684FF0020801F0040101910199E7
:105490000168082741F0080101600068214600F01A
:1054A0000800019001984FF48050339006F5006099
:1054B000CDE9348536953797FBF726FC0420CDE9F6
:1054C000330806F540602146CDE935553797FBF79F
:1054D0001BFC412005210022FCF7B2F84120FCF71B
:1054E0009FF838B0BDE8F0810120029002A8039532
:1054F0001695FDF741F9002818BFFBF7C9FA40F6E9
:105500008C40C4F20260816941F48041816181690B
:1055100001F4804101910199016841F001010160AC
:10552000006833A900F00100019001984FF4C060B9
:105530003390022034900020CDE9350007203790C9
:105540000020C4F20220FBF7DFFB38B0BDE8F08199
:10555000D0F88C30202B1EBF02231846704700293C
:105560004FF0010318BF002A01D1184670470023ED
:10557000C366D0F800C0DCF808305B0605D5DCF85F
:10558000083023F04003CCF8083080B542F20043E5
:105590004CF0805EC5F200639E4537D0DCF80430E5
:1055A0001B0233D55CE800CF03E000BF036853E87B
:1055B00000CFD0F800E04CF080634EE8003CBCF136
:1055C000000F23D0036853E800CFD0F800E04CF080
:1055D00080634EE8003CBCF1000F17D0036853E82D
:1055E00000CFD0F800E04CF080634EE8003CBCF106
:1055F000000F0BD0036853E800CFD0F800E04CF068
:1056000080634EE8003CBCF1000FCFD102F0BEFE3B
:105610000023BDE88040184670470000006845F24E
:105620000001C4F20001884218BF7047B0B540F2D3
:105630001035C2F200056988B1F5FF7F1CD8687883
:105640004EF2AC044A1CC2F20004605491B26A806B
:105650000022625438F08EF911A12046FAF74DFE6F
:1056600038B94EF2AC00C2F200000EA1FAF745FEC6
:1056700060B10120287009E0002068804EF2AC0083
:10568000C2F200004FF40071FAF72CFE40F66400FD
:10569000691CC2F200000122BDE8B040FFF758BF0C
:1056A0004F4B00004552524F520000002DE9F0418F
:1056B0000446D0F8880020281CBF0220BDE8F081F5
:1056C0000F4600294FF001001CBF1646002A01D1E9
:1056D000BDE8F081206898468168090603D5816895
:1056E00021F08001816000252120C4F89050C4F889
:1056F0008800FBF725FCA4F85460A4F85660A16864
:105700000646B1F5805F05D12069002814BF3846F0
:105710003D460746B4F856302068002B014651F844
:105720001C2F41D018F101031DD0B8F1000F61D139
:10573000120640F18C801FB117F8012B05E000BF65
:1057400035F8022B00276FF35F228262B4F85620EF
:10575000013AA4F85620B4F856300A68002BE7D175
:1057600022E000BF0A6812065FBF0A685FEA0262B1
:105770000A685FEA026203D40A681206F2D500BF23
:1057800017B117F8012B04E035F8022B00276FF34F
:105790005F228262B4F85620013AA4F85620B4F889
:1057A00056300A68002BDED150061DD4B8F1000F28
:1057B00045D018F101000DD1086840065CBF0868AB
:1057C0005FEA406010D4086840060DD408684006BF
:1057D000F2D509E0FBF7B4FB801B404531D82068C7
:1057E0000168C0694006F5D52020C4F88800002073
:1057F000BDE8F081110609D4FBF7A2FB801B4045F0
:1058000027D820680168C1690906F5D517B117F8CE
:10581000011B04E035F8021B00276FF35F21816252
:10582000B4F856100139A4F85610B4F85610C269ED
:105830000029DFD100F11C015006D5D4B6E7FBF7F3
:105840007FFB2020C4F888000320BDE8F081FBF72F
:1058500077FB2020C4F888000320BDE8F081000019
:1058600070470000FEE7000070B50446006815466A
:105870008369DA0613D4002100228369DE0505D589
:105880004FF4807241F00101C26101225E0535D4FE
:105890009B053BD4002A04BF002070BD3BE00E46B0
:1058A0001021C1618169890600F18C80711C7CD056
:1058B000002E51D1FBF744FB2068426894F8423037
:1058C0008169202B0CD012F4804209D111F40041DF
:1058D00006D0416841F480414160FBF731FB054649
:1058E00020688169890605D4FBF72AFB401B1A282A
:1058F000F6D370E081698906DCD563E04FF48062FD
:1059000041F00801C26101229B05C3D541F00201AB
:105910004FF40072C2618269920744BF0022826222
:105920008269D20703D1826942F001028261426832
:105930004EF60003CFF600631A404260606C0843E5
:105940006064202084F84100002084F8420084F83C
:105950004000012070BD00BFFBF7F2FA401BB042CF
:105960001ED92068426894F842308169202B0DD0FE
:1059700012F480420AD111F4004107D0416841F489
:1059800080414160FBF7DCFA054600BF2068806972
:10599000800605D4FBF7D4FA401B1A28F6D31AE088
:1059A000206881698906D7D50CE08169890609D408
:1059B000816989065CBF81695FEA816102D481697E
:1059C0008906F2D52021C161012204218369DE0507
:1059D0003FF556AF5AE72068012281692421836987
:1059E000DE053FF54DAF51E72DE9F0410446006873
:1059F00080690840401AB0FA80F04609964223D1E7
:105A0000DDF818800D461F46581C2DD0002F42D0BF
:105A1000204639464246FFF727FF68BBFBF790FA5E
:105A2000A0EB08012068B94206D981692940491BC9
:105A300018BF01218E4243D180692840401B18BF06
:105A4000012096EA000FE3D10020BDE8F08100BFFD
:105A5000206880692840401B18BF012096EA000F8B
:105A600004BF0020BDE8F08120464FF0FF314246E0
:105A7000FFF7FAFE0028EBD00120BDE8F08100BF5F
:105A800080692840401B18BF012096EA000F04BF20
:105A90000020BDE8F081204600214246FFF7E4FEE9
:105AA00000281CBF0120BDE8F081FBF749FA2068FF
:105AB00081692940491B18BF012196EA010FDFD0F7
:105AC000606C40F020006064202084F841000020D9
:105AD00084F8420084F840000120BDE8F081000015
