:020000040800F2
:1000000068390120D9020008A93D000859300008CC
:10001000A53D00084106000885430008EB020008E2
:100020000000000000000000000000007140000817
:100030004506000800000000AD3D000875400008BE
:10004000F5020008F5020008F5020008F5020008B4
:10005000F5020008F5020008F5020008F5020008A4
:10006000F5020008F5020008F5020008F502000894
:10007000F5020008F5020008F5020008F502000884
:10008000F5020008F5020008F5020008F502000874
:10009000F5020008F5020008F5020008F502000864
:1000A000F5020008F5020008F5020008F502000854
:1000B00000000000F5020008F5020008F502000843
:1000C000F5020008F5020008F5020008F502000834
:1000D000F5020008F5020008F5020008F502000824
:1000E000F5020008F5020008F5020008F502000814
:1000F000F5020008F5020008F5020008F502000804
:10010000F5020008C5400008F5020008F5020008E5
:10011000F5020008F5020008F5020008F5020008E3
:10012000F5020008F5020008F5020008F5020008D3
:10013000F5020008F5020008F5020008F5020008C3
:10014000F5020008F5020008F5020008F5020008B3
:10015000F5020008F5020008F5020008F5020008A3
:10016000F5020008F5020008F5020008F502000893
:10017000F5020008F5020008F5020008F502000883
:10018000F5020008F5020008F5020008F502000873
:10019000F5020008F5020008F5020008F502000863
:1001A000F5020008F5020008F5020008F502000853
:1001B000F502000800000000F5020008F502000842
:1001C000F502000800000000F5020008F502000832
:1001D000F5020008F5020008F5020008F502000823
:1001E000F5020008F5020008F5020008F502000813
:1001F0000000000000000000F5020008F502000801
:10020000F5020008F5020008F5020008F5020008F2
:10021000F5020008F5020008F5020008F5020008E2
:10022000F5020008F5020008F5020008F5020008D2
:10023000F5020008F502000800F002F800F03CF8B2
:100240000AA090E8000C82448344AAF10107DA4531
:1002500001D100F031F8AFF2090EBAE80F0013F047
:10026000010F18BFFB1A43F0010318472C89030044
:100270004C890300103A24BF78C878C1FAD85207D5
:1002800024BF30C830C144BF04680C607047000010
:100290000023002400250026103A28BF78C1FBD88F
:1002A000520728BF30C148BF0B6070471FB534F0FC
:1002B00014F91FBD10B510BD00F087F91146FFF706
:1002C000F5FF2CF093FE00F0A5F903B4FFF7F2FF61
:1002D00003BC00F0ADF900000A4880470A48004717
:1002E000FEE7FEE7FEE7FEE7FEE7FEE7FEE7FEE7E6
:1002F000FEE7FEE7FEE7000004480549054A064B15
:1003000070470000794000083902000868D90020D1
:1003100068390120680901206809012053EA020CAC
:1003200000F069802DE9F04B4FF00006002B1FBF55
:10033000B3FA83F503FA05F424FA05F65E4012BF1A
:100340001643B2FA82F502FA05F4C5F120051EBF84
:1003500022FA05FC44EA0C04203556EA044C4FEA24
:10036000144418BF641C4FF000084FF0000990427D
:1003700071EB030C39D3002919BFB1FA81F701FAE7
:1003800007F6B0FA80F700FA07F6C7F120071EBF9C
:1003900020FA07FC46EA0C062037B6FBF4FCA7EB74
:1003A0000507103F07F01F0BCBF120062CFA06F6CD
:1003B0000CFA0BFB44BFB3460026202FA4BF5E46B9
:1003C0004FF0000B5BEA060C08BF4FF0010B19EB76
:1003D0000B0948EB0608ABFB027C06FB02CC0BFBCF
:1003E00003CCC01B71EB0C01C1E70B460246414632
:1003F0004846BDE8F08B13B54FF000004FF0000108
:10040000AFF30080BDE81C40704740EA010302469C
:1004100030B59B0710D14FF0013400E008C208C985
:100420001D1B9D4315EAC41FF8D013F0FF0102F80D
:10043000011B0DD01B0AF8E711F8013B002B02F855
:10044000013B05D011F8013B002B02F8013BF3D131
:1004500030BD10B5431C02E010F8011B71B18107DB
:10046000FAD14FF0013202C88C1A8C4314EAC2113F
:10047000F9D0C01A0A0603D0C01E10BDC01A10BDA4
:100480000A0401D0801E10BD0902FCD0401E10BD20
:1004900002F0FF0343EA032242EA024200F00AB8F4
:1004A00002F0FF0343EA032242EA024200F024B8CA
:1004B0004FF000020429C0F0128010F0030C00F08D
:1004C0001B80CCF1040CBCF1020F18BF00F8012B0B
:1004D000A8BF20F8022BA1EB0C0100F00DB85FEAD9
:1004E000C17C24BF00F8012B00F8012B48BF00F8A5
:1004F000012B70474FF0000200B513469446964614
:10050000203922BFA0E80C50A0E80C50B1F1200126
:10051000BFF4F7AF090728BFA0E80C5048BF0CC0D4
:100520005DF804EB890028BF40F8042B08BF704732
:1005300048BF20F8022B11F0804F18BF00F8012BA4
:10054000704700000000000030B44FF0013C50F84C
:10055000042B51F8043BCCFA52F4D51A20D1FCB943
:1005600050F8042B51F8043BCCFA52F4D51A17D1A9
:10057000B4B950F8042B51F8043BCCFA52F4D51A14
:100580000ED16CB950F8042B51F8043BCCFA52F45C
:10059000D51A05D1002CDAD030BC4FF000007047DE
:1005A00029BAB1FA81F111F01801D1F1200084408B
:1005B000F2D1CA40CB4012F0FF0213F0FF0330BC6F
:1005C000D01A7047704770477047754600F02CF896
:1005D000AE4605006946534620F00700854618B030
:1005E00020B5FFF789FEBDE820404FF000064FF030
:1005F00000074FF000084FF0000BAC46ACE8C00914
:10060000ACE8C009ACE8C009ACE8C00921F00701BA
:100610008D46704710B50446AFF300802046BDE814
:100620001040FFF752BE000000487047A0000020B5
:1006300001491820ABBEFEE726000200704700000B
:10064000FEE700007047000072B600BFFEE7000042
:10065000B0B5044600F02CF9054640F20000C2F2A5
:1006600000000078611C18BF044400BF00F020F9AE
:10067000401BA042FAD3B0BD2DE9F04F81B00D6808
:10068000002D00F00381804647F67F70C0F22F00F6
:1006900000EA98200027009000234FF0010E4FF051
:1006A000030BC4F2026740460EFA03F415EA040A8B
:1006B00000F0E680B8452BD0D1F804C04CF010040F
:1006C000122C40F084806FF0030202EA53071C22D0
:1006D00002EA830647440F223D6A02FA06F40A69D9
:1006E000A54302F00F02B2402A433A6202685C005E
:1006F000D1F804C00BFA04F5AA430CF0030505FA7F
:1007000004F4224399460260BCF1120F34D96DE023
:10071000386844F210524D68C0F60302A04302EB61
:10072000C30405F001059D40D4F80490054352F838
:1007300033006FF0030202EA59041C223D600519E0
:1007400002EA89042F6A0F2202FA04F60B22B74349
:1007500002FA04F637432F6207684FEA49060BFA9C
:1007600006F50222AF4302FA06F637430760D1F8D6
:1007700004C0BCF1120F39D80EFA0CF212F0061FA9
:1007800021D04FEA49050324826804FA05FBCC68AE
:1007900022EA0B02AC40224382604268CCF300168E
:1007A0000EFA09F4A24306FA09F42243BCF1030F3E
:1007B000426003D14FF0030B5FE000BF6FEA0B0410
:1007C0004FF0030B17E0BCF1030F56D00EE00268A8
:1007D0005C000BFA04F5AA430CF0030505FA04F4D7
:1007E000224399460260BCF1120FC5D94FEA490570
:1007F0000BFA05F2D443C2688E68224006FA05F46B
:1008000022435FEACC07C26037D542F2000423F0EE
:100810000302C4F202641827224407EAC307166ED3
:100820000F25BD40AE43009D05FA07F73743176615
:1008300022684F6842EA0A06FD0258BF22EA0A0609
:1008400026606268BD0242EA0A0658BF22EA0A062A
:100850006660D4F88420BD0342EA0A0658BF22EA43
:100860000A06C4F88460D4F88020FF0342EA0A062E
:1008700058BF22EA0A06C4F880600027C4F2026763
:100880000D68013335FA03F27FF40EAF01B0BDE815
:10089000F08F0000426902EA0103914341EA0341FB
:1008A000816170471823002A08BF2823C150704770
:1008B0004DF66410C2F200000068704740F200413B
:1008C000C4F203010A68D2071CBF012070470A68FE
:1008D00022F00402104308600020704740F20041FB
:1008E000C4F20301086840F0010200200A6070476A
:1008F00040F200004DF66411C2F20000C2F20001A5
:1009000000780A68104408607047000080B542F221
:100910000000C4F20200016841F48071016003200C
:1009200000F0CAF800F0B6FE40F62041C4F20261C1
:10093000096844F2005201F00F01C0F60302515C55
:10094000C84040F25C01C2F200010860042002F0DD
:100950002FF80F2000F008F800281CBF012080BDF0
:1009600000F05EF8002080BD70B540F20006C2F2D3
:1009700000063178002925D004464EF21000CEF250
:100980000000006840070FD402F06AF802281CD06B
:10099000012828D0A8BB40F25C00C2F20000006829
:1009A00031784FF4FA5206E040F25C00C2F20000E7
:1009B00000684FF47A72B2FBF1F1B0FBF1F002F093
:1009C0003DF818B30125284670BD30784FF47A7190
:1009D000B1FBF0F04FF40041B1FBF0F002F02EF863
:1009E0000028EFD112E030784FF47A71B1FBF0F0CB
:1009F0004FF4FA41B1FBF0F002F020F80028E1D109
:100A000004E0002002F01AF80028DBD14FF0FF309C
:100A100021460022002500F023F82846746070BDAE
:100A200081B040F69440C4F20260016841F00401D4
:100A30000160006800F004000090009801B0704769
:100A40000028B8BF704700F01F01012202FA01F12F
:100A50004EF200124009CEF2000242F82010704718
:100A600010B54EF60C5CCEF2000CDCF80030C3F38F
:100A7000022E8EF00704042C28BF0424BEF10303C9
:100A80004FF0FF3E38BF00230EFA04F4A143994013
:100A90000EFA03F39A4300F00F03043B114363443F
:100AA00009010C3300F16042B0F1FF3FC8BF02F50D
:100AB0006443197010BD00004EF60C51CEF20001D7
:100AC0000A684FF6FF031A4060F30A2242F0806082
:100AD00040F0FD700860704710B540F60C0CC4F291
:100AE000026CDCF8301001F4403181420CD1B0F1DD
:100AF000011F3CBF002010BDDCF8000040F4802046
:100B0000CCF80000002010BDDCF80010B0F5803FEC
:100B100021F4E02141EA000140F25C0088BF41F489
:100B20008021CCF80010C2F20000006841F2597137
:100B3000CDF2B711A0FB01020120910B00EB923E18
:100B40000A4600BFDCF80000B2F1FF3318BF0123F2
:100B5000541C22D010F400401FD1DCF80000002A01
:100B6000134618BF012318D010F4004015D1DCF84B
:100B70000000531E18BF0123012A0ED010F40040BC
:100B80000BD1DCF80000931E18BF0123022A04D009
:100B900010F40040A2F10402D4D0002B04BF0320C3
:100BA00010BD00BFDCF830004A1C26D010F4004015
:100BB00029D1DCF830000029AEF1010218D010F480
:100BC000004015D1DCF830000129AEF102020FD04F
:100BD00010F400400CD1DCF830000229A1F104022D
:100BE00005D010F40040AEF1040E1146DAD0023206
:100BF0000020002A08BF032010BD72460020002AF2
:100C000008BF032010BD72460020002A08BF032041
:100C100010BD000040F63C00C4F20260006800F421
:100C2000403070472DE9F04F81B00446006840F62F
:100C3000E04BC107C4F2026B46D181074ED4410795
:100C400056D401075ED4C10666D481066ED441062F
:100C500000F17780010600F17F80C10500F18780F7
:100C6000410200F18F80810500F19780410500F17C
:100C70009F80010500F1A78040F628488004C4F257
:100C8000026840F1B080D4F890004FEA7011042956
:100C900000F20381DFE811F00500070112011801DD
:100CA000180104F1080003F083F80646002800F05C
:100CB00002816078400600F19B80374635466078B7
:100CC000000600F1AA804AE3DBF80010226D21F053
:100CD00003011143CBF800108107B0D5DBF80010F9
:100CE000626D21F00C011143CBF800104107A8D52B
:100CF000DBF80010A26D21F030011143CBF8001099
:100D00000107A0D5DBF80010E26D21F0C00111430E
:100D1000CBF80010C10698D5DBF80010226E21F444
:100D200040711143CBF80010810690D5DBF8081014
:100D3000626E21F007011143CBF8081041067FF5E0
:100D400089AFDBF80010A26E21F440611143CBF8AB
:100D5000001001067FF581AFDBF80010E26E21F490
:100D600040511143CBF80010C1057FF579AFDBF896
:100D70000810226F21F0C0011143CBF80810410286
:100D80007FF571AFDBF80010626F21F44041114331
:100D9000CBF8001081057FF569AFDBF80810A26F72
:100DA00021F440611143CBF8081041057FF561AF94
:100DB000DBF80010E26F21F440211143CBF8001062
:100DC00001057FF559AFDBF80810D4F8802021F435
:100DD00040711143CBF8081040F628488004C4F253
:100DE00002683FF550AF0026607840067FF565AF9A
:100DF000D4F894004FEA3020042800F2728037467D
:100E0000DFE800F076808A030300002F3D4600F003
:100E10008E806078000640F1A282D4F8A4004FEAE8
:100E20003030052800F28182022800F08582002FF0
:100E30003E4600F08A82A078C00700F09582D4F880
:100E40008800042800F28380DFE800F00388930321
:100E50000300002F3D4600F09580A078800740F108
:100E60008882D4F88C004FEA3040042800F29A803F
:100E7000DFE810F0050002010D0105000500002F5C
:100E8000B94600F00D81A078400700F192804D46F0
:100E9000A078C00600F12C81E8E1012660784006C8
:100EA0007FF50BAFA4E704F12C0002F0FFFF06462C
:100EB00000287FF4FEAED4F8900005E0D8F80010CA
:100EC00041F48031C8F80010DBF8041021F0E00193
:100ED0000843CBF804000026607840067FF5EDAEAD
:100EE00086E701270125607800063FF596AF36E2D8
:100EF00004F1080002F05CFF0746002F3D467FF436
:100F000088AF14E004F12C0002F0D0FF0746002F58
:100F10003D467FF47EAF0AE0D8F80000374640F443
:100F20008030C8F80000002F3D467FF472AFDBF838
:100F30000400D4F8941020F4E06008430027CBF8B4
:100F400004003546607800063FF567AF07E20127E9
:100F50000125A07880073FF584AF0AE2D8F80000A9
:100F600040F48030C8F80000002F3D467FF475AF94
:100F700008E004F12C0002F099FF0746002F3D46DF
:100F80007FF46BAFDBF80400D4F8881020F0070082
:100F900008430027CBF804003546A07880073FF5CA
:100FA00060AFE6E101274FF00109A07840077FF527
:100FB0006EAF5BF84C0C40070ED45BF84C0C4FF056
:100FC000010A40F004004BF84C0C5BF84C0C00F0AC
:100FD00004000090009801E04FF0000A4FF6004531
:100FE000CFF6FF7558F8050040F0010048F80500FD
:100FF000FFF75EFC064600BF58F80500C0070AD19F
:10100000FFF756FC801B0228F6D903270325BAF107
:10101000000F63D168E0002F3D465CD1DBF8100083
:1010200010F440704CD0D4F8BC10884211D0DBF8DA
:101030001000DBF8101020F4407041F48031CBF840
:101040001010DBF8101021F48031CBF81010CBF821
:101050001000C00734D0FFF72BFC064603270325FA
:10106000DBF8100080072BD4FFF722FC801B41F235
:1010700088318842F4D92EE0D8F8000040F480305E
:10108000C8F80000002FB9467FF4FDAE08E004F177
:101090002C0002F00BFF0746002FB9467FF4F3AE99
:1010A000DBF80800D4F88C1020F4E0200843002777
:1010B000CBF80800A946A07840077FF5E8AE78E7AE
:1010C000DBF81000D4F8BC1020F44070084300276F
:1010D0004D46CBF81000BAF1000F05D05BF84C0C70
:1010E00020F004004BF84C0CA078C00640F1BE8004
:1010F000D4F89C004FEAB060032800F29280DFE849
:1011000000F00297A102002F394600F0A580206868
:10111000020340F1B080D4F8982032B1B2F5005FFC
:1011200018BFB2F5805F40F0FA80002F3E4652D0E3
:10113000810200F1A480010200F1B680C10100F13A
:10114000BF80810100F1C880400140F1D180D4F816
:10115000AC00B0F5401F27D0B0F5001F05D1D8F87E
:10116000000040F40030C8F80000002F3D4623D0B6
:10117000E078000740F1C180D4F8840058B1B0F1A4
:10118000007F34D0B0F1807F46D1D8F8000040F421
:101190000030C8F800008FB3E078C00600F1B280DC
:1011A000384601B0BDE8F08F04F1080002F000FEFF
:1011B0000746002F3D46DBD1DBF80400D4F8AC1025
:1011C00020F4401008430027CBF804003546E078AF
:1011D0000007D1D491E0DBF80430002723F440531A
:1011E0001A43CBF804200E468102A4D547E004F14F
:1011F000080002F0DDFD0746002FCDD1DBF800002E
:10120000D4F8841020F040700843CBF800002F463B
:10121000E078C006C4D575E00127E078C006BFD5E8
:1012200070E001270121206802033FF574AF22E03E
:1012300004F1080002F0BCFD0746002F39467FF498
:1012400066AF09E0D8F8000040F40030C8F80000AC
:10125000002F39467FF45BAFDBF80000D4F89C1018
:1012600020F0406008430027CBF8000029462068A2
:1012700002033FF550AF0E4681027FF55CAFD4F814
:10128000A010B1F5804F05D1D8F8002042F480328B
:10129000C8F80020DBF8042022F480421143CBF888
:1012A000041001027FF54AAFDBF80010D4F8B0203B
:1012B00021F440111143CBF80010C1017FF541AF7B
:1012C000DBF80010D4F8B42021F440311143CBF8FE
:1012D000001081017FF538AFDBF80810D4F8B82092
:1012E00021F018011143CBF8081040013FF52FAF52
:1012F0003546E07800073FF53FAF2F46E078C0065F
:101300007FF54EAFDBF80800D4F8A81020F40040B9
:101310000843CBF80800384601B0BDE8F08F01273C
:10132000012681027FF507AFA9E701270126A078F2
:10133000C0077FF484AD17E004F1080002F038FD27
:101340000746002F3E467FF476ADDBF80800D4F860
:10135000A41020F4E04008430027CBF808002E46F4
:10136000A078C0077FF46BAD3546A07880073FF5C5
:1013700078ADA946A07840077FF589AD19E6000051
:101380002DE9F04F81B0002800F02D8142F20008D5
:10139000C4F202080446D8F800000D4600F00F0021
:1013A00088420DD2D8F8000020F00F002843C8F87A
:1013B0000000D8F8000000F00F00A84240F01381B0
:1013C000206840F62049C106C4F202690DD5616962
:1013D000D9F8042002F07002914206D9D9F804200D
:1013E00022F070021143C9F8041001070FD52169DA
:1013F000D9F80020702303EA1212914207D9D9F8D4
:10140000002022F4E06242EA0111C9F8001041070D
:101410000DD5E168D9F8002002F07002914206D99A
:10142000D9F8002022F070021143C9F8001081079A
:101430000DD5A168D9F8002002F00F02914206D91B
:10144000D9F8002022F00F021143C9F80010C0079C
:1014500073D1206881070DD5A168D9F8002002F06A
:101460000F02914206D2D9F8002022F00F02114358
:10147000C9F80010D8F8001001F00F01A9420DD9E9
:10148000D8F8001021F00F012943C8F80010D8F84F
:10149000001001F00F01A94240F0A58041070DD5D1
:1014A000E168D9F8002002F07002914206D2D9F822
:1014B000002022F070021143C9F8001001070FD577
:1014C0002169D9F80020702303EA1212914207D251
:1014D000D9F8002022F4E06242EA0111C9F80010B4
:1014E000C0060DD56069D9F8041001F0700188427A
:1014F00006D2D9F8041021F070010843C9F804009D
:1015000000F0C8F8D9F8001044F2005201F00F01C1
:10151000C0F60302525C40F20401C2F20001096805
:1015200040F25C0320FA02F2C2F2000308461A609D
:1015300001B0BDE8F04FFFF717BA606840F61C4BEA
:101540000228C4F2026B14D003281AD1D9F874000F
:1015500040071CD4D9F874004FF0010A40F0040091
:10156000C9F87400D9F8740000F0040000900098E5
:101570000FE05BF81C0C800331D4012001B0BDE802
:10158000F08F5BF81C1C60B349052CD530E04FF0A0
:10159000000AFFF78DF94FF6F037CFF6FF775BF8CB
:1015A000071049030CD506465BF80700400407D432
:1015B000FFF77EF9801B02284FF00300F4D965E0A5
:1015C000BAF1000F05D0D9F8740020F00400C9F872
:1015D00074005BF81C0C800105D5606808E00220EF
:1015E00006E0480703D4012001B0BDE8F08F0020D9
:1015F000DBF8001021F003010843CBF80000FFF7EF
:1016000057F961680646032941F2883710D002294C
:101610001ED069BBDBF8000010F00C0F3FF419AFCF
:10162000FFF746F9801BB8424FF00300F2D92DE0D6
:10163000DBF8000000F00C000C283FF40AAFFFF7C5
:1016400037F9801BB8424FF00300F1D91EE000BF0C
:10165000DBF8000000F00C0008283FF4FAAEFFF7BA
:1016600027F9801BB8424FF00300F1D90EE000BF0C
:10167000DBF8000000F00C0004283FF4EAAEFFF7AE
:1016800017F9801BB8424FF00300F1D901B0BDE853
:10169000F08F000040F62841C4F2026151F80C0CB2
:1016A00010F00C02086814D00C2A04BF00F00300EC
:1016B00001280ED051F80C0C00F00C00042842F266
:1016C0000040C0F2F40002D0082A64D000200023B9
:1016D00016E051F8200C000204D4D1F8CC00C0F37D
:1016E000033002E051F8200C000F44F29053C0F692
:1016F000030353F82030002A04BF18467047002027
:101700000C2A18BF704780B5D1F800C00A6801EEF6
:10171000103AC2F3032E08689FED1F2AC0F3001091
:101720000A699FED1E3AC2F3CC0202FB00F00EF1F3
:10173000010200EE100A5FEA8C70B8EE400AB8EEC3
:10174000411A58BFB0EE412A01EE102A20EE030ADA
:10175000B8EE411AC86882EE011A6FF35F2002EEFC
:10176000100AB8EE422AC86830EE020AB7EE002A24
:10177000C0F3066030EE020A013021EE000A01EEED
:10178000100AB8EE411A80EE010ABCEEC00A10EE53
:10179000100ABDE8804070470024744B00000039F7
:1017A0002DE9F04381B0002800F0D58440F694493B
:1017B0000446C4F2026959F8780C59F86C1C227876
:1017C00000F00C07D00601F003081FD42078C007F2
:1017D00000F0FC81082F70D00C2F08BFB8F1030F68
:1017E0006BD0656840F60046B5F5803FC4F20266EE
:1017F00000F0C980B5F5A02F40F0BA80306840F401
:1018000080203060306820F48010BBE0F7B10C2FEE
:1018100008BFB8F1010F19D040F60046C4F20266C5
:10182000E1693068002965D040F001003060FFF7C1
:101830003FF80546306840076FD4FFF739F8401B82
:1018400002284FF00300F5D900F056BDE0690028EA
:1018500000F0818440F60045C4F20265666AA8681B
:1018600000025ABFD9F860000004A86800F0704078
:10187000864228D9002F40F0E780D9F800004007C1
:1018800000F1C680D9F8000040F00400C9F800005B
:10189000D9F8000000F0040000900098FFF7BAF9B2
:1018A000D9F8001021F00401C9F8001040F480318B
:1018B000B1F5403F00F0B380F0E06068002840F0F0
:1018C000858100F048BCA868B6F1404F40F40000A4
:1018D000A860A86820F0704040EA0600A86034D3F1
:1018E000E868216A20F01F000843002FE86040F0FC
:1018F0004681E6E020F001003060FEF7D9FF0546A2
:10190000306840077FF562AFFEF7D2FF401B022828
:101910004FF00300F4D900F0EFBCB06840F40000D1
:10192000B060B168606A21F070410143B0F1404F8E
:10193000B1603CD3F068216A20F01F000843F060DA
:101940002078C0077FF446AF40E1B6F1FF3F40F397
:101950009B80E868B6F1804FC0F0AB80216A20F42C
:10196000F84040EA8120002FE86040F00881A8E0BC
:101970003068B5F5A81F2ED140F480203060306863
:1019800040F480103060306840F480303060FEF702
:101990008FFF05463068800300F11881FEF788FF4D
:1019A000401B64284FF00300F4D900F0A5BCB0F14F
:1019B000FF3F40F3D280F168B0F1804FC0F0FC806F
:1019C000206A21F4F84141EA8020F0602078C007C5
:1019D0007FF400AFFAE020F480303060306820F40B
:1019E00080203060306820F480103060FEF760FFA7
:1019F000002D0546CED13068800340F1E780FEF728
:101A000057FF401B64284FF00300F4D900F074BC6A
:101A1000FFF700F940F48031B1F5403F3ED100219D
:101A2000B6F1805F38BF012142F20000C4F202002B
:101A3000026822F00F020A440260006800F00F0002
:101A4000884240F08883666AA868B6F1404F40F447
:101A50000000A860A86820F0704040EA0600A86076
:101A600005D3E868216A20F01F00084386E0B6F13C
:101A7000FF3F6BDDE868B6F1804F7AD3216A20F42E
:101A8000F84040EA812079E0E868216A20F4787023
:101A900040EA4110002FE86071D112E00021B1EB63
:101AA000167F40F07981B0F5803F40F054830321E8
:101AB000BAE7216A20F4782040EAC130002FE860BC
:101AC0005DD1D9F80000400719D4D9F8000040F0E2
:101AD0000400C9F80000D9F8000000F004000090EC
:101AE0000098FFF797F8D9F8001021F00401C9F821
:101AF000001040F48031B1F5403F07D01BE0FFF704
:101B000089F840F48031B1F5403F14D10021B6F19D
:101B1000805F38BF012142F20000C4F20200026877
:101B200022F00F020A440260006800F00F008842B1
:101B300040F0118323E00021B1EB167F40F03A81A1
:101B4000B0F5803F40F007830321E4E7E868216AAD
:101B500020F4787040EA411010E0F068216A20F427
:101B6000787040EA4110F0602078C0077FF432AE10
:101B70002CE0216A20F4782040EAC130E860FFF7C9
:101B800089FD59F8741C44F2005201F00F01C0F6AF
:101B90000302515C40F25C0220FA01F140F20400C1
:101BA000C2F200000068C2F200021160FEF7DCFE23
:101BB000002840F0A18309E6206A21F4782141EA57
:101BC000C030F0602078C0077FF404AE2078800732
:101BD0002ED5042F1FD00C2F08BFB8F1020F1AD03A
:101BE00040F60046C4F20266E1683068002900F061
:101BF000AF8040F480703060FEF75AFE054600BFAB
:101C0000306840050BD4FEF753FE401B02284FF00E
:101C10000300F5D970E3E068002800F09C8259F8D1
:101C2000840C216920F4F81040EA014049F8840C42
:101C3000207840F600470007C4F202671ED42078DF
:101C4000400700F1F1802078800640F1A681E16A2A
:101C50003868002900F08E8040F480503860FEF72C
:101C600027FE05463868800400F19781FEF720FEC4
:101C7000401B02284FF00300F4D93DE3D9F80000DF
:101C800040070ED4D9F800004FF0010840F00400DE
:101C9000C9F80000D9F8000000F004000090009896
:101CA00001E04FF000084FF62846CFF6FF76B8590E
:101CB000C00713D1B85940F00100B851FEF7F8FD44
:101CC000054600BFB859C00708D1FEF7F1FD401B1B
:101CD0000228F7D9032001B0BDE8F0836069D9F884
:101CE0005C1008B3A06901F08052904278D001F0F6
:101CF0004062B2F1006F00F02E82490169D5D9F837
:101D00005C0020F0A050C9F85C00FEF7D1FD05464C
:101D1000D9F85C0000015BD5FEF7CAFD401B052821
:101D20004FF00300F4D9E7E221F0A050C9F85C00BD
:101D3000FEF7BEFD054600BFD9F85C00000165D581
:101D4000FEF7B6FD401B05284FF00300F4D9D3E29F
:101D500020F480703060FEF7ABFD0546306840052A
:101D60007FF566AFFEF7A4FD401B02284FF003008D
:101D7000F4D9C1E220F480503860FEF799FD0546A1
:101D80003868800440F10981FEF792FD401B02286B
:101D90004FF00300F4D9AFE2B6F1005F40F21982D0
:101DA000B0FA80F000214009B6F1405F98BF0121F0
:101DB000014039E6B6F1005F40F21682B0FA80F0D9
:101DC00000214009B6F1405F98BF01210140A2E621
:101DD000A069D9F85C1021F080510843C9F85C0073
:101DE000D9F85C0040F08060C9F85C00FEF760FD47
:101DF000054600BFD9F85C00000107D4FEF758FD86
:101E0000401B05284FF00300F4D975E2B8F1000F2C
:101E10003FF415AFD9F8000020F00400C9F8000025
:101E2000207840077FF50FAFD9F8000040070ED4A7
:101E3000D9F800004FF0010840F00400C9F8000094
:101E4000D9F8000000F004000090009801E04FF085
:101E500000084FF62846CFF6FF76B859C00712D1D2
:101E6000B85940F00100B851FEF722FD054600BF09
:101E7000B859C00707D1FEF71BFD401B02284FF0E1
:101E80000300F5D938E2A568E8070AD1D9F85C0063
:101E900020F00100C9F85C00D9F85C0020F00400D3
:101EA0000BE0D9F85C00690705D540F00400C9F8DB
:101EB0005C00D9F85C0040F00100C9F85C00FEF756
:101EC000F7FC002D054641F288360BD0D9F85C00AE
:101ED000800713D4FEF7ECFC401BB0424FF0030028
:101EE000F4D909E2D9F85C0080071ED5FEF7E0FCC2
:101EF000401BB0424FF00300F4D9FDE1A168D9F8CE
:101F00005C00090629D420F0800041F28836C9F827
:101F10005C00D9F85C00000531D5FEF7C9FC401B18
:101F2000B0424FF00300F4D9E6E1D9F85C000006B6
:101F300025D5D9F85C0041F2883620F08000C9F838
:101F40005C00D9F85C00000519D5FEF7B1FC401B18
:101F5000B0424FF00300F4D9CEE140F0800041F2EE
:101F60008836C9F85C00D9F85C00000507D4FEF794
:101F70009FFC401BB0424FF00300F4D9BCE1B8F124
:101F8000000F3FF460AED9F8000020F00400C9F85B
:101F90000000207880063FF55AAE2078000626D54E
:101FA000216B386889B140F480403860FEF780FCCE
:101FB000054600BF3868000419D4FEF779FC401BC1
:101FC00002284FF00300F5D996E120F480403860F4
:101FD000FEF76EFC054600BF3868000407D5FEF723
:101FE00067FC401B02284FF00300F5D984E12078FC
:101FF000400654D5606BA0B1B86840F40000B860EA
:10200000B86820F07061D4E90902B0F1404F41EAAC
:102010000201B96017D3F868216A20F01F00084355
:102020002AE0386820F010003860FEF741FC0546D1
:102030003868800633D5FEF73BFC401B02284FF082
:102040000300F5D958E1B0F1FF3F09DDF968B0F1BF
:10205000804F0CD3206A21F4F84141EA80200BE044
:10206000F868216A20F4787040EA411004E0206AA0
:1020700021F4782141EAC030F860386840F010005F
:102080003860FEF715FC05463868800607D4FEF771
:102090000FFC401B02284FF00300F5D92CE1A56B83
:1020A000002D00F0328159F8780C00F00C000C285B
:1020B00055D159F86C1C59F8600C012D4BD0E26BCE
:1020C00001F00303934246D1C1F30322236C013B89
:1020D0009A4240D1626C01F4704191423BD1A26CB2
:1020E00001466FF35F21013A914234D1C0F346219A
:1020F000E26C013A91422ED1C0F30641226D013AC1
:10210000914228D1C0F30660616D0139884222D125
:1021100059F85C0CC0F3CC00E16D884200F0F5800A
:1021200059F86C0C20F0100049F86C0CFEF7C0FB5D
:102130000546FEF7BDFBA842FBD0E06DC00049F8A4
:102140005C0C59F86C0C40F0100049F86C0C002045
:1021500001B0BDE8F083012001B0BDE8F08338682C
:1021600020F080703860FEF7A3FB022D05460AD1EF
:102170003868800112D5FEF79BFB401B02284FF008
:102180000300F5D9B8E0386880011AD5FEF790FB56
:10219000401B02284FF00300F5D9ADE0D9F800004C
:1021A00040072BD4D9F800004FF0010C40F0040098
:1021B000C9F80000D9F8000000F004000090009871
:1021C0001EE059F86C0C4FF6FC71CFF6F871084020
:1021D00099E00221B0F5803F08BF0121B6F1805F90
:1021E00018BF0121FFF720BC0221B0F5803F08BFD6
:1021F0000121B6F1805F18BF01218CE44FF0000C83
:102200004FF60C48CFF6FF7857F808E057F808303B
:102210004FF6037623F4802347F8083059F86C3CD6
:102220006FF0FF01B343D4E90F65D4E911023343E2
:10223000184301EB05214FF47E43084349F86C0C29
:1022400059F8600C0021C8F280010840511EE26C70
:102250004FF4FE0503EB4222236D6FF35F2105EB84
:102260000343656D92B24FF0FE4606EB05650844E8
:1022700003F4FE03104405F0FE451844284449F8D1
:10228000600C59F86C0C20F0100049F86C0CE06DF3
:10229000C00049F85C0C59F86C0C40F0100049F88B
:1022A0006C0C59F86C0CA16D20F00C0008435FEA2F
:1022B0004E3149F86C0C05D557F8080040F48020E1
:1022C00047F80800BCF1000F05D0D9F8000020F055
:1022D0000400C9F80000386840F080703860FEF7EC
:1022E000E7FA04463868800109D4FEF7E1FA001BDA
:1022F00002284FF00300F5D901B0BDE8F08359F88A
:102300006C0C40F4802049F86C0C002001B0BDE852
:10231000F083000090F88920012A1EBF0122104698
:10232000704790F88820012A4FF0020215D080F8FB
:1023300089200268136823F001031360D1E900C308
:10234000896803F4702343EA0C031943D161012126
:10235000002280F8891080F888201046704700001D
:10236000F0B581B000285ED00446006842F2000358
:1023700040F08052C5F2006300219A42A16203D16D
:10238000E1680F294FD800E0E168E26B012505EB19
:1023900052120831C90802FB01F143F2FF72C5F283
:1023A0000002904212DC43F60003C4F2000398429C
:1023B00037D043F20003C4F20103984231D042F215
:1023C0000003C4F2006398420ED02FE043F60005EC
:1023D000C5F20005A84224D043F20005C5F201056C
:1023E000A8421ED0984221D108291CD890420CDC6A
:1023F00043F60002C4F20002904212D043F20002FF
:10240000C4F2010290420CD010E043F20002C5F287
:102410000102904205D043F60002C5F2000290424C
:1024200004D1102902D9012001B0F0BD94F889101F
:1024300031B9002084F88800204600F06BF820684D
:10244000022184F88910016821F00101016083688C
:10245000A7696268B7F1806F03F4F81C0ED12AB146
:10246000B2F5800F0AD1A36B73B903E0A36BB3F18C
:10247000805F05D1036843F480530360530203D4A3
:10248000E3684FF0010E0DE0E368072B08D3D0F8A6
:1024900000E0266D2EF4807535434FF0000E04E009
:1024A0004FF0000E056825F480750560E569A66AA1
:1024B00045EA0C05E16B2E4331431943A5682669B3
:1024C00063698160616B3A43676A1143A26B394368
:1024D00011433143226A1943E36C11431943A26C3F
:1024E0002943A36D1143E26D1943236E1143194330
:1024F000BEF1000FC16005D1C168626D21F00041DD
:102500001143C16000200121C4F88C0084F88910B7
:1025100001B0F0BDB0B5B8B00446002502A8C02196
:102520003795CDE93555CDE93355FDF7E3FF206803
:1025300043F20001C4F20101884201D038B0B0BDBD
:102540004FF4000002904FF4801003952E9002A8E3
:10255000FEF768FB002818BFFEF776F840F68C40BF
:10256000C4F20260816941F480518161816901F4A2
:10257000805101910199016841F0010101600068F9
:1025800033A900F0010001900198E020339002206F
:10259000349000203590032036900520379000209D
:1025A000C4F20220FEF768F838B0B0BD2DE9F04360
:1025B00081B0D0F800901D46174604460E46FEF73F
:1025C00077F994F8891001290CD1002E18BF002F3B
:1025D00003D1012001B0BDE8F083804694F8880063
:1025E000012803D1022001B0BDE8F08301210320BE
:1025F000002284F8881084F88900C4F88C2066666C
:10260000A4F86870A4F86A70E266A4F87020A4F8D0
:102610007220A068A267B0F5C02F2068E26704D1DD
:102620000168034641F4006204E0034653F80C2FAE
:1026300061F352421A6041684FF6FF729143394488
:102640004160016841F001010160C169890207D45C
:102650006168B1F5800F03D1016841F40071016038
:10266000E268102A15D343F2FF71C5F200018842D7
:1026700000F3A88043F60001C4F20001884200F094
:10268000AD8043F20001C4F20101884200F0A6804F
:10269000E6E0B4F86A10072A00F2E480002900F0AE
:1026A0004981691C47D04FF6FE718E1E4F1C41694F
:1026B000890704D50FE02068416989070BD4FEF72C
:1026C000F7F8A0EB0800A84280F05F81B4F86A0038
:1026D0000028F0D12EE1B4F86A10042909D3E16B87
:1026E000402906D9616E51F8042B026230466166BA
:1026F00016E0B4F86A1002290AD3E16B41B1606EAA
:1027000030F8021BA9F8201060664FF6FE7007E053
:10271000616E097880F82010606E0130606638467E
:10272000B4F86A100844A4F86A00B4F86A000028F3
:10273000C1D1FFE020684169890706D4FEF7B8F8E7
:10274000B4F86A000028F5D1F4E0B4F86A1004295E
:1027500011D3E16B41290ED3616E51F8042B026253
:102760006166B4F86A000438A4F86A00B4F86A0034
:102770000028DFD1DEE0B4F86A10022911D3E16B42
:1027800079B1606E30F8021BA9F820106066B4F8C9
:102790006A000238A4F86A00B4F86A000028C9D1B7
:1027A000C8E0616E097880F82010606E01306066C4
:1027B000B4F86A000138A4F86A00B4F86A00002886
:1027C000B8D1B7E043F60001C5F20001884205D058
:1027D00043F20001C5F20101884241D1B4F86A1008
:1027E000002900F0A780691C01D120E02068416920
:1027F00089070BD4FEF75CF8A0EB0800A84280F034
:10280000C480B4F86A000028F0D193E0616E51F8FA
:10281000042B02626166B4F86A000138A4F86A0009
:10282000B4F86A000028E1D184E000BF2068416963
:10283000890706D4FEF73CF8B4F86A000028F5D101
:1028400078E0616E51F8042B02626166B4F86A00A8
:102850000138A4F86A00B4F86A000028E6D169E0FB
:10286000B4F86A10002965D0691C35D04FF6FE71A6
:102870004E1C4169890704D50EE02068416989072B
:102880000AD4FEF715F8A0EB0800A8427DD2B4F8F0
:102890006A000028F1D14DE0B4F86A10022909D38A
:1028A000E16B39B1616E51F8042B02624FF6FE7094
:1028B000616606E0606E30F8021BA9F820106066C1
:1028C0003046B4F86A100844A4F86A00B4F86A0004
:1028D0000028D2D12EE020684169890706D4FDF78F
:1028E000E7FFB4F86A000028F5D123E0B4F86A10D5
:1028F000022910D3E16B71B1616E51F8042B0262B1
:102900006166B4F86A000238A4F86A00B4F86A0094
:102910000028E0D10EE0606E30F8021BA9F820100C
:102920006066B4F86A000138A4F86A00B4F86A0076
:102930000028D0D1681C13D020684069000713D448
:10294000FDF7B6FFA0EB0800A842F5D3D4F88C0041
:1029500040F02000C4F88C0006E000BFFDF7A8FF9F
:10296000206840690007F9D5204601F01DFB0120D1
:1029700084F88900002084F88800D4F88C000028AE
:1029800018BF012001B0BDE8F083204601F00CFB28
:10299000D4F88C0040F48070C4F88C00012084F8D6
:1029A0008900002084F88800032001B0BDE8F0838E
:1029B000042888BF7047DFE800F00314263738008A
:1029C0004EF21000CEF20000016821F00401016017
:1029D00040F6E040C4F20260016821F44001016069
:1029E00070474EF21000CEF200000168012221F083
:1029F0000401016040F6E040C4F20260016862F345
:102A00009751016070474EF21000CEF2000001684D
:102A1000022221F00401016040F6E040C4F20260AD
:102A2000016862F39751016070474EF21000CEF2D8
:102A30000000016841F0040101607047411E002060
:102A4000B0EB116F1CBF012070474EF21002CEF2A6
:102A5000000251609060116841F0030111607047FD
:102A60004EF21000CEF200000068400744BF042080
:102A7000704740F6E040C4F20260006800F4400194
:102A8000A1F58000B0FA80F04009B1F5000F08BF51
:102A90000220704770470000704700007047000038
:102AA00070470000704700007047000090F83C201D
:102AB000012A4FF0020200F0B38010B5012380F824
:102AC0003C3080F83D20026842F6FF33D2F804E043
:102AD000D2F808C0C5F201039A420CDC42F600436A
:102AE000C4F201039A4212D043F20043C4F201033C
:102AF0009A420CD010E043F20043C5F201039A421F
:102B000005D042F60043C5F201039A4204D14C6855
:102B10002EF4700344EA030E4FF68F73CFF6FF5383
:102B20000C6803EA0E032343B2F1A04F5360BDE8E3
:102B3000104018DA40F6FF33C4F200039A422BDD4E
:102B400043F2FF33C4F201039A4245DC40F60043EE
:102B5000C4F200039A4258D042F60043C4F2010383
:102B60009A4252D056E040F6FF33C5F200039A4233
:102B700022DD43F2FF33C5F201039A4239DC40F60D
:102B80000043C5F200039A423FD042F60043C5F22B
:102B900001039A4239D03DE0B2F1804F35D040F286
:102BA0000043C4F200039A422FD040F60003C4F25F
:102BB00000039A4229D02DE0B2F1A04F25D040F277
:102BC0000043C5F200039A421FD040F60003C5F24D
:102BD00000039A4219D01DE043F20043C4F20103FE
:102BE0009A4212D044F20003C4F201039A420CD07C
:102BF00010E044F20003C5F201039A4205D043F20B
:102C00000043C5F201039A4204D189682CF0800385
:102C1000194391600121002280F83D1080F83C208A
:102C20001046704770470000002804BF012070471D
:102C300010B5044690F83D0028B9002084F83C0007
:102C4000204600F023F8022084F83D002068211D72
:102C500001F03EFA012084F8480084F83E0084F830
:102C60003F0084F8400084F8410084F8420084F872
:102C7000430084F8440084F8450084F8460084F852
:102C8000470084F83D00002010BD0000006841F2BC
:102C90000001C4F20001884218BF704780B582B0BD
:102CA00040F69C40C4F202600168002241F010012D
:102CB00001600068002100F01000019001983120AF
:102CC000FDF7CEFE312002B0BDE88040FDF7B8BE72
:102CD00090F83D1001291CBF01207047022180F8A7
:102CE0003D100168C868B1F1A04F40F00100C86014
:102CF00018DA40F6FF30C4F2000081422BDD43F2C7
:102D0000FF30C4F20100814245DC40F60040C4F2CD
:102D10000000814258D042F60040C4F201008142D6
:102D200052D064E040F6FF30C5F20000814222DD5F
:102D300043F2FF30C5F20100814239DC40F6004029
:102D4000C5F2000081423FD042F60040C5F20100CA
:102D5000814239D04BE0B1F1804F35D040F2004094
:102D6000C4F2000081422FD040F60000C4F20000FF
:102D7000814229D03BE0B1F1A04F25D040F2004084
:102D8000C5F2000081421FD040F60000C5F20000ED
:102D9000814219D02BE043F20040C4F2010081428D
:102DA00012D044F20000C4F2010081420CD01EE0B7
:102DB00044F20000C5F20100814205D043F2004018
:102DC000C5F20100814212D188680722C0F20102D7
:102DD0000240062A4FF0000018BFB2F5803F00D134
:102DE0007047086840F001000860002070470868DC
:102DF00040F00100086000207047000070470000AC
:102E0000F0B581B004460068C768066906EA0705A0
:102E1000A90739D4680751D428076BD4E80600F114
:102E20008680E80740F0A18017F0800718BF16F4ED
:102E3000025040F0A880002F18BF16F4807040F0B8
:102E4000AF80680600F1B680A80600F1BD80E802F8
:102E500000F1C480A80200F1CB80680206D520688A
:102E60006FF4800101612046FFF71EFE28025CBF5F
:102E700001B0F0BD21686FF4000220460A6101B084
:102E8000BDE8F040FFF7CEBE6FF002010161012105
:102E900021778069800707D02046FFF7AFFF002029
:102EA00020776807B8D509E0204600F0ADF8204645
:102EB00000F0ACF8002020776807ADD520686FF0EF
:102EC0000401016102212177806910F4407F07D05D
:102ED0002046FFF793FF0020207728079ED509E0C2
:102EE000204600F091F8204600F090F8002020776E
:102EF000280793D520686FF008010161042121772C
:102F0000C069800708D02046FFF778FF00202077AF
:102F1000E8067FF586AF0AE0204600F075F8204607
:102F200000F074F800202077E8067FF57AAF20687B
:102F30006FF01001016108212177C06910F4407F12
:102F400008D02046FFF75AFF00202077E8073FF41B
:102F50006BAF0AE0204600F057F8204600F056F824
:102F600000202077E8073FF45FAF20686FF0010191
:102F70000161204600F04CF817F0800718BF16F4E6
:102F800002503FF458AF20686FF4025101612046AF
:102F9000FFF782FD002F18BF16F480703FF451AF89
:102FA00020686FF4807101612046FFF773FD6806A9
:102FB0007FF54AAF20686FF040010161204600F0C4
:102FC00049F8A8067FF543AF20686FF02001016142
:102FD0002046FFF763FDE8027FF53CAF20686FF401
:102FE000801101612046FFF75DFDA8027FF535AF36
:102FF00020686FF4001101612046FFF751FD68025F
:103000007FF534AF2BE700007047000070470000E9
:1030100010B5006841F20001C4F20001884200D0FE
:1030200010BD012029F0ECF840F2FA24C2F20004AD
:103030002088411CB0F5FA7F218038BF10BD40F6D2
:103040000000C4F202204FF40051FDF723FC0020E1
:10305000208010BD70470000FEE70000F0B583B08F
:1030600040F2EC27010AC2F200078DF80310F9883C
:103070003A898DF8040002FB01F6B978002000249B
:10308000ADF80700ADF80500002918BF2A21C4F2E9
:1030900002248DF80910204610210022FDF702FCC1
:1030A00040F23455C2F200050DF109012846012213
:1030B0000123FFF77BFA204610210122FDF7F2FBE6
:1030C0000DF10701284602220123FFF76FFA387934
:1030D0001021002818BF2B208DF80A00204600225E
:1030E000FDF7E0FB0DF10A01284601220123FFF75D
:1030F0005DFA204610210122FDF7D4FB0DF10501F8
:10310000284602220123FFF751FA387810210028BF
:1031100018BF2C208DF80B0020460022FDF7C2FBC3
:103120000DF10B01284601220123FFF73FFA20464B
:1031300010210122FDF7B6FB76B140F23454C2F201
:1031400000040DF1030500BF204629460222012399
:10315000FFF72CFA013EF7D103B0F0BD2DE9F041A5
:1031600084B04FF4A071002808BFF0214FF0F000A8
:1031700040F2EC2608BF4FF4A0706FF05707C2F280
:10318000000608BF0827F18030810120002530703B
:10319000B07030713620C4F202258DF80400284644
:1031A000102100224FF00008FDF77CFB40F2345460
:1031B000C2F2000401A9204601220123FFF7F6F91B
:1031C000284610210122FDF76DFB0DF10501204677
:1031D000012201238DF80570FFF7E8F9B07810217E
:1031E000002818BF2A208DF8060028460022FDF787
:1031F00059FB0DF10601204601220123FFF7D6F904
:10320000284610210122FDF74DFB0DF10701204654
:10321000012201238DF80780FFF7C8F902A9204693
:10322000012201238DF80880FFF7C0F9F0880DF125
:1032300009010138000A8DF8090020460122012306
:10324000FFF7B4F9B0790DF10A0101388DF80A00E1
:10325000204601220123FFF7A9F930791021002827
:1032600018BF2B208DF80B0028460022FDF71AFB13
:103270000DF10B01204601220123FFF797F92846A3
:1032800010210122FDF70EFB03A920460122012394
:103290008DF80C80FFF78AF90DF10D01204601220F
:1032A00001238DF80D80FFF781F930890DF10E01B2
:1032B0000138000A8DF80E00204601220123FFF795
:1032C00075F9307A0DF10F0101388DF80F002046A5
:1032D00001220123FFF76AF904B0BDE8F081000084
:1032E0002DE9F04F81B00024C4F2022420464FF4AF
:1032F000807101224FF00108FDF7D4FA0120FDF79B
:10330000A7F920464FF4807100220026FDF7CAFA83
:103310005020FDF79DF920464FF480710122FDF702
:10332000C1FA0A20FDF794F9CF208DF8030020465A
:10333000102100221027FDF7B5FA40F23455C2F2F1
:1033400000050DF10301284601220123FFF72EF9A4
:10335000204610210122FDF7A5FA0DF103012846B0
:10336000012201238DF80360FFF720F94FF0C10B14
:103370000DF103012846012201238DF803B0FFF768
:1033800015F94FF0300A0DF10301284601220123FF
:103390008DF803A0FFF70AF9ED208DF80300204611
:1033A00010210022FDF77EFA0DF1030128460122CB
:1033B0000123FFF7FBF8204610210122FDF772FAE6
:1033C00064208DF803000DF103012846012201233A
:1033D000FFF7ECF803208DF803000DF103012846F8
:1033E00001220123FFF7E2F812208DF803000DF10E
:1033F0000301284601220123FFF7D8F881208DF828
:1034000003000DF10301284601220123FFF7CEF846
:10341000E8208DF80300204610210022FDF742FA33
:103420000DF10301284601220123FFF7BFF82046D2
:1034300010210122FDF736FA85208DF803000DF1E9
:103440000301284601220123FFF7B0F80DF1030123
:103450002846012201238DF803704FF01009FFF771
:10346000A5F87A208DF803000DF10301284601220A
:103470000123FFF79BF8CB208DF803002046102195
:103480000022FDF70FFA0DF1030128460122012366
:10349000FFF78CF8204610210122FDF703FA3920AE
:1034A0008DF803000DF10301284601220123FFF7E7
:1034B0007DF82C208DF803000DF103012846012230
:1034C0000123FFF773F80DF10301284601220123C0
:1034D0008DF80360FFF76AF834208DF803000DF1D2
:1034E0000301284601220123FFF760F802208DF82E
:1034F00003000DF10301284601220123FFF756F8CE
:10350000F7208DF80300204610210022FDF7CAF9AC
:103510000DF10301284601220123FFF747F8204659
:1035200010210122FDF7BEF920208DF803000DF1D6
:103530000301284601220123FFF738F8EA208DF81D
:103540000300204610210022FDF7ACF90DF1030124
:10355000284601220123FFF729F8204610210122E5
:10356000FDF7A0F90DF103012846012201238DF892
:103570000360FFF71BF80DF1030128460122012328
:103580008DF80360FFF712F8C0208DF80300204685
:1035900010210022FDF786F90DF1030128460122D2
:1035A0000123FFF703F8204610210122FDF77AF9E5
:1035B0001B208DF803000DF1030128460122012391
:1035C000FEF7F4FF2046102100228DF803B0FDF72E
:1035D00069F90DF10301284601220123FEF7E6FFF8
:1035E000204610210122FDF75DF90DF10301284667
:1035F000012201238DF803800127FEF7D7FFC520A4
:103600008DF80300204610210022FDF74BF90DF143
:103610000301284601220123FEF7C8FF204610219E
:103620000122FDF73FF90DF1030128460122012394
:103630008DF803A0FEF7BAFF0DF103012846012221
:1036400001238DF803A0FEF7B1FFC7208DF803001A
:10365000204610210022FDF725F90DF1030128462F
:1036600001220123FEF7A2FF204610210122FDF7CF
:1036700019F9B7208DF803000DF103012846012246
:103680000123FEF793FF36208DF80300204610211A
:103690000022FDF707F90DF103012846012201235D
:1036A000FEF784FF204610210122FDF7FBF8482099
:1036B0008DF803000DF10301284601220123FEF7D6
:1036C00075FF3A208DF80300204610210022FDF7F7
:1036D000E9F80DF10301284601220123FEF766FFF8
:1036E000204610210122FDF7DDF855208DF803005A
:1036F0000DF10301284601220123FEF757FFB120F7
:103700008DF80300204610210022FDF7CBF80DF1C3
:103710000301284601220123FEF748FF204610211D
:103720000122FDF7BFF80DF1030128460122012314
:103730008DF80360FEF73AFF0DF1030128460122E0
:1037400001238DF80390FEF731FFB6208DF80300BA
:10375000204610210022FDF7A5F80DF103012846AF
:1037600001220123FEF722FF204610210122FDF74E
:1037700099F84FF00A080DF10301284601220123B0
:103780008DF80380FEF712FFA2208DF803000DF1E3
:103790000301284601220123FEF708FFF2208DF8DD
:1037A0000300204610210022FDF77CF80DF10301F3
:1037B000284601220123FEF7F9FE204610210122AE
:1037C000FDF770F80DF103012846012201238DF861
:1037D0000360FEF7EBFE26208DF803002046102143
:1037E0000022FDF75FF80DF10301284601220123B5
:1037F000FEF7DCFE204610210122FDF753F80DF103
:1038000003012846012201238DF80370FEF7CEFE46
:10381000E0208DF80300204610210022FDF742F839
:103820000DF10301284601220123FEF7BFFE2046C9
:1038300010210122FDF736F84FF00F0A0DF10301B8
:103840002846012201238DF803A0FEF7AFFE4FF0BA
:103850002A0B0DF103012846012201238DF803B044
:10386000FEF7A4FE28208DF803000DF10301284681
:1038700001220123FEF79AFE08270DF103012846D5
:10388000012201238DF80370FEF790FE0E208DF8C3
:1038900003000DF10301284601220123FEF786FEF5
:1038A0000DF103012846012201238DF80370FEF774
:1038B0007DFE54208DF803000DF1030128460122FE
:1038C0000123FEF773FEA9208DF803000DF103011B
:1038D000284601220123FEF769FE43208DF80300EC
:1038E0000DF10301284601220123FEF75FFE0DF1D1
:1038F00003012846012201238DF80380FEF756FEBE
:103900000DF103012846012201238DF803A0FEF7E3
:103910004DFE0DF103012846012201238DF80360BD
:10392000FEF744FE0DF103012846012201238DF824
:103930000360FEF73BFE0DF103012846012201233F
:103940008DF80360FEF732FE0DF1030128460122D7
:1039500001238DF80360FEF729FEE1208DF80300B6
:10396000204610210022FCF79DFF0DF1030128469F
:1039700001220123FEF71AFE204610210122FCF746
:1039800091FF0DF103012846012201238DF8036008
:10399000FEF70CFE15208DF803000DF103012846FB
:1039A00001220123FEF702FE17208DF803000DF11E
:1039B0000301284601220123FEF7F8FD07208DF8B8
:1039C00003000DF10301284601220123FEF7EEFD5D
:1039D0004FF011090DF103012846012201238DF852
:1039E0000390FEF7E3FD06208DF803000DF10301BF
:1039F000284601220123FEF7D9FD4FF02B080DF1D7
:103A000003012846012201238DF80380FEF7CEFD35
:103A100056208DF803000DF10301284601220123F1
:103A2000FEF7C4FD3C208DF803000DF1030128468C
:103A300001220123FEF7BAFD05208DF803000DF1E8
:103A40000301284601220123FEF7B0FD10208DF866
:103A500003000DF10301284601220123FEF7A6FD14
:103A60000DF103012846012201238DF803A0FEF782
:103A70009DFD3F270DF103012846012201238DF80A
:103A80000370FEF793FD0DF1030128460122012387
:103A90008DF80370FEF78AFD0DF10301284601221F
:103AA00001238DF803A0FEF781FD2046102100229E
:103AB0008DF80380FCF7F6FE0DF103012846012284
:103AC0000123FEF773FD204610210122FCF7EAFED8
:103AD0000DF103012846012201238DF80360FEF752
:103AE00065FD0DF103012846012201238DF80360D5
:103AF000FEF75CFD01208DF803000DF1030128465F
:103B000001220123FEF752FD0DF103012846012297
:103B100001238DF80370FEF749FD20461021002295
:103B20008DF803B0FCF7BEFE0DF10301284601221B
:103B30000123FEF73BFD204610210122FCF7B2FED7
:103B40000DF103012846012201238DF80360FEF7E1
:103B50002DFD0DF103012846012201238DF803609C
:103B6000FEF724FD0DF103012846012201238DF803
:103B70000360FEF71BFDEF208DF803000DF103013C
:103B8000284601220123FEF711FD35208DF80300A0
:103B9000204610210022FCF785FE0DF10301284686
:103BA00001220123FEF702FD204610210122FCF72D
:103BB00079FE0DF103012846012201238DF80360EF
:103BC000FEF7F4FC2046102100228DF80390FCF74C
:103BD00069FE0DF10301284601220123FEF7E6FCF0
:103BE000204610210122FCF75DFE21208DF8030004
:103BF000204610210022FCF755FE0DF10301284656
:103C000001220123FEF7D2FC204610210122FCF7FD
:103C100049FE7820FCF71CFD29208DF80300204682
:103C200010210022FCF73EFE0DF10301284601227F
:103C30000123FEF7BBFC204610210122FCF732FED7
:103C40000020FFF78BFA0020FFF708FA01B0BDE86B
:103C5000F08F000070B586B0002540F68C400595C9
:103C6000C4F202600168002441F0010101600068B3
:103C7000C4F2022400F001000090009820461021B8
:103C800000221026FCF70EFE01200196CDE9020568
:103C90000320049001A92046FCF7EEFC06B070BD9D
:103CA00080B50020FCF70AFE002818BFFCF7CCFC0A
:103CB000FCF714FE002808BF80BDBDE88040FCF77B
:103CC000C3BC000010B584B040F2345043F200038E
:103CD00000244FF48001C2F20000C4F201030394F7
:103CE000CDE9014407224FF0806CC0E900314FF06C
:103CF0008041C0E90242C0E90444C0E906C4C0E909
:103D00000844C0E90A42C0E90D14C463C0E9124482
:103D1000C0E91444C0E916440466FEF721FB0028FC
:103D200018BFFCF791FC4FF080500194CDE90204DC
:103D300040F23450C2F2000001A9FEF7EBFA00286D
:103D400018BFFCF781FC04B010BD000010B584B0B2
:103D500040F2C45041F2000200249F21C2F2000050
:103D6000C4F200024FF6FF730394CDE90144C0E9A9
:103D70000021C0E902438461FEF756FF002818BF06
:103D8000FCF762FC40F2C450C2F2000001A90194A9
:103D90000394FEF78BFE002818BFFCF755FC04B017
:103DA00010BD0000FEE70000FEE7000070470000C5
:103DB00070B540F62C46C4F2026656F82C1C044638
:103DC00021F0806046F82C0CFCF772FD054656F891
:103DD0002C0C00010BD500BFFCF76AFD401B02282C
:103DE00084BF032070BD56F82C0C0001F4D4306859
:103DF00040F60371884394E80E106FF0FF0505EB61
:103E0000022208431043306030690021C8F280016B
:103E100000EA010E591E4FF47E42236902EB4C2248
:103E20004FF4FE0505EB034365696FF35F2192B222
:103E30004FF0FE4000EB0560714403F4FE031144B3
:103E400000F0FE401944084430613068A16920F058
:103E50000C0008433060206A3168084330603068E5
:103E60004FF6F87120F0100030607069E269884305
:103E700040EAC2007061306840F01000306056F8CF
:103E80002C0C40F0806046F82C0CFCF711FD044629
:103E900056F82C0C000144BF002070BDFCF708FD53
:103EA000001B032824BF032070BDF1E770B540F666
:103EB0003046C4F2026656F8301C044621F08050A9
:103EC00046F8300CFCF7F4FC054656F8300C800040
:103ED0000BD500BFFCF7ECFC401B022884BF03207D
:103EE00070BD56F8300C8000F4D4306840F6037191
:103EF000884394E80E106FF0FF0505EB022208439B
:103F00001043306070690021C8F2800100EA010EA0
:103F1000591E4FF47E42236902EB4C224FF4FE05FA
:103F200005EB034365696FF35F2192B24FF0FE40EA
:103F300000EB0560714403F4FE03114400F0FE4001
:103F40001944084470613068A16920F00C000843EE
:103F50003060206A31680843306030684FF6F8718D
:103F600020F010003060B069E269884340EAC20086
:103F7000B061306840F01000306056F8300C40F00E
:103F8000805046F8300CFCF793FC044656F8300C91
:103F9000800044BF002070BDFCF78AFC001B032892
:103FA00024BF032070BDF1E7016840F26F32D1F801
:103FB00014C08B6943F008038B618B6943F01003D5
:103FC0008B610B6823F001030B600B6923EA02028B
:103FD0000A618A6822F440428A6090F889305FEA78
:103FE0008C620BD5042B09D0D0F88C2042F08002D3
:103FF000C0F88C208A6942F020028A6190F88930EA
:104000005FEA4C620BD5032B09D0D0F88C2042F02C
:104010000402C0F88C208A6942F040028A615FEA9B
:104020008C5208D45FEACC5212D40021A0F86A1056
:10403000A0F872107047D0F88C2042F00102C0F84E
:104040008C208A6942F400728A615FEACC52ECD516
:10405000D0F88C2042F00802C0F88C208A6942F423
:1040600080728A610021A0F86A10A0F8721070476F
:1040700070470000FCF73CBC4EF6885CCEF2000CAA
:10408000DCF80010012241F47001CCF8001040F679
:104090000041C4F202610A600022CA610A624A62F7
:1040A0000B684FF6FF70CEF6F620184008608A6263
:1040B000086820F4802008604FF000600A654CF822
:1040C000800C704740F2C450C2F20000FEF798BE68
:1040D0000268B0F1A04F15DA40F6FF33C4F20003D6
:1040E000984225DCB0F1804F47D040F20043C4F243
:1040F0000003984241D040F60003C4F20003984206
:104100003BD03EE040F6FF33C5F20003984222DC8C
:10411000B0F1A04F31D040F20043C5F20003984205
:104120002BD040F60003C5F20003984225D028E0CA
:1041300040F60043C4F2000398421ED042F600430A
:10414000C4F20103984218D043F20043C4F20103C1
:10415000984212D015E040F60043C5F200039842A1
:104160000BD043F20043C5F20103984205D042F65A
:104170000043C5F20103984203D14B6822F070025C
:104180001A43B0F1A04F1EDA42F6FF33C4F2010326
:10419000984237DD43F6FF73C4F20103984251DDC4
:1041A00044F20003C4F2010398427ED044F200437B
:1041B000C4F20103984278D044F60003C4F201032C
:1041C000984272D075E042F6FF33C5F2010398427F
:1041D00028DD43F6FF73C5F2010398423FDD44F248
:1041E0000003C5F2010398425FD044F60003C5F214
:1041F0000103984259D044F20043C5F201039842AA
:1042000053D056E040F2FF73C4F20003984233DC0F
:10421000B0F1804F49D040F20043C4F2000398420D
:1042200043D046E040F2FF73C5F20003984230DC11
:10423000B0F1A04F39D040F20043C5F200039842DC
:1042400033D036E042F60043C4F2010398422CD04A
:1042500043F20043C4F20103984226D029E042F61B
:104260000043C5F2010398421FD043F20043C5F258
:104270000103984219D01CE040F60003C4F2000389
:10428000984212D040F60043C4F2000398420CD08A
:104290000FE040F60003C5F20003984205D040F657
:1042A0000043C5F20003984203D1CB6822F4407268
:1042B0001A4380B522F0800E8A684B69D1F800C09D
:1042C000C26242F6FF3243EA0E03C5F20102904297
:1042D000C0F828C0BDE8804018DC43F6FF72C4F285
:1042E000010290422BDD44F20002C4F2010290422E
:1042F0003ED044F20042C4F20102904238D044F66B
:104300000002C4F20102904232D033E043F6FF7261
:10431000C5F2010290421FDD44F20002C5F2010223
:10432000904225D044F60002C5F2010290421FD00F
:1043300044F20042C5F20102904219D01AE042F65E
:104340000042C4F20102904212D043F20042C4F291
:10435000010290420CD00DE042F60042C5F201028B
:10436000904205D043F20042C5F20102904201D1D1
:1043700009690163016841F00401016001214161A3
:1043800003607047FEE7000070B584B0030A8DF843
:104390000B308DF80C00080A40F2EC268DF809006D
:1043A000100AC2F200068DF80700B07800248DF8DC
:1043B0000A108DF80820002818BF2A20C4F2022411
:1043C0008DF80D00204610210022FCF76BFA40F218
:1043D0003455C2F200050DF10D01284601220123DA
:1043E000FEF7E4F8204610210122FCF75BFA0DF1FC
:1043F0000B01284602220123FEF7D8F8307910215C
:10440000002818BF2B208DF80E0020460022FCF754
:1044100049FA0DF10E01284601220123FEF7C6F8E4
:10442000204610210122FCF73DFA0DF10901284632
:1044300002220123FEF7BAF830781021002818BFB5
:104440002C208DF80F0020460022FCF72BFA0DF1EE
:104450000F01284601220123FEF7A8F8204610216B
:104460000122FCF71FFA0DF1070128460222012361
:10447000FEF79CF804B070BDB0B540F29C24C2F2C7
:1044800000042046442100F08FFF46F60950C0F694
:1044900000001E21002227F011FF40F24025C2F249
:1044A0000005686001202870204600F04DFF01469D
:1044B000686821B128F006F800202870B0BD27F008
:1044C000F1FF00202870B0BD2DE9F043B1F900E004
:1044D000B2F90460B64511DCB1F90440B2F90050FC
:1044E000AC420BDBB1F902C0B2F90690CC4505DC59
:1044F000B1F90670B2F902309F4203DAFF2358B2D5
:10450000BDE8F083AE4503DB6345D8BFB44212DD9E
:10451000A3EB0C052DB2A7EB0C06012D11DBA0F8C7
:1045200000E0A0F802C08480C380B2F80690B1F821
:1045300002C0012306E04F45EADC002358B2BDE883
:10454000F0830023A6EB090565442DB2012D16DB8F
:10455000B1F906500FFA89F7AF4210DA0D888F884B
:10456000B44400EBC30620F83350A6F80290B7809D
:10457000A6F806C0B1F802C0B2F806900133B2F94D
:1045800002500FFA8CF6B542C8BFAC46B1F90660CE
:104590000FFA89F5B2F800800F88B542B8BF4E46D1
:1045A000A8EB07052DB2012DA4EB0E050FDBA6EB42
:1045B0000C0424B2012C0ADB00EBC30420F8337096
:1045C000A4F802C0A4F80480E6800F880133918823
:1045D0006A1A3A4412B2012A09DB7A1900EBC307BE
:1045E00020F833100133A7F802C0BA80FE8058B219
:1045F000BDE8F08370B50346B1F90000B2F90040A0
:10460000B1F902C0B2F90250B1F904E0B2F90460A4
:10461000A042B1F90610B2F90620C8BF0446AC4565
:104620001C80C8BF6546B6455D80B8BF76469142DE
:104630009E80B8BF0A460020B4424FF00001D8BFA8
:1046400001219542D8BF0120DA80084070BD0000EA
:104650002DE9F04381B00C46B0F90070B1F90010BB
:104660008F423DDBB0F90260B4F902108E4237DBB5
:10467000B0F90490B4F90410894531DCB0F9068032
:10468000B4F9060080452BDC15466AB3694620461E
:104690002A46ADF80070ADF8026000F097F8F8B166
:1046A000694620462A46ADF80090ADF8026000F059
:1046B0008DF8A8B1694620462A46ADF80070ADF8DD
:1046C000028000F083F858B1694620462A46ADF8CA
:1046D0000090ADF8028000F079F801B0BDE8F083F9
:1046E000002001B0BDE8F083012001B0BDE8F083F7
:1046F000B0F90020B1F904309A4213DCB0F904207B
:10470000B1F900309A420DDBB0F90220B1F9063060
:104710009A4207DCB0F90600B1F902108842A4BF42
:1047200001207047002070472DE9F04381B00C460E
:10473000B0F90460B1F900108E4211DBB0F90670D7
:10474000B4F902108F420BDBB0F90080B4F9041009
:10475000884505DCB0F90290B4F90600814503DD17
:10476000012001B0BDE8F0831546EAB16946204654
:104770002A46ADF80080ADF8029000F027F898B90D
:10478000694620462A46ADF80060ADF8029000F078
:104790001DF848B9694620462A46ADF80080ADF8B4
:1047A000027000F013F818B1002001B0BDE8F083EA
:1047B000694620462A46ADF80060ADF8027000F068
:1047C00005F880F0010001B0BDE8F0832DE9F0416B
:1047D000B1F90030B0F90040A3420DDBB0F904E0BC
:1047E000734509DCB1F902C0B0F902108C4503DB56
:1047F000B0F90650AC4502DD0020BDE8F081012A89
:1048000056DBC4F101007044C1F101071FFA80F8C2
:104810002F44BEB200EBD83007EBD63607B230B229
:104820007E10B6EB600F4FEA6000B8BF7810904280
:10483000A8BF1046021917B2421816B2BB42D8BF21
:10484000B44517DD2A1A12B2BB422CDC94452ADB90
:10485000391809B2801A091B01EBD171A0EB610074
:1048600004EB61064F106044991B10FB00F007FB3E
:1048700007F210E0384400B2001B00EBD070421089
:1048800004EB600701EB600002FB02F2ACEB0000FE
:1048900010FB00F0D91B11FB01010020914298BFD1
:1048A0000120BDE8F081AEEB000424B2A34202DA9D
:1048B0000120BDE8F08194451BDAB445F8DC201AEC
:1048C00002B2AEEB020202EBD27201EB620100EB2C
:1048D0006200ACEB010111FB01F15710181A07FB44
:1048E00007F210FB00110020914298BF0120BDE8A3
:1048F000F081211A0CB2801AAEEB040707EBD777D0
:10490000A0EB670001EB67017E106044591A10FBB1
:1049100000F006FB06F2BEE770B5B1F90030B2F95F
:104920000040B1F902C0B2F90250B1F904E0B2F9A5
:104930000460A342B1F90610B2F90620B8BF1C46C4
:10494000AC450480B8BF6546B6454580C8BF7646CD
:1049500086809142C8BF0A46C28070BD2DE9F04FE3
:1049600091B0044627F036FC0021002C08910390FA
:104970000AD0E06840F27415C2F2000528602046B3
:1049800027F090FD286806E00DF07AF840F27411E7
:10499000C2F200010860006923F0DCF940F2741BE8
:1049A000C2F2000BDBF80010486918B123F0D2F90D
:1049B000DBF80010C86923F0CDF9DBF80000006ACD
:1049C00023F0C8F9DBF800000169002900F0258117
:1049D000B0F85011002953D000270DF124094FF0F1
:1049E000010800BF002948D0C21992F83021002ADE
:1049F00043D10025BD4239D0411991F83011A9BBEE
:104A000000F1300101EBC70001EBC501FFF770FEBB
:104A100060B3DBF80000303000EBC70100EBC502EB
:104A20004846FFF779FF484608F0C8FADBF800105F
:104A3000044601EBC70101F1300008F0BFFADBF8D2
:104A40000010064601EBC50101F1300008F0B6FA8E
:104A5000304484420AD2DBF80000DDE9092300EB90
:104A6000C70128440A634B6380F83081DBF80000FB
:104A70000135B0F850118D42BCD301378F42B1D30C
:104A800001680A7CD20700F09980C968496800294A
:104A900000F0948000F5AC7000F0F4FC002840F0C9
:104AA0008D80DBF800000168C9680B688A689A424B
:104AB00008BF4B68CDE906230DF000F8DBF80010C5
:104AC0008246B1F850210020002ACDE90F00CDE93F
:104AD0000D00CDE90B00CDE909004BD000270DF109
:104AE000240800BFC81990F83001E0BB01F5AC7094
:104AF00000F02AFCB8B30446DBF80000214600F5BC
:104B0000AC7000F043FCDBF80010054601EBC70178
:104B1000404601F130022146FFF7D6FC0146013044
:104B20001ED0DBF80000012900F5AC7012DB5FFA43
:104B300081F94646214600F059FC716832684160AF
:104B40000260DBF80000B9F1010900F5AC7006F174
:104B50000806EFD1214600F09FFC20461CF010F81B
:104B6000002D2C46C8D1DBF800100137B1F85001F8
:104B70008742B7D301F5AC7000F0E6FB0446DBF8E2
:104B80000000079EB4B1069D00682946C06B5246DE
:104B9000876B2346CDE9006A0294B847DBF8000032
:104BA000214600F5AC7000F0F1FB0446DBF8000094
:104BB000002CE9D100F5AC7000F08CFBDBF80010A4
:104BC0000020B1F85081CBF80400B8F1000F00F0DC
:104BD000D681B8F1010F26DB01EB080090F82F21F8
:104BE000002AA8F1010224D0012A1CDB90F82E2112
:104BF000002AA8F102021CD0012A14DB90F82D2112
:104C0000002AA8F1030214D0012A0CDB90F82C0131
:104C1000A8F104080028DCD10CE00021A0F8501114
:104C200011B0BDE8F08F4FF000080868426B22B960
:104C300007E090460868426B1AB19047DBF8001015
:104C40000868C068027E02F0FE0202760868C0684A
:104C5000027E02F0FD020276B1F8502191F82800A0
:104C6000002A40F0040281F8282000F0848109AD78
:104C70000024CDF8108000BF081990F8300128B149
:104C8000B1F8500101348442F6D32CE1444505D1FA
:104C90000868C068027E42F001020276086801EBF3
:104CA000C409C06809F1300A027E02F0FD020276F2
:104CB0000868C268C66B92683260007C800728D0A2
:104CC00008460CF0FBFEDBF80010A946451E08461E
:104CD0000CF05CFF013807B22BB2484600210022DD
:104CE0004D46009708F0A6F9DBF80000C6F80490DE
:104CF0000168D1E90302017E920727D4027E01F008
:104D0000010102F0FD0242EA41010176C6F808A065
:104D100020E039F9367FBAF80000CDF81CA0C0F1C8
:104D200001004B4633F8022D4D4610440590069382
:104D300035F8043DC3F1010000EB070A08460CF00A
:104D400025FF87420ADAB9F800800DE041F0020140
:104D50000176B560304628F07FFDB2E0DBF8000058
:104D60000CF014FFA0F10108DBF80000059A0068C0
:104D700012B2C1685746C9682B46B1FBF2FA39B284
:104D800082698A45C8BF8A466AB3002109AD099184
:104D9000ADF82810AAF1010729460593ADF82A704D
:104DA0009047BDF82610BDF82A00C1F10101014469
:104DB00009B28A4519DA00BF38B201281DDBDBF8D9
:104DC0000000013F006829468269ADF82A709047CB
:104DD000BDF82610BDF82A00C1F10101014409B255
:104DE0008A45E9DB05E009AD0AE00FFA8AF10029FE
:104DF00003DD00B200F1010A01E04FF0000A059B5B
:104E0000B3F900100FFA88F788B251444A1EBA422B
:104E100004DD0021079AB94237D150E0079B0D46C7
:104E20001B880FFA82F9ADF82430069B4F451B888A
:104E3000ADF82830ADF8260009A8ADF82A20C6E95B
:104E40000100DBF800001FFA88F20068C068816882
:104E50003160BCBFADF82A80C1461FFA89F18A4291
:104E600003D1017E41F002010176304628F0F4FCC6
:104E70000AFA85F128464A1EBA42CFDD0FFA89F1B7
:104E8000284609AD079AB94219D01188ADF8241007
:104E900006990988ADF82810ADF82600ADF82A80EB
:104EA0007560DBF80000B5600068C068816831603B
:104EB000017E41F002010176304628F0CDFCDDF89C
:104EC0001080DBF8000000EBC400303008F076F80A
:104ED000DBE900121044CBF80400B1F850010134B2
:104EE0008442FFF4C9AE91F82820002802F0FB02AA
:104EF00081F8282043D00868027CD2071BD0C06804
:104F00004068C0B130244FF4987500BF485D50B977
:104F100001F5AC7000F09CFADBF800100A19526839
:104F20000B5942600360B1F85001A5F22F1208340A
:104F300001358242EAD301F130004FF480711CF058
:104F400031FBDBF80000202100F598701CF02AFBF3
:104F5000DBF800000021A0F85011039827F024F995
:104F60000890DBF800000068436A43B10899DBF859
:104F70000420984703E000F0FB0081F828001BF0B4
:104F800023FC00F049F800F003F811B0BDE8F08F01
:104F900010B540F2FC24C2F200042068002818BFBB
:104FA0001BF0EEFD20461C211CF0FCFAE0690028F5
:104FB00018BF1BF0E5FD04F11C001C211CF0F2FAE7
:104FC000A06B002818BF1BF0DBFD04F138001C218A
:104FD0001CF0E8FA606D002818BF1BF0D1FD04F149
:104FE00054001C21BDE810401CF0DCBA40F23051E6
:104FF000C2F20001096800E04969002908BF704752
:105000004A68824202D00A688242F5D10A7E42F0A2
:1050100001020A76F0E700007047000040F290209D
:10502000C2F20000042100F0BFB9000040F2A82045
:10503000C2F20000202100F0B7B900002DE9F04FC6
:1050400085B00E9E1D46002B834608BFB6F5807FB7
:1050500068D0DDF83C800023019301A8ADF808106A
:10506000CDF80A30ADF80E20ADF81010ADF81220D2
:10507000294632464346071D00F1080900F10C0A93
:1050800022F0BAFE384629463246434622F0B4FEA4
:10509000484629463246434622F0AEFE504629464F
:1050A0003246434622F0A8FEBDF90410BDF908704F
:1050B000BDF90C60BDF91040B9423846BDF906C0D3
:1050C000BDF90A30B8BF0846A6422546B8BF3546E6
:1050D000A842B8BF0546B942C8BF0F46A642C8BFDE
:1050E0003446A742C8BF3C46A11CBDF90E60BDF9BD
:1050F00012409C451A46A5F10200B8BF6246A6427E
:105100002546B8BF3546AA42B8BF15469C45C8BF1C
:105110006346A642C8BF3446AF1EA342C8BF1C4662
:10512000A21C03E00139013A00200027ABF800007F
:10513000ABF80410ABF80270ABF8062005B0BDE880
:10514000F08F0000F0B581B016460C46074627F0F8
:1051500041F8A2B240F2EC34C2F200040546204607
:105160003946334618F0C0FC38B1E0690021002808
:10517000A1620DD0204601B0F0BD20462C211CF0CC
:1051800011FA4FF00040A0620024204601B0F0BDAB
:10519000284627F009F80146002808BF01212046CB
:1051A000E16101B0F0BD000010B540F2B424C2F2DC
:1051B00000042046142100F0F7F8204600F0FCF827
:1051C000C0B1142104461CF0EDF94DF251004DF22E
:1051D0000511C0F60100C0F6010120604DF28D30CE
:1051E00061604DF21901C0F60100C0F60101C4E989
:1051F000020110BDFEE70000F0B585B004460028AE
:105200000D4604D10CF03CFC044600285FD020463B
:105210000CF0D4FC00285AD094F82800400756D44B
:105220000020D5B3029020460CF048FC0138ADF8C0
:105230000C0020460CF0AAFC0138ADF80E006846C0
:1052400002AA2946FFF7D6F9002840D02068017C41
:10525000890726D48269002A1CBF69469047B4F8A2
:10526000500128B304F1300500276E463046294628
:105270000022FFF7EDF950BBB4F8501101378F420F
:1052800005F10805F2D31F2913D90021A4F8501104
:10529000DDE902022063626311E0A4F8500105B069
:1052A000F0BDDDE90201C4E90C016068012108E0FC
:1052B0000021DDE9002304EBC10002634363606861
:1052C00001310028A4F8501118BF27F0FBF805B0F1
:1052D000F0BD0000F0B581B068B34568044655B331
:1052E000002700BFD4E9001328460A1DAD588342A9
:1052F0000ED0A6684358864214D0002B18BF9D508C
:10530000EDB16B501BF03CFC002DEBD113E000BF66
:10531000002D656011D06F501BF032FC002DE1D1E3
:1053200009E000BF002BA36014BF9F5067601BF013
:1053300027FC002DD6D101B0F0BD0021A16001B045
:10534000BDE8F0401BF01CBC002814BF40680020E2
:1053500070470000C0B14268B2B10068011D03206F
:105360005258002A04BF023870475258002A04BF1E
:10537000013870475258002A08BF7047525804300D
:10538000002AEDD1033870470020704700680844B8
:10539000406870470068085870470000002814BF34
:1053A00080680020704700000331002221F00301D3
:1053B000C0E900128260704710B5044600680830EA
:1053C0001BF0E4F9002808BF10BD216800224250FC
:1053D000626843185A606268002A18BF5050A1687A
:1053E0006060002908BFA06010BD000070B50446D1
:1053F00000284FF000001CBF0D46002900D170BDF1
:10540000D4E9000608301BF0C1F9AE420AD0E8B179
:1054100021686A580B1D002A18BFD05042506850AE
:10542000C55070BD00284FF000020FD021684250D7
:10543000626843185A606268002A18BF5050A16819
:105440006060002918BF70BDA06070BD002070BDF5
:1054500010B50446006808301BF098F9002808BF12
:1054600010BD22680023111D4350A3688350A26819
:10547000002A18BF50506168A060002908BF606012
:1054800010BD000028B1416809B9806808B100204A
:10549000704701207047000080B5002808BF80BD1C
:1054A00042688A4213D0D0F800E0826851F80E308A
:1054B0008A4215D00EF1040C51F80C00002B18BFD5
:1054C00043F80C00002818BF40F80E3080BD026879
:1054D00011444968002941600AD00020885080BDED
:1054E0000021002B836018BF03EB0E00416080BDDC
:1054F0000021816080BD000010B50446006882680C
:1055000042B900BF0068002808BF10BD2060826853
:10551000002AF7D0214690472068F3E780680028EA
:1055200014BFC08A002000B27047000080680028C5
:105530000EBF0020807E8009704700002DE9F041F9
:1055400006464FF6FF701446002E22EA000815D0DA
:10555000304662220D461FF0E7FC78B1074600682E
:1055600060B13046294663221FF0DEFC010605D0FB
:105570003B68A1B2C2B2384698470446A0B240EA9E
:105580000800BDE8F08100002DE9F04F91B004461D
:10559000408CDDF868B040F0080060842284164634
:1055A000BBF8082020461F468A461FF0BDFC278412
:1055B000BBF808200546204651461FF0B5FC618C1B
:1055C000814621F008004D45608403D102D111B01D
:1055D000BDE8F08F2684BBF80820204651461FF016
:1055E000A3FC804620465146278405F04BF800680E
:1055F000BBF80810424624F0D9FCBBF808000B2881
:1056000028D147F6FF76B14518BFB04522D12046D4
:105610001FF020FE81B200EBD13000B245102046D1
:105620001EF0B0FD81B2B04500EBD13000B24FEAC0
:10563000600005D1691C00F101084145B8BF8846EA
:1056400047F6FF71894505D1691C00F101094945FB
:10565000B8BF894640F2C020C2F20000FFF7ACFE9E
:10566000D0B3C0E9038904600646BBF808006C4665
:10567000B0802046C6F808A006F052FE43F6096046
:10568000C0F603000096019044F25100C0F60300FA
:10569000029043F68D70C0F6030003900020CDE920
:1056A0000800FF200A90BBF80000BBF802100B9026
:1056B0004842DBF80C100C9007919DF84200DBF893
:1056C000101000F0FE008DF842002046069106F012
:1056D000A9FE11B0BDE8F08FFEE7000040F2C02047
:1056E000C2F200001421FFF75FBE00002DE9F04771
:1056F00082B00446408C10F47C7F08D06FEA010829
:105700006FEA02094FF0000A01AD00270CE04FF0EC
:10571000000A5FFA8AF002B0BDE8F087BAF1000F24
:1057200008BF4FF0010AF5E0E16801EBC7025268DB
:10573000930100F1F18092B202EA080302EA090241
:10574000B3FA83F3B2FA82F25B095209934200F092
:10575000E38051F83760102130462A4624F058F98A
:10576000002840F0E480304611212A4624F050F908
:10577000002840F0DC80304612212A4624F048F907
:10578000002840F0D480304613212A4624F040F906
:10579000002840F0CC80304615212A4624F038F904
:1057A000002840F0C480304614212A4624F030F905
:1057B000002840F0BC8030460A212A4624F028F90F
:1057C000002840F0B48030466B212A4624F020F9AE
:1057D000002840F0AC8030466C212A4624F018F9AD
:1057E000002840F0A480304601212A4624F010F918
:1057F000002840F09C80304604212A4624F008F915
:10580000002840F09480304602212A4624F000F916
:10581000002840F08C80304603212A4624F0F8F816
:10582000002840F08480304605212A4624F0F0F814
:1058300000287CD1304606212A4624F0E9F80028C9
:1058400075D1304632212A4624F0E2F800286ED184
:1058500030466E212A4624F0DBF8002867D1304616
:105860006D212A4624F0D4F8002860D13046692101
:105870002A4624F0CDF800284AD130466A212A462B
:1058800024F0C6F8002843D130466E212A4624F081
:10589000BFF8E8BB30466D212A4624F0B9F8B8BB02
:1058A000304637212A4624F0B3F888BB30463821E9
:1058B0002A4624F0ADF858BB304635212A4624F05C
:1058C000A7F828BB304640212A4624F0A1F8F8B9B1
:1058D000304645212A4624F09BF8C8B9304641217C
:1058E0002A4624F095F898B9304642212A4624F0F9
:1058F0008FF868B9304643212A4624F089F838B930
:10590000304649212A4624F083F800283FF406AFA8
:105910004FF0020A608C00BFC0F3051101378F42BF
:10592000FFF402AF5FFA8AF002B0BDE8F0874FF0F3
:10593000030A5FFA8AF002B0BDE8F08740F2741003
:10594000C2F200000068704770470000C0F3041006
:10595000072828BF07207047002804BF0020704791
:105960004FF6FF71884204BF1F207047702805D88A
:1059700044F2E661C0F60301085C704740F268211A
:10598000C2F20001096851B140F218427138C2F206
:10599000000280B21268824284BF085C7047002017
:1059A0007047000080B540F26C20C2F20000182160
:1059B000FFF7FAFC40F2D820C2F20000012141704A
:1059C00080BD00002DE9F04180B3164604460D4627
:1059D000FAF73FFD40F26008C2F20008D8F8002054
:1059E0000746204629469047D8F80020054620441F
:1059F00031469047391A8D4218D82044425D6B1CBD
:105A00008B42625512D843195F78AE1C62198E42E0
:105A100057700BD89F78EE1C8E42977088BFBDE8F8
:105A2000F081DB7804358D42D370E7D9BDE8F08191
:105A30002DE9F04140F25408C2F200081446D8F8AB
:105A400004200F4619461D46064690470028386038
:105A500008D02868D8F804203044002190472060FE
:105A6000BDE8F08100202060BDE8F0812DE9F04F15
:105A70008DB0169C0546002C9946079208911CBFD4
:105A80000020208085B1089800284FF0000000F029
:105A9000F3812978002900F0EF81179810F0060FA4
:105AA00018D0012049B9C7E100200DB0BDE8F08F42
:105AB000295C0130002900F0BF810A2918BF0D2997
:105AC000F6D1002C00F0D8814FF6FF7121800DB087
:105AD000BDE8F08F0021B9F1010F0A91C0F2BA813F
